:020000040800F2
:1000000070060020290200083102000833020008AF
:10001000350200083702000839020008000000001D
:100020000000000000000000000000003B0200088B
:100030003D020008000000003F02000841020008E5
:10004000430200084302000843020008430200087C
:10005000430200084302000843020008430200086C
:10006000430200084302000843020008430200085C
:10007000430200084302000843020008430200084C
:10008000430200084302000843020008430200083C
:10009000430200084302000843020008430200082C
:1000A000430200084302000843020008430200081C
:1000B000430200084302000843020008430200080C
:1000C00043020008430200084302000843020008FC
:1000D00043020008430200084302000843020008EC
:1000E00043020008430200084302000843020008DC
:1000F00043020008430200084302000843020008CC
:1001000043020008430200084302000843020008BB
:1001100043020008430200084302000843020008AB
:10012000430200084302000843020008430200089B
:10013000430200084302000843020008430200088B
:10014000430200084302000843020008430200087B
:10015000430200084302000843020008430200086B
:10016000430200084302000843020008430200085B
:10017000430200084302000843020008430200084B
:10018000430200084302000800F002F800F03CF8C7
:100190000AA090E8000C82448344AAF10107DA45E2
:1001A00001D100F031F8AFF2090EBAE80F0013F0F8
:1001B000010F18BFFB1A43F001031847180600008F
:1001C00038060000103A24BF78C878C1FAD8520720
:1001D00024BF30C830C144BF04680C6070470000C1
:1001E0000023002400250026103A28BF78C1FBD840
:1001F000520728BF30C148BF0B6070471FB500F0E1
:10020000E3FA1FBD10B510BD00F032F81146FFF73C
:10021000F5FF00F057FA00F050F803B4FFF7F2FFD3
:1002200003BC00F031FA0000094880470948004744
:10023000FEE7FEE7FEE7FEE7FEE7FEE7FEE7FEE796
:10024000FEE7FEE704480549054A064B70470000F3
:100250005505000889010008700000207006002084
:10026000700200207002002070477047704770478E
:10027000754600F029F8AE4605006946534620F061
:100280000700854618B020B5FFF7DCFFBDE8204029
:100290004FF000064FF000074FF000084FF0000B42
:1002A00021F00701AC46ACE8C009ACE8C009ACE8F5
:1002B000C009ACE8C0098D4670470446AFF3008022
:1002C0002046FFF7AAFF00000048704710000020FA
:1002D000F0B5002201274FF0030C0B6807FA02F576
:1002E0002B40AB422CD1066853000CFA03F4A64312
:1002F00006600E79D0F800E09E4046EA0E060660E1
:100300000E79012E01D0022E12D18668A643866096
:100310004E79D0F808E09E4046EA0E0686604668B0
:10032000AE43466045688E799640B6B23543456027
:10033000C568A543C560CC799C40C3681C43C460B4
:10034000521C102AC9D3F0BD4B07DB0E9A40C908D6
:1003500010B500EB8100016A0F249C40A1430162AB
:10036000016A1143016210BD30B50F23C2780178D4
:100370000125FAB1144A126801F1E02102F4E062A9
:10038000C2F5E062C2F30722C2F10404D34042780E
:10039000A24084781C401443220181F80024007894
:1003A00000F01F018D404009800000F1E020C0F8FE
:1003B000005130BD01F01F0085404809800000F168
:1003C000E020C0F8805130BD0CED00E00249084348
:1003D00002490860704700000000FA050CED00E0DB
:1003E000044A0029116801D0014300E081431160F3
:1003F0007047000030380240044A0029116801D0DB
:10040000014300E08143116070470000443802401E
:1004100070B5204B1968204C11F00C0104D0661007
:10042000042903D0082903D004601BE0066019E00A
:10043000184A121F1168C1F38055116801F03F017D
:1004400015B1B6FBF1F101E0B4FBF1F114681268EB
:10045000C4F388146143C2F30142521C5200B1FB41
:10046000F2F1016019680F2202EA11110B4A545C83
:100470000168E14041601C68072505EA9424145D89
:1004800021FA04F484601B6805EA5333D25CD1403E
:10049000C16070BD083802400024F4000000002054
:1004A0000CB50022274900920192086840F4803080
:1004B00008604FF4A043086800F4003001900098F1
:1004C000401C0090019810B900989842F3D1086838
:1004D000800334D5012001901A484030026842F070
:1004E000805202601848026842F440420260154897
:1004F000083002680260026842F40042026002684A
:1005000042F4A0520260031F104A1A600A6842F0C7
:1005100080720A600A689201FCD50D4940F20572AA
:100520000A60016821F003010160016841F00201E5
:1005300001600168C1F381010229FAD10CBD019269
:100540000CBD000000380240007000400854400715
:10055000003C0240124810B5016841F4700101608E
:100560001048016841F0010101600E4A0021083283
:10057000116002680C4B1A400260031D0B4A1A609E
:10058000026822F48022026006480C300160FFF706
:1005900087FF03494FF000608039086010BD0000FC
:1005A00088ED00E000380240FFFFF6FE1030002426
:1005B0000029818902D041F4005101E021F4005169
:1005C000818170470246002012880A4200D0012033
:1005D000704700007FB50446008A0D46C98820F4A4
:1005E000405001432182A08941F20C618843A988CF
:1005F0002A8911436A8902431143A181A08A20F408
:100600004071A8890843A0826846FFF701FF1A4895
:10061000844202D01948844201D1039800E0029834
:10062000A189090400EBC00101EB0010296801D584
:10063000490000E08900B0FBF1F06422B0FBF2F168
:1006400009010B096FF018056B4300EB8300A389C8
:100650001D044FF0320306D503EBC000B0FBF2F0EF
:1006600000F0070005E003EB0010B0FBF2F000F033
:100670000F00084320817FBD00100140001401409D
:10068000C1F3080181807047FEE730B5002345F2D1
:1006900007244FF0E02210E0116921F001011161FF
:1006A00054619361116941F0010111611169CD0338
:1006B00003D4C907FAD1481E30BD401EECD21361E5
:1006C000002030BD4FF4A060FFF780FE4FF4E13012
:1006D00000F016F84FF47A7403A000F061F8204699
:1006E000FFF7D3FFF8E7000068656C6C6F20746556
:1006F0006163686572207A656E67210D0A000000EB
:1007000070B50546012188B00846FFF769FE012152
:100710001020FFF771FE02218DF8141000248DF8CF
:1007200016404FF4C0608DF815101B4E04908DF8E4
:10073000174004A93046FFF7CBFD072209213046B8
:10074000FFF702FE07220A213046FFF7FDFD009564
:10075000ADF808400C20114DADF80440ADF80A008A
:10076000ADF80640ADF80C4069462846FFF732FF69
:1007700025208DF818008DF8194001218DF81A10E8
:100780008DF81B1006A8FFF7EFFD01212846FFF7A3
:100790000FFF08B070BD00000000024000100140D3
:1007A00070B50446074D09E02846FFF769FF641C51
:1007B00080212846FFF706FF0028F9D0217800297C
:1007C000F2D170BD001001404FF04070E1EE100A10
:1007D00070470000F407000800000020100000002F
:1007E000C401000804080008100000206006000092
:1007F000E0010008000000000102030401020304FC
:0408000006070809D6
:040000050800018965
:00000001FF
