:020000040800F2
:1000000090BB00204D310008591000085B1000081B
:100010005D1000085F10000861100008000000007B
:100020000000000000000000000000006310000855
:10003000651000080000000063C20008655A00084F
:10004000673100086731000867310008AD5E0008BD
:100050006731000867310008673100086731000820
:100060006731000867310008673100086731000810
:100070006731000867310008673100086731000800
:1000800067310008673100086731000867310008F0
:1000900067310008673100086731000867310008E0
:1000A00067310008673100086731000867310008D0
:1000B00067310008375F00086731000867310008C2
:1000C00067310008673100086731000867310008B0
:1000D000673100081D5C0008673100083B15000807
:1000E0006731000867310008673100086731000890
:1000F0006731000867310008673100086731000880
:10010000673100086731000867310008673100086F
:10011000673100086731000867310008673100085F
:10012000673100086731000867310008673100084F
:10013000673100086731000867310008673100083F
:10014000673100086731000867310008673100082F
:10015000673100086731000867310008673100081F
:10016000673100086731000867310008673100080F
:1001700067310008673100086731000867310008FF
:10018000673100086731000800F002F800F070F8ED
:100190000AA090E8000C82448344AAF10107DA45E2
:1001A00001D100F065F8AFF2090EBAE80F0013F0C4
:1001B000010F18BFFB1A43F00103184774DB00005E
:1001C00094DB00000A444FF0000C10F8013B13F0E0
:1001D000070408BF10F8014B1D1108BF10F8015BA0
:1001E000641E05D010F8016B641E01F8016BF9D193
:1001F00013F0080F1EBF10F8014BAD1C0C1B09D1EA
:100200006D1E58BF01F801CBFAD505E014F8016B5B
:1002100001F8016B6D1EF9D59142D6D370470000ED
:100220000023002400250026103A28BF78C1FBD8FF
:10023000520728BF30C148BF0B60704764290BF0DC
:100240005F8478290BF0988473290BF0C486002012
:1002500070471FB50CF05EF80BF0D0FF04000020D3
:1002600000210CF041F8401C60601FBD10B510BDAE
:100270000BF09FFF1146FFF7ECFF00F0E0FD0BF0E5
:10028000CFFF03B4FFF7F2FF03BC05F069FC0000E9
:100290004FF47A7402F00DFBFC4802F00EFD20468C
:1002A00005F033FCF6E70EB5F94D4FF4847802AE55
:1002B0004FF4FA790027CDE9007643460022CE219B
:1002C000F44807F022FD04468007F4D502A9F2485D
:1002D0000AF03EFB02A9F1480AF03AFB20073ED59E
:1002E000EC4800230322EEA18430009609F007F9C0
:1002F0000023E8481A4619462830009608F0F8FB13
:1003000001F082FE1023142200211B2001F0F4FFD3
:100310001023152200212D2001F0EEFF10231622BC
:1003200000213F2001F0E8FF102317220021512077
:1003300001F0E2FF01F047FED64802AA0021283072
:1003400008F02DFDD5F8B402C043C5F8B402484604
:1003500005F0DBFBD5F8B402C043C5F8B402600673
:1003600042D5D0A1C9480BF05DFD4FF000030096C7
:10037000F0B3C84800221146283008F0B9FB01F05C
:1003800043FE1023142200211B2001F0B5FF10238F
:10039000152200212D2001F0AFFF1023182200218B
:1003A0003F2001F0A9FF102319220021512001F064
:1003B000A3FF01F008FEB74802AA0021283008F088
:1003C000EEFCD5F8B402C043C5F8B402484605F0C7
:1003D0009CFBD5F8B402C043C5F8B402AB48C01FBB
:1003E00040F8077F87808771002202AB102100E070
:1003F0000BE0A84807F0DAFE02A9A7480AF03FF888
:1004000002A9A6480AF03BF855E7A2480422A7A192
:10041000843009F074F800239E481A4619462830A3
:10042000009608F065FB01F0EFFD10231422002177
:100430001B2001F061FF1023152200212D2001F067
:100440005BFF1023162200213F2001F055FF1023EF
:100450001722AAE70EB500254FF4847602ACCDE949
:1004600000543346002210218A4807F04EFCC00693
:10047000F5D5002387481A4619462830009408F01D
:1004800037FB01F0C1FD10231A220021122001F0D8
:1004900033FF10231B220021242001F02DFF102305
:1004A00012220021362001F027FF10231322002101
:1004B000482001F021FF1023152200215A2001F0CD
:1004C0001BFF01F080FD734802AA0021283008F0CC
:1004D00066FCC4E701F05AF8642005F016FBF9E762
:1004E00001F0C8F9322005F010FBF9E79EB002F0E8
:1004F0005EFD01466FA00BF079FA0024A0014022B6
:1005000006A902F072FD6DA106A80BF011FC10B156
:10051000641C642CF2D36A4FDFF8A8814FF0000905
:100520001BAE5C48CDE9009600221CAB114684301E
:1005300008F062FE0500F4D0BDF870000028F0D08D
:10054000642C67D26049012004F01FFA5F49012042
:1005500004F0A3F95EA128460BF064FC28B95DA362
:100560005FA2142116A80BF061FA4DA128460BF0EA
:1005700059FC28B95BA35AA2142116A80BF056FA0D
:100580004AA128460BF04EFC28B959A354A21421C5
:1005900016A80BF04BFA59A128460BF043FC28B9DA
:1005A00058A34FA2142116A80BF040FA47480DF1AA
:1005B000080C16AB8278417800788CE80F0042482E
:1005C00082784178CDE90012C37851A2402106A873
:1005D0000BF02CFA05F0E0FD3978491C397005F074
:1005E000DFFDA001402206A902F078FD05F0D4FD50
:1005F0003978491E11F0FF01397007D1B8F80010A1
:1006000021B105F0CDFD07F048FA01E005F0C8FD85
:10061000641C86E71BA920480AF09AF91BA91F4809
:100620000AF096F900231B481A461946283000960E
:1006300008F05EFA01F0E8FC0C233FA232211C20F6
:1006400001F006FE01F0BFFC12481BAA0021283071
:1006500008F0A5FB05F0A0FD3978491C397005F0BC
:100660009FFD002002F00FFD05F096FD3978491E30
:1006700011F0FF01397065D1B8F8001021B105F013
:100680008FFD07F00AFA5FE05CE000000700002041
:1006900000004242A438002084220020381A0020A2
:1006A000626C65003132333435360000726669643D
:1006B00000000000307825580D0A00000A000000F4
:1006C0002C170020F0160020B0160020AC160020D9
:1006D0006B657900C3DCC2EBBDE2CBF80000000023
:1006E00025730000C0B6D1C0BDE2CBF80000000009
:1006F00052464944BDE2CBF8000000006173363039
:1007000038000000D6B8CEC6BDE2CBF8000000002D
:100710003230253032582D253032582D2530325880
:1007200020253032583A253032583A253032582078
:100730002025730D0A000000646174612066756CE9
:100740006C21000005F02CFD0024642005F0DDF98B
:100750001BAB00221021FD4807F028FD28460BF0B6
:10076000F9FA82B2F948002329468430009608F04D
:10077000C6FE1BA9F64809F082FE1BA9F54809F040
:100780007EFECEE68AB0002708A8089701F054FF45
:10079000F1A1F248089A0BF035F9F14D07AE14219A
:1007A00002A80BF018FBE948CDE90076002209AB5E
:1007B0001146543008F020FD0400F0D0BDF82400AC
:1007C0000028ECD02146E7A00BF010F9E7A1204665
:1007D0000BF028FB0028E2D107A9DD480AF0B8F8A1
:1007E00007A9DC480AF0B4F80023D8481A4619468D
:1007F0002830009608F07CF901F006FC10230F2247
:100800000021122001F078FD10231A460021242037
:1008100001F072FD102311220021362001F06CFD41
:10082000102312220021482001F066FD102313221C
:1008300000215A2001F060FD01F0C5FBC34807AA62
:100840000021283008F0ABFA02A801F0B7F80446FE
:1008500002A9C7A00BF0CAF8C049C8A00BF0C6F89F
:10086000012C3ED1BD4902A801F0EDFE01284FF058
:100870000003009644D0B54800221146283008F005
:1008800037F901F0C1FB1023142200211B2001F0D5
:1008900033FD1023152200212D2001F02DFD102302
:1008A000182200213F2001F027FD102319220021EA
:1008B000512001F021FD01F086FBA44807AA002188
:1008C000283008F06CFAD5F8B402C043C5F8B40279
:1008D0004FF47A7005F019F9D5F8B402C043C5F8A1
:1008E000B40207AB00221021984807F05FFC07A96B
:1008F000974809F0C4FD07A9964809F0C0FD4EE7E6
:100900000322AFF234219148843008F0F8FD00232F
:100910008E481A4619462830009608F0E9F801F08A
:1009200073FB1023142200211B2001F0E5FC10238F
:10093000152200212D2001F0DFFC102316220021BA
:100940003F2001F0D9FC102317220021512001F093
:10095000D3FC01F038FB7D4807AA0021283008F0BD
:100960001EFAD5F8B402C043C5F8B4024FF4FA70C9
:10097000B0E78EB000254FF484760DACCDE900547D
:10098000334600222021714807F0BFF98006F5D5D3
:1009900000236E481A4619462830009408F0A8F83B
:1009A0007A49012003F0F1FF7949012003F075FF36
:1009B00077480DF1040C8778437802787348817882
:1009C0008CE88E0041780091C37872A21E2105A8A0
:1009D0000BF02CF80C2305AA3521082001F038FC77
:1009E00001F0F1FA59480DAA0021283008F0D7F992
:1009F000C4E7704770478EB000200B900DAC41F2F9
:100A000070750C900BA800F061FC9DF82F009DF80C
:100A10002D209DF82C108DE807009DF82E3065A242
:100A20001E2103A80BF002F8002348481A46194675
:100A30002830009408F05CF80C2303AA1C21122033
:100A400001F006FC01F0BFFA40480DAA0021283051
:100A500008F0A5F9284605F058F8D3E72DE9F0434A
:100A60008BB0012000F01AFC00F0F1FB05F021F939
:100A700000F0C4FC05F0ECF8002004F025FAA0F525
:100A80001541273902D005F04BF901E005F0BAF91C
:100A900001F009FD02F018FA00F074FE4A4801F076
:100AA0009DFD00F0F8FC00F0E2FC09AB002247A13C
:100AB000264807F022F8254809AB102246A15430F9
:100AC00008F07FFA214809AB102246A1843008F0D3
:100AD00078FA1E4809AA47A1283007F0C8FE00246A
:100AE0001C4809AD059480260C270694C430CDE936
:100AF00007454FF007082346AFF20512CDF80080F6
:100B0000CDE90107CDE903643EA1C43809F0DFF85F
:100B1000BDF8240018B13FA00AF068FFFEE7059475
:100B200044480694CDE907450023AFF23712CDF8CB
:100B30000080CDE90107CDE903643FA1C43809F085
:100B4000C6F8BDF8240000B17EE081E0A4380020A2
:100B500084220020381A00202564000000000020B4
:100B60000000424225730D0A000000004100000011
:100B7000707764203D2025730D0A0000675F707751
:100B800064203D2025730D0A00000000B0160020EF
:100B9000AC1600203230253032582D253032582DF9
:100BA0002530325820253032583A253032583A25EF
:100BB00030325800543A2025642E25642020483ACB
:100BC0002025642E2564000040E20100675F666C0A
:100BD00061675F6772700000675F71756575655F5B
:100BE0006B657900675F71756575655F666C6173CC
:100BF00068000000675F6D757465785F6F6C656491
:100C0000000000006170705F7461736B5F646874F2
:100C1000313100006170705F7461736B5F64687480
:100C2000313120637265617465206661696C0D0AFB
:100C300000000000C01D00206170705F7461736B64
:100C40005F6C65640000000097A00AF0CFFEFEE72D
:100C500005949C480694CDE907450023AFF26D2228
:100C6000CDF80080CDE90107CDE9036496A1C43831
:100C700009F02DF8BDF8240018B197A00AF0B6FECF
:100C8000FEE705949B480694CDE907450023AFF2A3
:100C90001D32CDF80080CDE90107CDE9036496A1AE
:100CA000C43809F014F8BDF8240018B196A00AF071
:100CB0009DFEFEE702970594B9469A490694CDE950
:100CC000074547460023AFF24352CDE900819548DE
:100CD000CDE9036494A1C43808F0F9FFBDF82400FD
:100CE00018B195A00AF082FEFEE705949A49CDF866
:100CF00008900694CDE90745B8460023AFF61302E5
:100D0000CDE900719448CDE9036494A1C43808F09A
:100D1000DEFFBDF8240018B195A00AF067FEFEE7DB
:100D200005949B4806944F46CDE907450023AFF64E
:100D30004F02CDF80080CDE90109CDE9036495A10A
:100D4000C43808F0C4FFBDF8240018B196A00AF01A
:100D50004DFEFEE70594B1469B490694CDE9074553
:100D600046460023AFF6930201A8CDF80080049414
:100D700080E88202944895A1C43808F0A8FFBDF825
:100D8000240018B188A00AF031FEFEE709AB00226A
:100D90001021924807F00AFA059491490694CDE98A
:100DA00007450023AFF653120DF104080096049492
:100DB00088E882028A488BA1C43808F088FFBDF811
:100DC000240018B178A00AF011FEFEE7A8460594A9
:100DD00002970694CDE9074886484D460023AFF6B2
:100DE0003932CDE90060CDE9039483A1C43808F01D
:100DF0006EFFBDF8240018B16BA00AF0F7FDFEE706
:100E0000059402970694CDE907487F480023AFF682
:100E10007F32CDE90060CDE903547CA1C43808F0ED
:100E200056FFBDF8240018B15FA00AF0DFFDFEE711
:100E300009A9002009F024F80BB0BDE8F0838AB0BE
:100E400004F01EFE4FF4A06002F0A0F94FF416501B
:100E500004F08EFE00F0C6F909A806F0B4F90020EF
:100E600009A905900690CDE907010C228021029284
:100E7000CDE90310694B0520CDE900030023AFF253
:100E80002342664866A1C43808F021FFBDF824005B
:100E900018B167A00AF0AAFDFEE709A806F0EEFA6D
:100EA0006AA00AF0A3FDFEE76170705F7461736B66
:100EB0005F6C656420637265617465206661696C4E
:100EC0000D0A0000842000206170705F7461736BF4
:100ED0005F626565700000006170705F7461736BC4
:100EE0005F62656570206372656174652066616923
:100EF0006C0D0A00482300206170705F7461736B91
:100F00005F727463000000006170705F7461736BE6
:100F10005F72746320637265617465206661696CD9
:100F20000D0A00000C2600206170705F7461736B05
:100F30005F666C61736800006170705F7461736BF1
:100F40005F666C61736820637265617465206661B9
:100F5000696C0D0A00000000D02800206170705FED
:100F60007461736B5F773235713132380000000085
:100F70006170705F7461736B5F77323571313238D5
:100F800020637265617465206661696C0D0A0000FA
:100F9000942B00206170705F7461736B5F6B657977
:100FA000626F6172640000006170705F7461736BE6
:100FB0005F6B6579626F61726420637265617465ED
:100FC000206661696C0D0A00582E00206170705F08
:100FD0007461736B5F626C6500000000A4380020D0
:100FE0001C3100206170705F7461736B5F6F6C65A2
:100FF00064000000E03300206170705F7461736B07
:101000005F6C6F636B6F6E00A43600206170705F61
:101010007461736B5F7266696400000038180020A9
:101020006170705F7461736B5F696E69740000005A
:101030006170705F7461736B5F696E697420637255
:1010400065617465206661696C0D0A002E2E2E2E76
:101050002E2E2E0D0A0000007047FEE7FEE7FEE789
:10106000FEE77047704700000CB50022544900921B
:101070000192086840F4803008604FF4A04308688B
:1010800000F4003001900098401C0090019810B9C5
:1010900000989842F3D10868800334D5012001906C
:1010A00047484030026842F080520260454802687A
:1010B00042F440420260424808300268026002681E
:1010C00042F400420260026842F4A0520260031F30
:1010D0003D4A1A600A6842F080720A600A6892010A
:1010E000FCD53A4940F205720A60016821F003011B
:1010F0000160016841F0020101600168C1F38101F2
:101100000229FAD10CBD01920CBD314810B501681D
:1011100041F4700101602A48016841F00101016059
:10112000274A00210832116002682A4B1A400260E7
:10113000031D294A1A60026822F4802202602048B6
:101140000C300160FFF790FF21494FF000608039BB
:10115000086010BD70B51A4D083528681F4B20492E
:1011600010F00C0004D05E10042803D0082803D02F
:101170000B601BE00E6019E0114A121D1068C0F3ED
:101180008054106800F03F0014B1B6FBF0F001E0AD
:10119000B3FBF0F013681268C3F388135843C2F32B
:1011A0000142521C5200B0FBF2F0086028680C4A61
:1011B000C0F30310121D105C0A68C2400A6070BDC3
:1011C000003802400070004008544007003C0240D4
:1011D00088ED00E0FFFFF6FE103000240024F4004C
:1011E000100000202DE9FC470121302002F095FA83
:1011F00001248DF8044000268DF806600327DFF8EF
:1012000090904FF4C0658DF8057000958DF80740FB
:101210006946484602F07EF88DF804408DF8066075
:101220008DF805708DF807401A4C4FF4C048CDF882
:1012300000806946204602F06DF82946484602F0D3
:10124000CEF84146204602F0CAF8BDE8FC871CB53E
:101250000121202002F061FA4FF40070009002207A
:101260008DF8040000218DF806108DF80500084C5B
:101270008DF807106946204602F04CF80922114605
:10128000204602F0BBF804490120C1F8A4021CBDAD
:101290000014024000100240008042421CB5044687
:1012A0000121402002F039FA8DF8044000208DF829
:1012B00006008DF807004FF40071022000918DF8B0
:1012C000050069464B4802F025F81CBD2DE9F047A2
:1012D000804600240120FFF7E1FF474D4FF0010A4F
:1012E0005646C5F8A4A20020C5F8A402142005F5AE
:1012F000297504F00AFC2E601E20A5F5297504F05E
:10130000E5FB0020FFF7CAFF4FF47A6609E00120F1
:10131000641C04F0DBFBB44203D94FF0FF30BDE89E
:10132000F087D5F824020028F1D1002408E001203C
:10133000641C04F0CBFB642C02D96FF00100EEE7D3
:10134000D5F824020028F2D0002408E00120641C13
:1013500004F0BCFB642C02D96FF00200DFE7D5F883
:1013600024020028F2D10027A946002607250024E0
:1013700008E00120641C04F0A9FB642C02D96FF082
:101380000300CCE7D9F824020028F2D0282004F08A
:101390009DFBD9F8241289B10AFA05F13143CEB286
:1013A00008E00120641C04F091FB642C02D96FF06A
:1013B0000400B4E7D9F824020028F2D16D1ED6D576
:1013C00008F807607F1C052FCFDB98F8001098F80D
:1013D000010098F80220014498F8030010440844E2
:1013E00098F80410C0B2814202D06FF0050096E771
:1013F000012094E700180240000043421CB501217F
:10140000202002F08AF94FF48070022100908DF8BC
:10141000041000208DF806008DF80510064C8DF89C
:1014200007006946204601F075FF09220821204681
:1014300001F0E4FF1CBD00000014024070B5AC4C8C
:1014400005468021204602F0ACFB0128F9D129464F
:101450002046BDE8704002F013BB10B5044602E020
:10146000641CFFF7EBFF20780028F9D110BD10B500
:101470004FF4FA74204604F048FB9EA0FFF7EDFFFE
:10148000204604F042FBA0A0FFF7E7FF2046BDE89E
:10149000104004F03ABB70B588B00121022002F080
:1014A0003CF90121880402F056F902258DF8145008
:1014B00000248DF816404FF44060954E8DF815507D
:1014C00004908DF8174004A9304601F023FF07224D
:1014D0000A21304601F092FF07220B21304601F02D
:1014E0008DFF4FF41650ADF804400090ADF8064063
:1014F000ADF80840ADF80C400C207D4CADF80A006A
:101500006946204602F025FA27208DF818008DF84C
:1015100019508DF81A5001208DF81B0006A801F013
:101520003AFE012240F22551204602F022FB012121
:10153000204602F07FFA08B070BD70B505F0C5FE18
:101540006B4C40F225552946204602F02AFB012823
:1015500018D12946204602F04DFB204602F094FAAD
:101560006C4A11686C4B5C18491C11602070106843
:10157000184410F8010C232802D01068402801D329
:1015800001205060BDE8704005F0AABE2DE9F04191
:10159000604D96B06868002879D060A15E480AF076
:1015A000C7FB0026A0B15FA15B480AF0BBFB5DA1B1
:1015B00000200AF0B7FB01465B480AF033FC002824
:1015C00005D111AB00220A21584806F0EFFD85E055
:1015D00057A151480AF0ACFB00B352A14E480AF0A3
:1015E000A1FB50A100200AF09DFB074600240FE05C
:1015F000402101A80AF0EFFBA001402201A901F05F
:10160000F4FC01A8FFF729FF642004F07EFA641CB3
:1016100038460AF079FBA042EAD85FE048A13E488C
:101620000AF086FB002855D03EA13B480AF07AFB21
:101630003CA100200AF076FB0746129613961496FA
:1016400000240DF14808159604E0385D303808F89C
:101650000400641C38460AF07DFBA042F5D811A9AD
:101660003A4809F075F911A9394809F071F911A939
:10167000384809F06DF911A8002300901A46194660
:10168000354807F035FA00F0BFFC0C2300E02BE0F2
:1016900032A219211C2000F0DBFD00F094FC11AAFD
:1016A00000212D4807F07BFB12A801F06FFB11AB66
:1016B000002210211D4806F079FD11A9234808F0E9
:1016C000DEFE11A9224808F0DAFE11A9214808F02F
:1016D000D6FE03E0104925A00AF088F96E6040218B
:1016E0000D480AF056FB2E6016B0BDE8F0810000F0
:1016F0000048004041542B4E414D453D726F786C7F
:10170000615F626C6500000041542B52580000007C
:101710000004024024000020583900206C6F636BE5
:101720005F6F6E002D23000000000020A438002011
:101730007365617263685F7265636F726400000055
:10174000636172645F73657400000000842200208E
:10175000381A0020E0350020CC380020706C73204F
:10176000736574206361726421000000756E6B6E96
:101770006F7720636F6D6D616E64203D2025730A65
:10178000000000002DE9FC410121572001F0C5FFB8
:101790000124FE4E80258DF8044000958DF8074009
:1017A0006946304601F0B6FD1020F94F00906946B9
:1017B000384601F0AFFDE00300906946F54801F0BE
:1017C000A9FD0095F44D6946284601F0A3FD60028D
:1017D000009000208DF804008DF8060003208DF89D
:1017E00005008DF807406946284601F093FD402525
:1017F00069463046009501F08DFD6946E748009541
:1018000001F088FD200200906946384601F082FD13
:10181000E348C0F89C42E348C0F89042E248C0F870
:10182000BC42E248C0F89C42BDE8FC817CB506465B
:1018300014460D46142004F068F92946304601F09C
:10184000BAFDA0B920460AF085FA82B201A800903C
:1018500000232146D64807F052FE02E0C82004F0DB
:1018600035F92946304601F0A6FD0028F6D00020C3
:1018700020607CBD2DE9F05FC94E4FF00008C6F82E
:101880009C82C84F0124C7F89042DFF81C93C9F826
:10189000BC42C64DC5F89C42D5F8240220B9C5A269
:1018A0006102BD48FFF7C2FFD6F8180220B9C2A2F4
:1018B0004021B648FFF7BAFFDFF800A3DAF81802B4
:1018C00020B9BFA24021B548FFF7B0FFD7F82002EA
:1018D00058B1C6F89C42C7F89082C9F8BC42C5F816
:1018E0009C42D5F8240238B10CE0B6A24FF48071C6
:1018F000A748FFF79BFFECE7B3A24FF40071A6489F
:10190000FFF794FFD6F8180220B9B0A240219F48F3
:10191000FFF78CFFDAF8180220B9ADA240219F48EA
:10192000FFF784FFD7F8200268B1C6F89C42BB4697
:10193000C7F890424746C9F8BC82C5F89C42D5F822
:10194000240238B10CE0A3A24FF480719048FFF755
:101950006DFFEAE7A0A24FF400718F48FFF766FF22
:10196000D6F8180220B99DA240218848FFF75EFFF3
:10197000DAF8180220B99AA240218848FFF756FFEA
:10198000DBF8200288B1C6F89C42CBF89042C9F837
:10199000BC42C5F89C72D5F8240201280CD1BDE8E0
:1019A000F05F41028FA27C4840E78FA24FF4807124
:1019B0007748FFF73BFFE6E7BDE8F09F2DE9FF41E1
:1019C00005460F244FF0000802AECDE90086002244
:1019D00003AB1146764807F00FFC07007BD0BDF83B
:1019E0000C000028FAD080A138460AF01BFA002823
:1019F00072D070A138460AF015FA30BB3120287039
:101A000000231A4619467948009607F071F8072C0A
:101A100009D9C4F10F00C0EB00100F300C23C0B285
:101A200064A2192108E0C4F10700C0EB00100F30D8
:101A3000C0B20C235FA2282100F00AFC00F0C3FA18
:101A400002AA0021694807F0AAF95BA138460AF00A
:101A5000E9F930BB3420287000231A461946634840
:101A6000009607F045F8072C09D9C4F10F00C0EB28
:101A700000100F300C23C0B24FA2192108E0C4F1AE
:101A80000700C0EB00100F30C0B20C234AA228217F
:101A900000F0DEFB00F097FA02AA0021534807F09D
:101AA0007EF947A138460AF0BDF940BB37202870BF
:101AB00000231A4619464D48009607F019F8072CDE
:101AC0000BD9C4F10F00C0EB00100F300C23C0B2D3
:101AD0003BA219210AE093E195E1C4F10700C0EBB4
:101AE00000100F30C0B20C2335A2282100F0B0FB4B
:101AF00000F069FA02AA00213C4807F050F932A12F
:101B000038460AF08FF930BB3220287000231A467D
:101B100019463648009606F0EBFF072C09D9C4F1A8
:101B20000F00C0EB00100F300C23C0B226A2192109
:101B300008E0C4F10700C0EB00100F30C0B20C2366
:101B400021A2282100F084FB00F03DFA02AA002126
:101B5000264807F024F91DA138460AF063F9A0B918
:101B60003520287000231A4619462048009606F0B2
:101B7000BFFF072C3CD9C4F10F00C0EB00100F30A1
:101B80000C23C0B211A219213CE044E00004024041
:101B9000000002400018024000080240001002400D
:101BA00000804042000040420000434200004142A9
:101BB000F8380020310000003400000000004242EC
:101BC000370000002A00000032000000350000004D
:101BD0003800000030000000330000003600000034
:101BE000390000004100000023000000CC38002034
:101BF000C4F10700C0EB00100F30C0B20C23AFF2ED
:101C00003402282100F024FB00F0DDF902AA0021B3
:101C10007F4807F0C4F8AFF2480138460AF002F9ED
:101C200040BB3820287000231A4619467848009691
:101C300006F05EFF072C0AD9C4F10F00C0EB0010BC
:101C40000F30C0B20C23AFF27802192109E0C4F1C1
:101C50000700C0EB00100F30C0B20C23AFF29002AF
:101C6000282100F0F5FA00F0AEF902AA0021684838
:101C700007F095F8AFF2A40138460AF0D3F840BB5C
:101C80003020287000231A4619466148009606F055
:101C90002FFF072C0AD9C4F10F00C0EB00100F3042
:101CA000C0B20C23AFF2D402192109E0C4F107003D
:101CB000C0EB00100F30C0B20C23AFF2E8022821B5
:101CC00000F0C6FA00F07FF902AA0021504807F0A0
:101CD00066F8AFF2FC0138460AF0A4F840BB3320A6
:101CE000287000231A4619464948009606F000FF5E
:101CF000072C0AD9C4F10F00C0EB00100F30C0B29E
:101D00000C23AFF22C12192109E0C4F10700C0EB3B
:101D100000100F30C0B20C23AFF24412282100F0A3
:101D200097FA00F050F902AA0021394807F037F875
:101D3000AFF2581138460AF075F840BB36202870CB
:101D400000231A4619463248009606F0D1FE072CA9
:101D50000AD9C4F10F00C0EB00100F30C0B20C2341
:101D6000AFF28812192109E0C4F10700C0EB00109E
:101D70000F30C0B20C23AFF29C12282100F068FA99
:101D800000F021F902AA0021214807F008F8AFF27B
:101D9000B01138460AF046F840BB392028700023BD
:101DA0001A4619461A48009606F0A2FE072C0AD9D0
:101DB000C4F10F00C0EB00100F30C0B20C23AFF223
:101DC000E012192109E0C4F10700C0EB00100F3048
:101DD000C0B20C23AFF2F812282100F039FA00F05B
:101DE000F2F802AA00210A4806F0D9FFAFF22C212E
:101DF00038460AF017F8002806D0641EE4B26D1CBD
:101E0000002C7FF4E2AD012004B0BDE8F0810000B9
:101E1000CC38002070B5F94C4FF48071204601F0A9
:101E2000DEFA012003F052FE65152946204601F036
:101E3000D8FA012003F04AFE2946204601F0CFFAE5
:101E4000BDE87040012003F041BE70B5EB4D4FF48A
:101E500080742146284601F0C2FA012003F036FEC4
:101E60002146284601F0BDFABDE87040012003F08C
:101E70002DBE2DE9F041E14E054600244FF40078D7
:101E80004FF480773946304601F0ABFA012003F079
:101E90001DFE28064146304602D501F0A0FA01E0B9
:101EA00001F09FFA012003F011FE3946304601F09F
:101EB00096FA012003F00AFE3946304601F091FA05
:101EC000012003F003FE6806641C050EE4B2082C32
:101ED000D8D3BDE8F08170B5C84D4FF400742146E9
:101EE000284601F07CFA012003F0F0FD661031462F
:101EF000284601F074FA012003F0E8FD2146284647
:101F000001F06FFA012003F0E1FD3146284601F0AF
:101F100068FABDE87040012003F0D8BD70B50C46EA
:101F20000546FFF7D8FF7820FFF7A3FFFFF78DFFE7
:101F30000CB1402000E00020FFF79BFFFFF785FF7A
:101F40002846FFF796FFFFF780FFBDE8704061E786
:101F500020B1012805D10021A720DFE70021A6201C
:101F6000FBE7704710B550B101280FD10021C02008
:101F7000FFF7D4FF0021A020BDE81040CEE70021EC
:101F8000C820FFF7CBFF0021A120F5E710BD10B559
:101F900000218D20FFF7C2FF00211420FFF7BEFFB4
:101FA0000021BDE81040AF20B8E710B500218D201A
:101FB000FFF7B4FF00211020FFF7B0FF0021BDE8BC
:101FC0001040AF20AAE770B58D4E002505F1B00096
:101FD000C0B20021FFF7A2FF00210846FFF79EFFD5
:101FE00000211020FFF79AFF002406EBC400012116
:101FF000405DFFF793FF641CE4B2802CF5D36D1CA9
:10200000EDB2082DE2D370BD30B400217C4B0A46FE
:10201000002003EBC004401CC0B262548028F8D3F7
:10202000491CC9B20829F3D330BCCCE7CA0801F077
:10203000070301219940724B03EBC000835C0B4303
:1020400083547047CA0801F0070101238B406C4993
:1020500001EBC000815C63EA0101C9438154704710
:102060002DE9F0410D460646802A14D8402B12D89F
:10207000964210D89D420ED8A3EB050C96420BD188
:10208000002406E02819C1B23046FFF7CFFF641CD8
:10209000E4B2A445F6DC1CE7971B9D420BD100245B
:1020A00006E03019C0B22946FFF7C0FF641CE4B255
:1020B000A742F6DC0DE70CF0FF0000EB80004000CB
:1020C000F9B2B0FBF1F000F0FF0C00244FF00A0869
:1020D0000BE014FB0CF1B1FBF8F02844C1B230194D
:1020E000C0B2FFF7A3FF641CE4B2A742F1DCF0E644
:1020F0002DE9F04F0E46074694460025144612FB84
:1021000004FB4AE0A6EB040807EB050A08F0FF0110
:102110000AF0FF00FFF78AFFA7EB050908F0FF01AF
:1021200009F0FF00FFF782FF06EB040808F0FF014B
:1021300009F0FF00FFF77AFF08F0FF010AF0FF0047
:10214000FFF774FF06EB050A07EB04090AF0FF012D
:1021500009F0FF00FFF76AFFA6EB050808F0FF0192
:1021600009F0FF00FFF762FF08F0FF01A7EB04088A
:1021700008F0FF00FFF75AFF0AF0FF0108F0FF0028
:10218000FFF754FF6D1C05FB05F004FB04000CFB7E
:102190001C00002801DD641E6D1E60006043584570
:1021A000B0DABDE8F08F2DE9F04F82461E460F46AB
:1021B0008946580700D0012000EBD600710810FBBB
:1021C00001F0203A00F0FF0B02F0FF0800253CE090
:1021D0000C2E19D0102E1BD0182EE2D1094908EB75
:1021E000C80001EB80004FF0000C445D394620062A
:1021F000504611D5FFF71AFF10E00000000402401E
:102200009839002082CD000808EB4800EC49E8E747
:10221000EC4901EB0810E6E7FFF714FF60067F1CAE
:10222000040EFFB2A7EB0900B04205D10AF101008C
:102230004F4600F0FF0A06E00CF1010C0CF0FF0C19
:10224000BCF1080FD2D36D1CEDB25D45C0D3A8E739
:102250002DE9F0411F4615460E460446C3F180089D
:102260000DE03B4631462046FFF79DFF04EB57004B
:10227000C4B2A04502DA0024B61CF6B26D1C2A785E
:10228000A2F120005E28ECD923E60346012000E0FD
:102290005843491EC9B2FBD270472DE9F0471E468C
:1022A000DDF8209090468A46074600244FEA5905FB
:1022B00018E0301B401EC1B20A20FFF7E6FFB8FB52
:1022C000F0F00A21B0FBF1F201FB120070B13030E6
:1022D000C2B205FB0470C0B24B465146FFF763FF24
:1022E000641CE4B2B442E4D3BDE8F08705FB04709B
:1022F000C0B24B463022F0E72DE9FF4F82B0804656
:10230000D808CDE900081E4689464FF0000B8A46E2
:102310004EE0049810FB06F10BEBD10000F0FF0C2F
:102320000BF1010000F0FF0B00253EE0102E11D054
:10233000182E13D0202E17D0402E3DD1A24800EBEE
:102340004C200027445D4946E007404611D0FFF786
:102350006DFE10E09D4800EB0C10F2E79C490CEB81
:10236000CC0001EBC000ECE79948D83000EBCC1072
:10237000E7E7FFF767FE7F1C640809F10100FFB281
:1023800000F0FF09082FDED308F10100019900F0E9
:10239000FF08A8EB0100B04204D10AF1080088460A
:1023A00000F0FF0A6D1CD146EDB2B542BED30098D5
:1023B000411EC9B20091ACD206B0F2E60025854EAE
:1023C000884681462C4610232A4618218020FFF794
:1023D00093FF6D1CEDB24D4519D1002513E000218E
:1023E000002006EBC1021718135C401CC0B207F8AE
:1023F000083C0828F7D3491CC9B29029F0D3FFF74D
:10240000E2FD6D1CEDB2B5EB081FE8D30025641C9E
:10241000E4B2102C00D100240021002006EBC10200
:102420001718135C401CC0B207F8083C0828F7D303
:10243000491CC9B29029F0D3FFF7C5FD002CCAD1C1
:10244000C1E710B50446B031C8B20021FFF766FD00
:10245000102040EA14100021FFF760FD04F00F0087
:10246000BDE81040002159E52DE9F047994617468F
:102470000E4682460025DDF8208011E031465046A8
:10248000FFF7DFFF544607E018F805000121FFF7CA
:1024900045FD641CE4B26D1CBC42F5D3761CF6B25B
:1024A0004E45EBD320E71CB50121022001F035F9A0
:1024B0004FF44070009001208DF8040000218DF849
:1024C000061003218DF805108DF807006946424873
:1024D00000F020FFC82003F018FB0021AE20FFF71A
:1024E0001DFD00210846FFF719FD00211020FFF710
:1024F00015FD00214020FFF711FD00218120FFF78D
:102500000DFD0021CF20FFF709FD0021A120FFF7DD
:1025100005FD0021C820FFF701FD0021A620FFF7DF
:10252000FDFC0021A820FFF7F9FC00213F20FFF768
:10253000F5FC0021D320FFF7F1FC00210846FFF74E
:10254000EDFC0021D520FFF7E9FC00218020FFF7FA
:10255000E5FC0021D920FFF7E1FC0021F120FFF785
:10256000DDFC0021DA20FFF7D9FC00211220FFF763
:10257000D5FC0021DB20FFF7D1FC00214020FFF734
:10258000CDFC00212020FFF7C9FC00210220FFF72D
:10259000C5FC00218D20FFF7C1FC00211420FFF7AE
:1025A000BDFC0021A420FFF7B9FC0021A620FFF705
:1025B000B5FC0021AF20FFF7B1FCFFF725FD1CBDE6
:1025C0001EC3000892C70008840600202C000020CB
:1025D000AC03002098390020000402403EB50446B8
:1025E000002002A9CDE9000102464FF484730121C5
:1025F000234805F08AFBC0071DD022A009F0F6F998
:1026000002F056FEF32003F090F80221202002F0A1
:102610008EFE092803D01FA009F0E8F9FEE7214645
:10262000234802F05CFF092803D022A009F0DEF95C
:10263000FEE702F049FE3EBD1D490A68521C01D06A
:102640000968016070472DE9FC410F4604460026E9
:102650006D460DE0009600200196215C2954401C37
:102660000628FADB6946384609F0DCFB28B1641C11
:1026700060790028EED1BDE8FC810120FBE7000075
:10268000A43800206368616E67655F7077640D0A27
:1026900000000000464C4153485F4572617365532A
:1026A0006563746F72206661696C6564210D0A0050
:1026B00000000108464C4153485F50726F677261D9
:1026C0006D576F7264206661696C6564210D0A0044
:1026D00070B588B00121422001F01FF801210803E4
:1026E00001F043F8FF4E05220321304600F086FE3C
:1026F00005220421304600F081FE052211463046B5
:1027000000F07CFE022538208DF81850002405903A
:102710008DF81A408DF8195005A9304600F0FAFDE1
:1027200001264FF4C0708DF8186005908DF81A409E
:102730008DF8195005A9EC4800F0ECFDEB48C0F805
:102740009C62EB4D0021284603F0C0F8ADF8004034
:102750004FF48270ADF80200ADF808406815ADF88E
:102760000A002820ADF80C000720ADF80440ADF8B1
:102770001000ADF80640ADF80E406946284603F05B
:1027800011F80121284603F0A1F808B070BD70B51A
:10279000D74C05460221204603F02BF90028F9D03A
:1027A0002946204603F0F8F80121204603F021F9DC
:1027B0000028F9D02046BDE8704003F0EBB810B512
:1027C000CB4C0221204603F014F90028F9D0002157
:1027D000204603F0E1F80121204603F00AF9002821
:1027E000F9D0204603F0D6F8C0B210BD70B5BF4C8A
:1027F0000D460021C4F89C127E2101EA400004F538
:102800002774FFF7C4FF2846FFF7C1FF01202060AF
:1028100070BD10B5B54C0021C4F89C127E2101EAB0
:10282000400040F0800004F52774FFF7B0FFFFF789
:10283000C6FF0121216010BD70B50C460546FFF7AB
:10284000E8FF40EA04012846BDE87040CEE770B5D5
:102850000C460546FFF7DDFF20EA04012846BDE8E7
:102860007040C3E710B51420FFF7D3FF800704D1F1
:102870000321BDE810401420DEE710BD0321142021
:10288000E5E770B5994C0125C4F8A052284604F537
:10289000287403F01BF900202060012003F016F9D2
:1028A0002560012003F012F9BDE870400F210120DE
:1028B0009CE710B5FFF70CFFFFF7E3FF8D212A20FF
:1028C000FFF794FF3E212B20FFF790FF32212D20B0
:1028D000FFF78CFF00212C20FFF788FF40211520F7
:1028E000FFF784FF3D211120FFF780FF0021012029
:1028F000FFF77CFFBDE81040B4E72DE9FF5F00253E
:10290000DDF838B017468A4680464FF002092E4659
:102910000C2805D0B8F10E0F04D11225102601E0C5
:102920007725302645F080010220FFF75FFF8021E8
:102930000420FFF78CFF80210A20FFF77DFF002194
:102940000120FFF753FF002406E01AF804100920C5
:10295000FFF74CFF641CA4B2BC42F6D341460120F1
:10296000FFF744FFB8F10C0F03D180210D20FFF7D2
:1029700063FF42F210740420FFF74BFF641E24042F
:102980000746240C03D0F80701D13742F3D0802149
:102990000D20FFF75CFF8CB30620FFF73AFF10F025
:1029A0001B0F01D0022028E0B8F10C0F24D10A201F
:1029B000FFF72FFF05460C20FFF72BFF10F0070055
:1029C0004FEAC50104D008390844ABF8000001E023
:1029D000ABF8001025B1122D00D91225002409E012
:1029E0000125FBE70920FFF714FF01460398015575
:1029F000641CA4B2AC42F5D30020814680210C2097
:102A0000FFF7F4FE00210120FFF7F0FE04B0484676
:102A1000BDE8F09F7CB50C46054607210D20FFF769
:102A2000E5FE257001A823460090012219460C20DE
:102A3000FFF763FF18B9BDF80410102900D0022079
:102A40007CBD7CB50546082100240846FFF7FFFE43
:102A500080210E20FFF7FBFE00210D20FFF7C6FEB0
:102A6000932028702020687001A82B460090022235
:102A700019460C20FFF741FF06000AD10022A85C8E
:102A8000521C4440D2B2042AF9D3A85CA04200D020
:102A9000022680210E20FFF7CFFE30467CBD2DE9B7
:102AA000F0410E460746154604210520FFF7CFFEEC
:102AB00080210A20FFF7C0FE00210120FFF796FECB
:102AC000002405E0395D0920FFF790FE641CA4B2E4
:102AD000B442F7D303210120FFF788FE4FF47A7444
:102AE000052007E0000402400018024000004342B5
:102AF00000300140FFF78DFE641E2404240C01D039
:102B00004007EDD52220FFF784FE28702120FFF733
:102B100080FE6870BDE8F0410021012066E610B536
:102B200086B093218DF8041070218DF805100021D6
:102B30008DF80A1001AA5418435CA370445C9DF8F8
:102B40000A30491C6340C9B28DF80A300429F2D317
:102B5000072101A8D21DFFF7A2FF08210846FFF7B1
:102B600076FE04A801AB0090092219460C20FFF75D
:102B7000C4FE18B9BDF81000182802D0002006B015
:102B800010BD9DF80400FAE730B585B08DF804005B
:102B90008DF80510002001A9145C0D18401CC0B26E
:102BA000AC700628F8D300200C181A5C401CC0B288
:102BB00022720428F8D304A800900B460C220E20A1
:102BC000FFF79BFE040004D10820FFF722FE000758
:102BD00000D4022405B0204630BD1CB50C4630217F
:102BE00021706070A21C02212046FFF758FF01A847
:102BF00023460090042219460C20FFF77EFE18B9E8
:102C0000BDF80410902900D002201CBD70B588B01A
:102C10000C46A0218DF8041001AD8DF805000221AD
:102C20002846AA1CFFF73BFF06AE01AB042219465B
:102C30000C200096FFF761FE38BBBDF81800042891
:102C400023D19DF8040000F00F000A281DD10020B8
:102C5000215C2954401CC0B21028F9D305AA1021C8
:102C600001A8FFF71CFF01AB122219460C200096A9
:102C7000FFF743FE48B9BDF81810042905D19DF8A7
:102C8000041001F00F010A2900D002207DE50EB5E5
:102C900050208DF8040000208DF805000DF106028B
:102CA000022101A8FFF7FBFE02A801AB009004225D
:102CB00019460C20FFF721FE0EBD2DE9F041064616
:102CC00086B053495220FFF7A5FE00285BD150483B
:102CD000801CFFF7B6FE4E48801CFFF720FF4C4BD0
:102CE00080469B1C5A1D04216020FFF74DFF494977
:102CF0000420FFF772FF074645484278017846A056
:102D000008F074FE4AA008F071FE414D0024AD1C8D
:102D10004AA0295D08F06AFE641CE4B2052CF7D3D2
:102D200042A008F063FE414646A008F05FFE394627
:102D30004AA008F05BFE4DA008F058FE354D002477
:102D40003EA0295D08F052FE641CE4B2122CF7D3B9
:102D500036A008F04BFE48A008F048FEA87801AC69
:102D60006B792A79E97884E80F00687800902B78ED
:102D70004AA20721304608F059FE05AB0022422145
:102D80004A4805F013FA06B0BDE8F0817CB5044668
:102D90001F495220FFF73EFE0028F9D11C48801C35
:102DA000FFF74FFE1A48801CFFF7B9FE184B054687
:102DB0009B1C5A1D04216020FFF7E6FE21460420DB
:102DC000FFF724FF044629461EA008F00FFE01A8C5
:102DD0004FF00003009036481A4619468CB105F0B2
:102DE00087FEFFF711F90C2332A219211C20FFF7EF
:102DF0002FFAFFF7E8F801AA00212D4805F0CFFFD0
:102E00007CBD05F075FEFFF7FFF80C232BA2ECE765
:102E100084160020183E002043617264207479708B
:102E2000653A202530325820253032580D0A0000EE
:102E3000436172642069643A2000000025303258F2
:102E400020000000436172642073697A653A20258E
:102E500064204B626974730D0A000000737461741E
:102E600075733A202564200D0A00000043617264E6
:102E700020646174613A20003D3D3D3D3D3D3D3D56
:102E80003D3D3D3D3D3D3D3D3D3D3D3D3D3D3D3D72
:102E90003D3D3D3D3D3D3D3D0D0A00002558255839
:102EA000255825582558255800000000A438002032
:102EB000CC3800206661696C6564210073756363BA
:102EC0006573732100000000F0B587B00121022076
:102ED00000F023FC0121080300F047FC02258DF8D7
:102EE000045038208DF805500024954F00908DF83F
:102EF00006408DF807406946384600F00BFA052277
:102F00000321384600F07AFA05220421384600F001
:102F100075FA05221146384600F070FA01268DF840
:102F2000046068038DF8055000908DF806408DF818
:102F300007406946384600F0EDF98248C0F8B862AB
:102F4000ADF808404FF48270ADF80A00ADF810609B
:102F50002802ADF812000820ADF81400ADF80C40BE
:102F6000ADF81640784CADF80E5002A9204602F09C
:102F700019FC0121204602F0A9FC07B0F0BD70B594
:102F8000714C05460221204602F033FD0028F9D09D
:102F90002946204602F000FD0121204602F029FDCD
:102FA0000028F9D0204602F0F5FCC0B270BD70B523
:102FB000644D0020C5F8B802902005F52E75FFF786
:102FC000DEFF0020FFF7DBFF0020FFF7D8FF002027
:102FD000FFF7D5FFFF20FFF7D2FF0402FF20FFF726
:102FE000CEFF20430121296070BD2DE9F041554EEF
:102FF0000746002015460C46C6F8B8020320FFF726
:10300000BEFFC7F30740FFF7BAFFC7F30720FFF77C
:10301000B6FFF8B2FFF7B3FF04E0FF20FFF7AFFF02
:1030200004F8010B6D1EF8D20120C6F8B802BDE805
:10303000F08110B5434C0020C4F8B802052004F517
:103040002E74FFF79CFFFF20FFF799FF01212160FD
:1030500010BD10B53B4C0020C4F8B802062004F5A2
:103060002E74FFF78CFF0120206010BD10B5354C89
:103070000020C4F8B802042004F52E74FFF77FFF87
:103080000120206010BD70B50446FFF7E2FF0A2062
:1030900002F01CFD2B4D0020C5F8B802202005F5DC
:1030A0002E75FFF76CFFC4F30740FFF768FFC4F30A
:1030B0000720FFF764FFE0B2FFF761FF01202860FF
:1030C0000A2002F003FDFFF7B4FFC00703D0012080
:1030D00002F01BFDF7E7BDE87040C7E72DE9F041BE
:1030E00015460C460746FFF7B4FF0A2002F0EEFC37
:1030F000144E0020C6F8B8020220FFF740FFC7F3C5
:103100000740FFF73CFFC7F30720FFF738FFF8B28F
:1031100001E014F8010BFFF732FF6D1EF9D2012018
:10312000C6F8B8020A2002F0D1FCFFF782FFC00700
:1031300003D0012002F0E9FCF7E7BDE8F04195E794
:1031400000040240008040420030014009488047AE
:1031500009480047FEE7FEE7FEE7FEE7FEE7FEE779
:10316000FEE7FEE7FEE7FEE704480549054A064B91
:10317000704700000B11000889010008905B0020D7
:1031800090BB0020907B0020907B002028490843C2
:1031900028490860704730B50F23C27801780125AF
:1031A000FAB1244A126801F1E02102F4E062C2F5AA
:1031B000E062C2F30722C2F10404D3404278A24085
:1031C00084781C401443220181F80024007800F028
:1031D0001F018D404009800000F1E020C0F800513F
:1031E00030BD01F01F0085404809800000F1E0205B
:1031F000C0F8805130BD104A114001430D48001FF6
:10320000016070470B4A121D0029116801D001436B
:1032100000E08143116070474FF0E0210428086905
:1032200003D020F004000861704740F00400FAE782
:103230000000FA050CED00E080FFFF1F774910B594
:10324000884206D10121084600F099FA00210120A8
:103250005BE07349884206D10121022000F08FFA19
:103260000021022051E06F49884206D1012104204B
:1032700000F085FA0021042047E06B49884206D11E
:103280000121082000F07BFA002108203DE0674979
:10329000884206D10121102000F071FA002110208F
:1032A00033E06349884206D10121202000F067FA0B
:1032B0000021202029E05F49884206D101214020D9
:1032C00000F05DFA002140201FE05B49884206D1F2
:1032D0000121802000F053FA0021802015E0574999
:1032E000884202D1012184150AE05549884202D161
:1032F0000121441504E0534988420AD101210415F3
:10330000204600F03CFA00212046BDE8104000F0C5
:1033100036BA10BDF0B5002201274FF0030C0B6840
:1033200007FA02F52B40AB422CD1066853000CFA89
:1033300003F4A64306600E79D0F800E09E4046EA0A
:103340000E0606600E79012E01D0022E12D186687B
:10335000A64386604E79D0F808E09E4046EA0E0605
:1033600086604668AE43466045688E799640B6B240
:1033700035434560C568A543C560CC799C40C368AA
:103380001C43C460521C102AC9D3F0BD4FF6FF7114
:1033900001600021017141718171C171704708B5EF
:1033A00041F480320092C261C1610099C161C1697A
:1033B000C069009008BD0246002012690A4200D090
:1033C00001207047006980B27047024600205269B0
:1033D0000A4200D001207047406980B270470183E3
:1033E0007047418370470AB101837047418370473A
:1033F0004161704742694A40426170474B07DB0EAA
:103400009A40C90810B500EB8100016A0F249C4066
:10341000A1430162016A1143016210BD0000024034
:103420000004024000080240000C0240001002406C
:103430000014024000180240001C0240002002401C
:103440000024024000280240F848016841F00101D0
:103450000160F64A0021083211600268F44B1A40FC
:103460000260031DF34A1A60F04BF34A84331A607A
:10347000F04A103A1B1D1A60026822F48022026092
:10348000EA480C300160181D01607047E7490022CE
:10349000891C0A70087070470246002051090129F2
:1034A0000CD002290CD0E1497431096802F01F02E6
:1034B000012393400B4200D001207047DB49F4E721
:1034C000DA497031F1E718B500204FF4A0440090BC
:1034D0003120FFF7E1FF0099491C0091A14201D082
:1034E0000028F5D03120FFF7D7FF002800D00120B9
:1034F00018BDCE4A116821F0F80141EAC000106001
:103500007047CE4908607047C849002270310A7080
:103510000A70012802D0042801D1052008707047E4
:10352000C7490860704741EA82115A0810B5C54B77
:10353000029C03EB02421143014341EA0460BB4990
:10354000091D086010BDBD4908667047800140EA4A
:103550000170B649843108607047B8498866704781
:10356000800140EA0160B14940EA02708831086098
:103570007047B24908677047B049C8647047AB4BA1
:1035800008331A68084322F0EC6210431860704751
:10359000A64B08331A68084322F07842104318609B
:1035A0007047A24A0832116821F0030101431160FB
:1035B00070479E480830006800F00C0070479B4A36
:1035C0000832116821F0F001014311607047974AF9
:1035D0000832116821F4E051014311607047934AA9
:1035E0000832116821F4604141EAC0001060704760
:1035F00070B58E4B08331968934C11F00C0104D050
:103600006610042903D0082903D004601BE006607B
:1036100019E0864A121D1168C1F38055116801F046
:103620003F0115B1B6FBF1F101E0B4FBF1F1146813
:103630001268C4F388146143C2F30142521C520061
:10364000B1FBF2F1016019680F2202EA11117F4A01
:10365000545C0168E14041601C68072505EA942438
:10366000145D21FA04F484601B6805EA5333D25CCC
:10367000D140C16070BDC0F30121032908D16B4B5B
:1036800008331968724A21F4F81102400A431A609B
:10369000664970310A68C0F30B0002430A60704744
:1036A0006749443908607047654940390860704788
:1036B0006249C1F85C0170475C4A8C321168401E57
:1036C00021F01F01014311607047584A8C32116884
:1036D0006FF0FF0321F4F85103EB00200843106062
:1036E0007047524A8C32116821F440110143116035
:1036F00070474E4A8C32116821F440010143116039
:1037000070474A4A8C32116821F4403101431160FC
:1037100070475049C1F8E0017047444A30320029EF
:10372000116801D0014300E08143116070473F4AB6
:1037300034320029116801D0014300E08143116057
:1037400070473A4A38320029116801D0014300E03D
:10375000814311607047354A40320029116801D019
:10376000014300E0814311607047304A4432002930
:10377000116801D0014300E08143116070472B4A7A
:1037800010320029116801D0014300E0814311602B
:103790007047264A14320029116801D0014300E025
:1037A000814311607047214A18320029116801D005
:1037B000014300E08143116070471C4A2032002918
:1037C000116801D0014300E0814311607047174A3E
:1037D00024320029116801D0014300E081431160C7
:1037E0007047124A50320029116801D0014300E0AD
:1037F0008143116070470D4A54320029116801D08D
:10380000014300E0814311607047084A58320029A3
:10381000116801D0014300E0814311607047034A01
:1038200060320029116817D0014316E000380240C9
:10383000FFFFF6EA1030002400300020000047426D
:10384000800E47420000FFFF0024F4009116002084
:10385000FFFCFF0F00104742814311607047194A77
:103860000029116801D0014300E0814311607047D5
:1038700014490C310128086803D020F008000860C2
:10388000704740F00800FAE70E4A573A00291178CD
:1038900001D0014300E081431170704709481030A6
:1038A000016841F08071016070470146054A0020BF
:1038B000583A12680A4200D001207047014956392F
:1038C0000870704764380240CD4910B5884206D16F
:1038D00001211020FFF77BFF0021102020E0C949C3
:1038E000884202D101214C0429E0C749884202D113
:1038F00001218C0423E0C549884202D10121CC0476
:103900001DE0C349884202D101210C0517E0C149DD
:10391000884209D101212020FFF759FF00212020F2
:10392000BDE81040FFF753BFBB49884202D10121D7
:103930008C0704E0B94988420AD101214405204698
:10394000FFF73BFF2046BDE810400021FFF735BFE1
:1039500010BD7FB50446008A0D46C98820F440504A
:1039600001432182A08941F20C618843A9882A89F8
:1039700011436A8902431143A181A08A20F4407156
:10398000A8890843A0826846FFF732FE9C4884421B
:1039900002D0A048844201D1039800E00298A18996
:1039A000090400EBC00101EB0010296801D54900B2
:1039B00000E08900B0FBF1F06422B0FBF2F10901F4
:1039C0000B096FF018056B4300EB8300A3891D04FE
:1039D0004FF0320306D503EBC000B0FBF2F000F06D
:1039E000070005E003EB0010B0FBF2F000F00F0061
:1039F000084320817FBD4FF4165101600021818072
:103A0000C18001810C2242818181704710B5028AF8
:103A10004C8822F470630A8822438C88C9880C433E
:103A200022431A43028210BD00210180418081801F
:103A3000C18070470029818902D041F4005101E022
:103A400021F4005181817047028B02F47F4202838E
:103A5000028B0A43028370470029818902D041F416
:103A6000004101E0C1F30E01818170470029818A84
:103A700002D041F4006101E021F4006181827047CD
:103A8000C1F30801818070478088C0F30800704747
:103A9000028A22F00F020282028A0A4302827047DF
:103AA0000029818902D041F0020101E021F00201E8
:103AB00081817047828922F40062828182890A436F
:103AC00082817047028A22F020020282028A0A431F
:103AD000028270470029018A02D041F4804101E04E
:103AE00021F4804101827047818941F00101818187
:103AF00070470029818A02D041F0080101E021F0DD
:103B0000080181827047028BD2B20283028B42EAA3
:103B10000121018370470029818A02D041F02001F0
:103B200001E021F02001818270470029818A02D0C2
:103B300041F0100101E021F0100181827047828A7A
:103B400022F004028282828A0A438282704700291C
:103B5000818A02D041F0020101E021F0020181825C
:103B60007047002A828A01D00A4300E08A43828299
:103B7000704710B5C1F3421301F01F040121A140A9
:103B8000012B07D0022B07D01430002A026805D081
:103B90000A4304E00C30F8E71030F6E78A4302608D
:103BA00010BD0246002012880A4200D00120704752
:103BB000C9430180704770B501F01F05012600243C
:103BC000C1F3421306FA05F2012B0FD0022B0FD0DE
:103BD000838A4FEA11210088134206FA01F600EAAF
:103BE000060001D000B10124204670BD8389F0E7B2
:103BF000038AEEE70A0A01219140C9430180704718
:103C0000001001400044004000480040004C0040CB
:103C1000005000400014014000780040007C00404B
:103C2000FE4910B5884206D101210846FFF7CFFDB5
:103C3000002101205BE0B0F1804F09D0F8498842B3
:103C40000DD101210220FFF7B8FD0021022070E014
:103C500001210846FFF7B1FD0021012069E0F1498B
:103C6000884206D101210420FFF7A7FD002104208E
:103C70005FE0ED49884206D101210820FFF79DFD54
:103C80000021082055E0E949884206D10121102091
:103C9000FFF793FD002110204BE0E549884206D153
:103CA00001212020FFF789FD0021202041E0E1498A
:103CB000884206D101210220FFF789FD0021022060
:103CC00015E0DD49884202D101210C040AE0DB49FC
:103CD000884202D101214C0404E0D94988420AD12A
:103CE00001218C042046FFF772FD00212046BDE82B
:103CF0001040FFF76CBDD349884206D10121402016
:103D0000FFF75BFD0021402013E0CF49884206D138
:103D100001218020FFF751FD0021802009E0CB49DF
:103D200088420AD1841501212046FFF746FD002173
:103D30002046BDE81040FFF740BD10BD30B50288F9
:103D4000B64CBC4DA0420DD0A8420BD0B0F1804F74
:103D500008D0B34B984205D0B24B984202D0B24B38
:103D6000984203D122F070034A881A43AF4B98421D
:103D700006D0AF4B984203D022F440730A891A430D
:103D800002804A68C2620A880285A04201D0A84225
:103D900001D1897A01860121818230BD4FF0FF3146
:103DA000416000210180018141808172704701855D
:103DB00082827047028822F070020A4302807047B4
:103DC00041627047C1627047406A7047008D70471A
:103DD0000029018802D041F0020101E021F0020136
:103DE000018070470029018802D041F0040101E000
:103DF00021F00401018070470029018802D041F0C0
:103E0000800101E021F0800101807047028822F0EA
:103E10000802028002880A4302807047028822F466
:103E20004072028002880A4302807047002901889C
:103E300002D041F0010101E021F001010180704751
:103E400030B5028C22F001020284028C8388048B3C
:103E500022F0020224F073050C882C438D8915434F
:103E60004A882A436D4DA84202D0724DA8420DD116
:103E700022F00805CA8923F440732A4322F004057E
:103E80008A882A430D8A1D434B8A2B4383800483EF
:103E900089684163028430BD70B5028C22F0100243
:103EA0000284028C8388048B0D8824F4E6464FF646
:103EB000FF7404EA052535438E8922F0200204EAC6
:103EC000061616434A8804EA02123243534EB042A1
:103ED00002D0584EB04215D122F08006CA8923F490
:103EE000406304EA0212324322F040068A8804EA60
:103EF000021232430E8A04EA86061E434B8A04EA03
:103F0000830333438380058389688163028470BDA2
:103F100070B5028C22F480720284028C8388848BB8
:103F20000D8824F0730425438E894FF6FF7422F424
:103F3000007204EA062616434A8804EA0222324343
:103F4000364EB04202D03B4EB04215D122F400664C
:103F5000CA8923F4405304EA0222324322F48066E1
:103F60008A8804EA022232430E8A04EA06161E43B5
:103F70004B8A04EA03133343838085838968C163D2
:103F8000028470BD70B5028C22F480520284058CCC
:103F90008288838B0C8823F4E6464FF6FF7303EA8E
:103FA0000424344325F400568D8903EA053535434E
:103FB0004E8803EA06362E43184DA84202D01D4D06
:103FC000A84205D122F480450A8A03EA82122A43D4
:103FD0008280848389680164068470BD0021018029
:103FE0004180818081608181C181018241827047ED
:103FF00030B50124058C00F118038C40A5430584DD
:1040000031B308292CD0091FC1F34E0018440168B0
:1040100048F6FF731940016001681AE00000014092
:104020000004004000080040000C00400010004068
:1040300000140040000401400040014000440140E1
:104040000048014000180040001C004000200040D3
:1040500006E04FF6FF7303EA02221143016030BD10
:1040600003EB510001684FF68F731940016001683E
:10407000F3E74163704781637047C1637047016430
:104080007047028B22F070020A4302837047028B52
:104090004FF6FF7322F4E04203EA0121114301834A
:1040A0007047828B22F070020A4382837047828BB2
:1040B0004FF6FF7322F4E04203EA012111438183AA
:1040C0007047028B22F008020A4302837047028B7A
:1040D0004FF6FF7322F4006203EA012111430183CA
:1040E0007047828B22F008020A4382837047828BDA
:1040F0004FF6FF7322F4006203EA0121114381832A
:104100007047028B22F004020A4302837047028B3D
:104110004FF6FF7322F4806203EA01211143018309
:104120007047828B22F004020A4382837047828B9D
:104130004FF6FF7322F4806203EA01211143818369
:104140007047028B22F080020A4302837047028B81
:104150004FF6FF73C2F30E0203EA012111430183FC
:104160007047828B22F080020A4382837047828BE1
:104170004FF6FF73C2F30E0203EA0121114381835C
:104180007047028C22F002020A4302847047028CBC
:1041900022F008020A4302847047028C4FF6FF7334
:1041A00022F0200203EA0111114301847047028CBE
:1041B0004FF6FF7322F0800203EA011111430184DC
:1041C0007047028C4FF6FF7322F4007203EA01215C
:1041D000114301847047028C4FF6FF7322F4006292
:1041E00003EA0121114301847047028C4FF6FF73EB
:1041F00022F4005203EA013111430184704710B5E3
:104200000123048C8B409C430484038C8A40134319
:10421000038410BD10B50423048C8B409C4304849C
:10422000038C8A401343038410BD828B22F44062C6
:104230008283828B4FF6FF7303EA01210A43828354
:104240007047828B22F00C028283828B0A43828326
:104250007047028B22F440620283028B4FF6FF7399
:1042600003EA01210A4302837047F0B5048C24F06D
:1042700010040484078B068C4FF6FF7404EA0115C2
:1042800027F4734704EA0331394304EA02220A435C
:1042900026F0A001294341F0100102830184F0BD02
:1042A000028B22F00C020283028B0A4302837047C6
:1042B0002DE9F0410C460E884988A28823890546DD
:1042C0000EB3042E26D0082E2E8C4FF6FF7028D069
:1042D00026F480562E84AF8B2E8C00EA022200EA50
:1042E000013127F473473A4300EA0330104326F4C0
:1042F00020420A4342F48051A8832984E188284659
:10430000BDE8F04191E700F062F9E1882846BDE898
:10431000F041C5E7FFF7A9FFE1882846BDE8F04175
:1043200097E726F480762E84AF8B2E8C00EA01214D
:1043300000EA0310104327F0F307384326F4206205
:104340000A4342F48071A8832984E1882846BDE8A5
:10435000F04176E700210180418001228280C18006
:10436000018170472DE9F0410C4600264988074637
:10437000012501B90226A288012A00D10225208840
:1043800023890028384610D0FFF76FFFE1883846B0
:10439000FFF75FFF23892A463146384600F017F9B8
:1043A000E1883846BDE8F0417AE700F010F9E1888D
:1043B0003846FFF775FF23892A4631463846FFF70E
:1043C00054FFE1883846BDE8F04142E7406B704752
:1043D000806B7047C06B7047006C704710B50A88DF
:1043E0004B88CC881A438B8823431A430B891A4382
:1043F0004B8989891A430A43A0F8442010BD002143
:10440000018041808180C18001814181818170472B
:10441000002930F8441F02D041F4004101E0C1F30B
:104420000E01018070470029818802D041F004010B
:1044300001E021F00401818070470029818802D0C9
:1044400041F0010101E021F0010181807047002A63
:10445000828901D00A4300E08A43828170478182C9
:10446000704702460020128A0A4200D0012070479D
:10447000C9430182704702460020138A92890B4289
:1044800002EA010202D0002A00D001207047C9438D
:10449000018270471143A0F848107047002A8289B2
:1044A00001D00A4300E08A43828170470029818855
:1044B00002D041F0080101E021F00801818070473D
:1044C000018921F0070101817047028922F0700201
:1044D0000A430281704700B50346FFF7F6FF1889CB
:1044E00040F00700188100BD70B516460D466029E2
:1044F00004464FF0010231460AD000F068F8294620
:104500002046FFF7E2FF208940F00700208170BDC0
:10451000FFF7ABFEF3E730B504894FF6FF7505EA08
:1045200003231343E4B20B432343038130BD10B58F
:104530000446FFF7F0FF208940F07700208110BD8E
:1045400010B50446FFF7E7FF208940F48040208142
:1045500010BD828822F07002828082880A438280A5
:104560007047028922F00702028102890A43028110
:104570007047028922F08002028102890A43028187
:10458000704770B50589048B068C25F007050D432F
:104590004FF6FC410C4040F201110C434FF6FF7105
:1045A00001EA031126F022061143314305810483F9
:1045B000018470BD0029818802D041F0800101E0B2
:1045C00021F0800181807047A0F85010704770B5CD
:1045D000048C24F001040484058B048C4FF6FF76D0
:1045E00006EA0313134325F0F3052B4324F00A02D4
:1045F0000A4342F001010383018470BD18B5002015
:10460000FA4B0090CA20186053201860F7491839F7
:10461000086820F0A00008604FF400340868009A91
:1046200000F02000521C0092A24201D00028F5D0D8
:104630000868800601D5012000E00020FF211960F4
:1046400018BD08B5E94900201839009008684006EF
:1046500012D44FF0FF3008608B130868009A00F006
:104660004000521C00929A4201D00028F5D0086800
:10467000400601D4002008BD012008BD78B5002403
:10468000DA4ECA2000942546306053203060FFF790
:10469000D8FFE0B3D54824380460D44942F2011071
:1046A000203908600B1D186800F0070018608D1392
:1046B0001A1D1068009900F00400491C0091A942DD
:1046C00001D00028F5D01068400729D518681C6073
:1046D000C6494FF6FF7010390860091FC4480860CA
:1046E000C2480C380460001D0460001D0460BF480F
:1046F00008300460BD4818300460BC4820300460B5
:10470000001D04601460B9481C30046000E003E040
:10471000FFF774FF20B10125FF203060284678BDE7
:104720000025F9E7B1481838016821F080010160DF
:10473000704770B5AD4E04460025CA203060532046
:104740003060FFF77EFFA8B1A8481C38016821F04F
:10475000400101600168226811430160A348A1681B
:10476000143801600168A28841EA02410160FFF744
:10477000D9FF0125FF203060284670BD002101606F
:104780007F214160FF2181607047984908B1FF2077
:1047900002E0CA20086053200860704770B5934E4D
:1047A00005460024CA20306053203060FFF749FFDF
:1047B00060B18E481C38016815B141F0100101E06C
:1047C00021F010010160FFF7ADFF0124FF203060F0
:1047D000204670BD854ACA2111605321116083496A
:1047E0001C390028086802D040F0200001E000F0E9
:1047F000DF000860FF20106070472DE9F0410C4693
:1048000000267C4F01002078396832464FEA41612A
:1048100004D000292FDA00F008FC2DE0002900DB8D
:10482000E27000F0F6FB0504607800F0F2FB45EA68
:104830000025A07800F0EDFB0543E07845EA00454F
:104840006A4CCA20206053202060FFF7FAFE68B14E
:1048500069480540674808380560FFF763FF386816
:10486000800602D4FFF7CAFE00B10126FF202060B7
:104870003046BDE8F081E270A078217840EA014539
:104880006078E178000240EA01400543D8E7002162
:10489000C1700170417081707047020010B55748B7
:1048A0000C460168544801EA0001C1F3054020703C
:1048B000C1F30623637001F07F03A3704FF0400340
:1048C00003EA1141E1700AD100F0AFFB207060787B
:1048D00000F0ABFB6070A07800F0A7FBA07010BDEB
:1048E0004248001D00684349091F0968704770B5B8
:1048F0000C460026010060780FD000F096FBA078EF
:1049000000F093FBA078E17840EA014560782178D7
:10491000000240EA4130054315E0C10603D520F00E
:1049200010000A306070E07800F073FB05046078D6
:1049300000F06FFB45EA0025A07800F06AFB054314
:10494000207845EA4035294CCA2020605320206059
:10495000FFF777FE70B12A4805402648001F056022
:10496000FFF7E0FE23480068800602D4FFF746FE0A
:1049700000B10126FF202060304670BD012101708A
:10498000817041700021C1707047020010B51D4850
:104990000C4601681A4801EA00014FEA1140E07034
:1049A000C1F30423637001F03F03A370C1F34231EC
:1049B00021700AD100F039FBE070607800F035FB1F
:1049C0006070A07800F031FBA07010BD70B5144687
:1049D0000D46084A0021002810684FEA406013D0B5
:1049E00000282ADA207800F020FB27E02428004065
:1049F000FF007F00082800407F7F7F0000280040E4
:104A00003FFFFF0004280040002800DBE170207811
:104A100000F0FFFA0604607800F0FBFA46EA002690
:104A2000A07800F0F6FA0643E07846EA0046207BDC
:104A300000F0EFFA46EA006010E0E170207B00F041
:104A4000F4FAA0782178E27840EA0140617809021E
:104A500041EA02410843217B40EA0160A168084322
:104A600061680843F849CA220A6053220A60B5F512
:104A7000807F04D00A1F1060FF20086070BDF24ADA
:104A8000083AF8E70021C17001704170817001227D
:104A9000816002734160704710B514460246B1F55B
:104AA000807F2AD0E848001F0168C1F305402070CC
:104AB000C1F30623637001F07F03A370402303EA70
:104AC0001143E370C1F30563237301F0804301F0E8
:104AD0008031C4E90113002A0ED100F0A6FA20703B
:104AE000607800F0A2FA6070A07800F09EFAA070E2
:104AF000207B00F09AFA207310BDD3480838D3E722
:104B000038B50022D04C0092CA2222605322226083
:104B1000CD4A1C3A0029116802D00143116012E00D
:104B200081431160C84A183A95131168009B01EA45
:104B300010215B1C0093AB4201D00029F5D0116815
:104B400011EA102000D00120FF21216038BD10B5EE
:104B5000BD4BCA241C6053241C601143B0F5807FF8
:104B600005D0B94824300160FF20186010BDB64858
:104B70002030F8E7B0F5807F05D0B34824300068D6
:104B8000C0F30E007047B0482030F8E7AE4ACA21A3
:104B9000116053211160AC491C390B6823F00703E5
:104BA0000B600B6803430B60FF2010607047A64941
:104BB000CA220A6053220A60A34A103A1060FF20FA
:104BC00008607047A0481038006880B2704718B578
:104BD00000219D4B0091CA211960532119609A4907
:104BE0001C390028086803D040F48060086014E095
:104BF00020F480600860944918398C130868009A82
:104C000000F00400521C0092A24201D00028F5D00E
:104C10000868400701D4002000E00120FF2119604E
:104C200018BD894B10B5CA221A6053221A60864AF1
:104C30001C3A146824F48024146014680843044364
:104C40001460FF20186010BD7F481C38006800F415
:104C5000802070477C4B10B5CA221A6053221A601C
:104C6000794A1C3A146824F4E00414601468084378
:104C700004431460FF20186010BDF0B5724D064665
:104C80000024CA200F46286053202860FFF7D9FC73
:104C900030B16D483E430C380660FFF743FD0124F8
:104CA000FF2028602046F0BD70B5674E0546002401
:104CB000CA20306053203060FFF7C3FC60B1624807
:104CC0001C38016815B141F0800101E021F080013C
:104CD0000160FFF727FD0124FF203060204670BDF2
:104CE000594ACA2111605321116057491C390028C3
:104CF000086802D040F4000001E020F400000860E1
:104D0000FF2010607047504ACA2111605321116082
:104D10004D491C390B6823F400230B600B680343D7
:104D20000B60FF2010607047F0B5474D0023CA2488
:104D30002C6053242C60444C183C2668F60308D59C
:104D40004FF400362768FF0303D5B34201D05B1C44
:104D5000F8E72368DB0306D408433B4910431831C6
:104D60000860012000E00020FF212960F0BD364BE3
:104D700010B51C3B1A6840F60804A24342EA000240
:104D800009B142F400623048CA2101605321016038
:104D90001A60FF21016010BD70B50D462A49144606
:104DA0000C310968294A1140274A103212684FF61F
:104DB0003F731A40C1F305432B70C1F306236B7098
:104DC00001F07F03AB70402303EA1141E970002139
:104DD000E170C2F30421617002F03F01A170C2F3DF
:104DE00042312170002817D1287800F01EF9287070
:104DF000687800F01AF96870A87800F016F9A870C1
:104E0000607800F012F96070A07800F00EF9A070E0
:104E1000207800F00AF9207070BD0B48143000684B
:104E20007047094A1C320029116803D041EA40004A
:104E30001060704721EA4000FAE7034A1C3200295B
:104E4000116805D0014304E0242800407F7F7F00E3
:104E500081431160704779490A6822F4C0520A60A0
:104E60000A6802430A60704774490A6822F4E062E3
:104E70000A600A6802430A60704770490A6822F4AF
:104E8000C0420A600A6802430A6070476B49002802
:104E9000086802D040F0800001E020F08000086047
:104EA000704766490028086802D020F4004001E0FD
:104EB00040F4004008607047604A08B5103202EBC9
:104EC00080000090016008BD5C4908B5103101EB1D
:104ED00080000090006808BD58490A6822F48032BA
:104EE0000A600A6802430A60704754490A6822F45B
:104EF00000320A600A6802430A6070474F490A6834
:104F000022F480220A600A6802430A60704770B582
:104F10004A4C0022CA231C3C236053232360474B86
:104F2000343B1D682D0707D59E141D682D0703D53A
:104F3000B24201D0521CF8E71A6812070DD43F4A5A
:104F4000383A1268D20608D401433C48143801604C
:104F5000FFF754FB10B1012000E00020FF21216089
:104F600070BD30B5354DCA221C3D2A6053222A60DF
:104F7000324C20F00402383C0029304B216800F00C
:104F8000040004D0114321601968014303E09143F8
:104F90002160196881431960FF20286030BD0246F6
:104FA0002649002034390968254B1940114200D0A8
:104FB0000120704780B240F08000C1431F48343860
:104FC000026802F080021143016070471B4A002111
:104FD000126802F00403194A383A126803EAD0331F
:104FE00002401A43174B1B6803EA101003D0000459
:104FF000000C00D0012108467047C0F30F1040F0AC
:105000008000C1430F48026802F080021143016032
:105010007047002103E0491C0A38C9B2C0B20A280F
:10502000F9D2090740EA11607047010901EB8101DB
:1050300000F00F0000EB4100C0B270474028004074
:105040007F3F01000C280040354900200860091D01
:105050000860091D0860091D086031493148143194
:105060000860704730B52E4A8379016853B31368DE
:105070008B431360111D0B680468A3430B60017917
:1050800011440B68046823430B60254B08331968EF
:105090000468A14319601C1D21680568A9432160AB
:1050A0004179102905D011440A68006802430A605A
:1050B00030BD196802681143196021680068014316
:1050C000216030BD0079104402688A43026030BD1F
:1050D0000021016001710C224271817170471049F9
:1050E00010310A6802430A60704701460C4A0020EA
:1050F000143212680A4200D0012070470849143166
:10510000086070470146064A0020143212680A42BD
:1051100000D0012070470249143108607047000038
:10512000003C0140FFFF7F0010B501210C07204625
:10513000FEF743FB2046BDE810400021FEF73DBBD3
:10514000404908627047404A116821F0E00101437C
:10515000116070473B49086170473A49C1F8A000A7
:1051600070473849C1F8A4007047374A116821F4E4
:10517000404101431160704732490864704731492A
:105180004864704730490028086802D040F4402045
:1051900001E020F44020086070472A4900B1012056
:1051A000C8627047274900B10120886270472549CD
:1051B00048627047244B10B51A6840F60344A24376
:1051C00002431A602148026842F004020260012989
:1051D00005D020BF016821F00401016010BD30BF7F
:1051E000F8E7194B10B51A6840F60344A24302438E
:1051F0001A601648026842F004020260012905D0D4
:1052000020BF016821F00401016010BD30BFF8E744
:105210000D48016841F0020101600C48016841F04D
:105220000401016030BF7047074A01460020526800
:105230000A4200D00120704703490A6842EA800010
:105240000860704700000E420070004010ED00E062
:10525000F94908707047F8490028086802D040F4FE
:10526000807001E020F4807008607047F2490028E7
:10527000086802D040F4007001E020F4007008607B
:105280007047ED490028086802D040F4806001E0D2
:1052900020F4806008607047E748016841F40061CD
:1052A00001607047E448016841F480510160704733
:1052B000E14810300068002805DADF48DF49001DAA
:1052C0000160DF4901607047DB481030016841F040
:1052D000004101607047D84909200C310A68D203A7
:1052E00001D5012070470A68D20601D50620704713
:1052F0000A68D20501D5022070470A6812F0EF0F44
:1053000001D00720704709688907FBD5082070473E
:1053100008B509208DF80000FFF7DDFF8DF80000CB
:105320009DF800000128F7D09DF8000008BD70B579
:105330000646002529B1012928D0022929D04FF499
:105340004075FFF7E5FF09281FD1BB4C10342068DA
:1053500020F440702060206828432060206820F0FE
:10536000F8002060206846F00201084320602068B1
:1053700040F480302060FFF7CBFF216821F002016C
:105380002160216821F0F801216070BD4FF4807523
:10539000D7E74FF40075D4E730B504460025FFF792
:1053A000B7FF2CB1012C1DD0022C1ED04FF440753C
:1053B000092816D1A04C1034206820F440702060D9
:1053C000206828432060206840F0040020602068A6
:1053D00040F480302060FFF79BFF216821F004013A
:1053E000216030BD4FF48075E2E74FF40075DFE7D0
:1053F00030B504460025FFF78BFF2CB1012C1DD0E2
:10540000022C1ED04FF44075092816D18A4C103456
:10541000206820F4407020602068284320602068C5
:1054200040F004002060206840F480302060FFF7E6
:105430006FFF216821F00401216030BD4FF48075B9
:10544000E2E74FF40075DFE730B504460025FFF7CB
:105450005FFF2CB1012C1DD0022C1ED04FF44075E3
:10546000092816D1744C1034206820F44070206054
:10547000206828432060206840F4004020602068B5
:1054800040F480302060FFF743FF216821F40041A1
:10549000216030BD4FF48075E2E74FF40075DFE71F
:1054A000F0B516461F460546FFF732FF092815D10D
:1054B000614C1034206820F440702060206840F473
:1054C00040702060206840F0010020602E606F6016
:1054D000FFF71EFF216821F001012160F0BD70B5CA
:1054E0000D460646FFF714FF092814D1524C10341C
:1054F000206820F440702060206840F40070206034
:10550000206840F0010020603560FFF701FF21684E
:1055100021F00101216070BD70B50D460646FFF710
:10552000F7FE092814D1444C1034206820F4407050
:105530002060206840F480702060206840F0010006
:1055400020603580FFF7E4FE216821F00101216031
:1055500070BD70B50D460646FFF7DAFE092812D178
:10556000354C1034206820F44070206020682060A2
:10557000206840F0010020603570FFF7C9FE216807
:1055800021F00101216070BD2B4814300068C00774
:1055900005D029482B49083001602B49016070472C
:1055A00025481430016841F001010160704730B5B1
:1055B0000D460446FFF7ACFE092807D11E481630F9
:1055C00001880DB1A14300E02143018030BD30B519
:1055D0000D460446FFF79CFE092807D116481A30ED
:1055E00001880DB1A14300E02143018030BD124A82
:1055F0001732117801F07F0108431070704730B501
:105600000D460446FFF784FE092807D10A4A1632E0
:1056100010880DB1204300E0A043108030BD30B5AC
:105620000D460446FFF774FE092811D1024A1A32CA
:1056300010885DB120430AE0003C02402301674529
:10564000AB89EFCD3B2A19087F6E5D4CA0431080DB
:1056500030BD10B50446FFF75BFE092801D135487F
:10566000047010BD70B515460C460646FFF750FE97
:10567000092808D12F49491E087800F00F0004437B
:105680002C4334430C7070BD2A49491E0A7822F01D
:1056900010020A700A7802430A7070472549491EB1
:1056A0000A7822F00C020A700A7802430A707047E6
:1056B0002048401E017841F00201017028E61D4893
:1056C000401E0068C0F3471070471A48401C00880D
:1056D00070471848401D008870471648401C0088D5
:1056E00070471448401D008870471249002009780F
:1056F000AA2900D0012070470E48401E007800F013
:105700000C0070470B4A521F0029116801D0014359
:1057100000E08143116070470146064A0020093AC3
:1057200012680A4200D00120704702490939086016
:1057300070470000153C0240C14910B5884202D1B3
:105740000121841424E0BF49884202D101210414BC
:1057500004E0BD4988420AD10121C4132046FEF766
:105760002CF82046BDE810400021FEF726B8B749C6
:10577000884202D1012144140AE0B549884202D18D
:1057800001210C0504E0B34988420AD101214C05EE
:105790002046FEF71CF82046BDE810400021FEF729
:1057A00016B810BD30B502884C8802F441530A88FF
:1057B000CD8822438C882C4322430C8922434C8978
:1057C00022438C892243CC8922431A430280828B54
:1057D00022F400628283098A018230BDF0B5022280
:1057E0000023858B01244FF24006354085830284D7
:1057F000868B8D68022D3DD08A8802B10224964A9C
:1058000013681B0203D5136823F400031360924A44
:105810007C3213681268C3F388138F4FC2F302728D
:105820003F1F3D683F6805F03F057F0201D58B4F64
:1058300000E08B4FB7FBF5F55D43B5FBF2F2CB888B
:10584000B3F5007F2BD06301B2FBF3F202EB8202CF
:105850008B685200B2FBF3F2521D92B20A23B2FBE4
:10586000F3F202F00103D21A4FF6FF74C2F34F02B3
:1058700004EA0323941EFE2C01D302220023CC88C9
:105880001A43144304840A884B881A438B888989F5
:105890000B431A43324342F400618183F0BD120A84
:1058A000D4E70021018041808180C1800181418154
:1058B0008181C181072101827047002101804180DF
:1058C0008180C18002228260818170470029018825
:1058D00002D041F0400101E021F040010180704719
:1058E0000029818B02D041F4806101E021F48061C4
:1058F00081837047028822F40062028002880A4392
:1059000002807047B1F5804F018803D021F48041B7
:105910000180704741F48041FAE7A1F57E42018899
:10592000FF3A02D041F4807101E021F480710180DE
:1059300070470029818802D041F0040101E021F084
:105940000401818070470029818802D041F0100154
:1059500001E021F010018180704730B5828B002377
:105960004FF240042240828302220284848B0A8800
:105970004FF48075B2F5007F00D002B92B464A88FB
:105980008D8889892A4319430A43224342F40061DE
:10599000818330BD808970478181704700290188EB
:1059A00002D041F4005101E021F400510180704720
:1059B000018841F4805101807047012901D0008B9A
:1059C0007047808A7047008A7047002A828801D019
:1059D0000A4300E08A4382807047090901238B4013
:1059E000002A828899B201D00A4300E08A4382806B
:1059F00070470246002012890A4200D001207047F9
:105A0000C9430181704730B501F00F0301250246FB
:105A100005FA03F40020A3B2090905FA01F49188FC
:105A2000A4B2128921401A4202D0002900D00120DC
:105A300030BD01F00F0201219140C943018170473F
:105A40000030014000380040003C0040003401407C
:105A500000500140005401400838024000127A0012
:105A60000024F400374810B50078012807D101F070
:105A70002CFC05F0BAFABDE8104001F031BC10BDB5
:105A800010B56FF00400FDF7C7FB2F482F49304BCE
:105A90000068314CB0FBF1F2B0FBF1F01A802D4AF6
:105AA0001168B4FBF1F1414310684FF47A72B2FB14
:105AB000F0F058804FF0E020026942F002020261EB
:105AC0004161016941F00101016110BDF8B54FF07C
:105AD000E02700247E691E49098800FB01F568461D
