:020000040800F2
:10000000082500209D010008A5010008A70100089F
:10001000A9010008AB010008AD01000800000000C4
:10002000000000000000000000000000AF01000818
:10003000B101000800000000B3010008B50100088C
:10004000B7010008B7010008B7010008B7010008B0
:10005000B7010008B7010008B7010008B7010008A0
:10006000B7010008B7010008B7010008B701000890
:10007000B7010008B7010008B7010008B701000880
:10008000B7010008B7010008B7010008B701000870
:10009000B7010008B7010008B7010008B701000860
:1000A000B7010008950C0008B7010008B701000867
:1000B000C90C0008E10C0008B7010008B7010008EE
:1000C000B7010008B7010008B7010008B701000830
:1000D000B7010008710D0008B7010008A10D000864
:1000E000B70100081D0A0008B7010008B7010008A1
:1000F000150D0008B7010008B7010008B701000896
:10010000B7010008B7010008B7010008B7010008EF
:10011000B7010008B7010008B7010008B7010008DF
:10012000B7010008B7010008B7010008B7010008CF
:10013000B7010008B7010008B7010008B7010008BF
:10014000B7010008B7010008B7010008B7010008AF
:10015000B7010008B7010008B7010008B70100089F
:10016000B7010008B7010008B7010008B70100088F
:10017000B7010008B7010008B7010008B70100087F
:10018000B7010008B7010008DFF80CD000F018F83C
:1001900000480047750E00080825002006488047E3
:1001A00006480047FEE7FEE7FEE7FEE7FEE7FEE75C
:1001B000FEE7FEE7FEE7FEE72D0C000889010008D8
:1001C000064C074D06E0E06840F0010394E80700A4
:1001D00098471034AC42F6D3FFF7DAFF3C2800080A
:1001E0005C28000870B58C1810F8015B15F0070347
:1001F00001D110F8013B2A1106D110F8012B03E0C0
:1002000010F8016B01F8016B5B1EF9D12B0705D4C7
:100210000023521E0DD401F8013BFAE710F8013B10
:10022000CB1A921C03E013F8015B01F8015B521E2C
:10023000F9D5A142D8D3002070BD00000149086063
:1002400070470000143C0140F0B50A46002100232D
:10025000002400BF3DE0012505FA01F3156805EA19
:1002600003049C4234D105684F000326BE40B543C9
:10027000056015794E00B54006683543056015796F
:10028000012D02D01579022D16D185684F00032665
:10029000BE40B543856055794E00B540866835430C
:1002A0008560456801268E40B5434560456896796E
:1002B0008E40B6B235434560C5684F000326BE4048
:1002C000B543C560D5794E00B540C6683543C560B5
:1002D000491C1029BFD3F0BD41837047018370478B
:1002E00010B54FF400710F48FFF7F8FF012000F040
:1002F000BBFD4FF480710B48FFF7F0FF012000F0C9
:10030000B3FD4FF400710748FFF7E6FF012000F04E
:10031000ABFD4FF480710348FFF7DEFF012000F0D2
:10032000A3FD10BD0004024010B54FF480710B48CE
:10033000FFF7D4FF012000F097FD4FF4007107484C
:10034000FFF7CAFF012000F08FFD4FF40071034852
:10035000FFF7C4FF012000F087FD10BD000402403C
:1003600010B54FF480710748FFF7B8FF012000F087
:100370007BFD4FF480710348FFF7AEFF012000F0D2
:1003800073FD10BD0004024070B500240CE0002590
:1003900006E00020074901EBC5010855681CC5B2FD
:1003A000802DF6DB601CC4B2082CF0DB00F0EEF808
:1003B00070BD0000841C002070B50B46CE1701EB09
:1003C0005676C6F3C702CE1701EB5676F610A1EBB0
:1003D000C606F4B20123A340DDB20E4B03EBC0030B
:1003E0009B5CDB430B4E06EBC006B354094B03EB9F
:1003F000C0039B5C2B43074E06EBC006B354054B72
:1004000003EBC0039B5CDB43024E06EBC006B35418
:1004100070BD0000841C002070B50A46CE1701EBA9
:100420005676C6F3C703CE1701EB5676F610A1EB4E
:10043000C606F4B20122A240D5B2054A02EBC002C0
:10044000D25C2A43024E06EBC006F25470BD000097
:10045000841C00201CB50121022000F0CFFA4FF4CB
:100460004070009001208DF8040000208DF80600F7
:1004700003208DF8050001208DF8070069463C48EF
:10048000FFF7E2FEC82000F0BFFD0021AE2000F023
:1004900098FA0021084600F094FA0021102000F09C
:1004A00090FA0021402000F08CFA0021812000F019
:1004B00088FA0021CF2000F084FA0021A12000F06A
:1004C00080FA0021C82000F07CFA0021A62000F06C
:1004D00078FA0021A82000F074FA00213F2000F0F3
:1004E00070FA0021D32000F06CFA0021084600F0D9
:1004F00068FA0021D52000F064FA0021802000F085
:1005000060FA0021D92000F05CFA0021F12000F00F
:1005100058FA0021DA2000F054FA0021122000F0ED
:1005200050FA0021DB2000F04CFA0021402000F0BE
:1005300048FA0021202000F044FA0021022000F0B7
:1005400040FA00218D2000F03CFA0021142000F038
:1005500038FA0021A42000F034FA0021A62000F08F
:1005600030FA0021AF2000F02CFAFFF70DFF1CBD80
:100570000004024010B50246012000E050430B0089
:10058000A1F10104E1B2F9D110BD000070B5002461
:100590001CE004F1B001C8B2002100F012FA002101
:1005A000084600F00EFA0021102000F00AFA00259B
:1005B00008E0084901EBC501085D012100F001FADE
:1005C000681CC5B2802DF4DB601CC4B2082CE0DBD3
:1005D00070BD0000841C002080468946002600274C
:1005E00049E03FB9102332461821802000F0C4F8BA
:1005F000701CC6B2464522D14FF0000A1AE0002412
:1006000010E000250AE01C4800EBC400415D601EBC
:10061000194A02EBC0004155681CC5B2082DF2DB37
:10062000601CC4B2902CECDBFFF7B0FF0AF10100B4
:1006300000F0FF0A4FEA09105045E0DC0026781C64
:10064000C7B2102F00D10027002410E000250AE0D7
:10065000094800EBC400415D601E074A02EBC00080
:100660004155681CC5B2082DF2DB601CC4B2902C49
:10067000ECDBFFF78BFFB4E7841C00202DE9FF4F74
:1006800081B080460E461C4600962046E31704EBD8
:100690005373DB1021464FEAE47C04EB5C7C4FEAA9
:1006A000EC0CA4EBCC0CBCF1000F02D04FF0010C11
:1006B00001E04FF0000C6344224604EBD27C4FEA89
:1006C0006C0C03FB0CF303F0FF0B03982038C7B24C
:1006D000002547E00C2C07D107EB4700234901EB2D
:1006E000800010F805A014E0102C05D1204800EB84
:1006F000071010F805A00CE0182C07D107EBC70075
:100700001C4901EB800010F805A002E005B0BDE82F
:10071000F08F4FF000091FE00AF0800020B1314651
:100720004046FFF779FE03E031464046FFF744FEBE
:100730004FEA4A604FEA106A701CC6B20098301A3D
:10074000A04205D1009E08F1010000F0FF0806E07C
:1007500009F1010000F0FF09B9F1080FDCDB00BF6F
:10076000681CC5B25D45B5DB00BFCFE77C10000853
:10077000F0140008E01A00082DE9FF4F07468846EC
:1007800091461C464FF0000B0297CDF8048020469E
:10079000E11704EB5171C1F3C701009160E009FB5F
:1007A00004F0C11700EB51710BEBE101CEB20BF17C
:1007B000010000F0FF0B002550E0102C05D12C4863
:1007C00000EB0610405D03901BE0182C07D106EBF0
:1007D000C600284901EBC000405D039011E0202CC9
:1007E00005D1254800EBC610405D039009E0402C80
:1007F00005D1224800EB4620405D039001E0BDE8B2
:10080000FF8F4FF0000A17E0039800F0010020B1BD
:1008100041463846FFF700FE03E041463846FFF701
:10082000CBFD03984010039008F1010000F0FF0891
:100830000AF1010000F0FF0ABAF1080FE4DB781CAE
:10084000C7B20298381AA04204D1029F019808301A
:10085000C0B20190DDF80480681CC5B2A542ACDBD3
:100860000098411EC9B20091002898D100BFC6E788
:100870000C0800206C090020440A0020440C0020D1
:100880002DE9F04F06468A4691461F46099C0025F1
:100890002CE0781B401EC1B20A20FFF76BFEB9FBAB
:1008A000F0F00A21B0FBF1F201FB1208B8F1000FE1
:1008B0000CD1A34604EBDB71491001FB0561C8B202
:1008C000234630225146FFF7D9FE0DE0A34604EB44
:1008D000DB71491001FB0561C8B208F13001CAB2F1
:1008E00023465146FFF7CAFE681CC5B2BD42D0DBA5
:1008F000BDE8F08F2DE9F05F05460E461746984695
:10090000DDF828B04FF00009CA460024E11704EBD7
:100910005171C910A4EBC10101B901E0601CC4B25E
:10092000344614E02146284600F036F8AA460AE08C
:100930001BF80900012100F044F809F101090AF14E
:10094000010000F0FF0ABA45F2DB601CC4B2444566
:10095000E8DBBDE8F09FF0B506460F4614461D469D
:1009600013E022782B4639463046FFF787FE2846AB
:1009700005EBD07106EB6101CEB2C5F18000B0424B
:1009800002DA0026B81CC7B2641C2078202802DBDB
:1009900020787E28E5DDF0BD70B504460D4605F1F2
:1009A000B001C8B2002100F00CF8102141EA141087
:1009B000002100F006F804F00F00002100F001F81B
:1009C00070BD70B505460C46FFF78AFC782000F034
:1009D00069F8FFF7C5FC1CB1402000F063F802E0A5
:1009E000002000F05FF8FFF7BBFC284600F05AF843
:1009F000FFF7B6FCFFF798FC70BD000029B1064A6E
:100A000012680243044B1A6004E0034A12688243EE
:100A1000014B1A60704700003038024010B54FF4A7
:100A2000805000F01FF8012804D105490860000338
:100A300000F008F84FF40030FFF700FC10BD000094
:100A4000A0824242002101098AB242F08002044B96
:100A50001B6803F0800363EA0202014B1A607047CF
:100A60000C28004030B501460020002200230C4C29
:100A7000246804F004020A4C383C24680C4002EA62
:100A8000D13544EA0503064C343C246804EA1112CB
:100A90001BB194B20CB1012000E0002030BD000079
:100AA0004028004070B5044600252FE04FF48071C7
:100AB0001848FFF711FC012000F0D6F904F080007F
:100AC00040B14FF400711348FFF708FC012000F01B
:100AD000CBF907E04FF400710E48FFF7FDFB012052
:100AE00000F0C2F94FF480710A48FFF7F7FB0120CC
:100AF00000F0BAF94FF480710648FFF7EDFB0120D2
:100B000000F0B2F96006040E681CC5B2082DCDDBFA
:100B100070BD0000000402400CB500200190009060
:100B20003448006840F480303249086000BF3148E2
:100B3000006800F4003000900198401C019000987B
:100B400018B90198B0F5A04FF1D12A48006800F417
:100B5000003010B10120009001E0002000900098CA
:100B6000012846D123484030006840F08050214998
:100B7000403108602048006840F440401E49086049
:100B80001C48083000681B490831086008460068A6
:100B900040F4004008600846006840F4A050086037
:100BA0001648091F0860081F006840F08070091F80
:100BB000086000BF0F48006800F000700028F9D0FE
:100BC00040F205700E4908600A480830006820F0BD
:100BD00003000849083108600846006840F0020038
:100BE000086000BF03480830006800F00C000828C7
:100BF000F8D10CBD00380240007000400854400796
:100C0000003C0240042808D14FF0E021096941F07E
:100C100004014FF0E022116107E04FF0E021096983
:100C200021F004014FF0E0221161704710B5154822
:100C3000006840F47000134908601348006840F0F1
:100C400001001149086000200F49083108600E4872
:100C500000680E4908400C4908600D48091D0860ED
:100C6000081F006820F48020091F08600020064942
:100C70000C310860FFF750FF4FF0006001498039E8
:100C8000086010BD88ED00E000380240FFFFF6FE6E
:100C90001030002410B50121084800F058F8012850
:100CA0000AD10748006880F001000649C1F8A40293
:100CB0000121024800F048F810BD0000000001408A
:100CC000A48242420080424210B50121880700F010
:100CD0003EF8012803D10121800700F035F810BD4E
:100CE00010B50121084800F032F801280AD1074860
:100CF000006880F001000649C1F8B40201210248F1
:100D000000F022F810BD000000040040B40242428E
:100D10000000424210B50121084800F018F80128EF
:100D20000AD10748006880F001000649C1F8B802FE
:100D30000121024800F008F810BD00000004014045
:100D4000B802424200004242CA430282704730B5B4
:100D50000246002000230024158A05EA0103958934
:100D600005EA010413B10CB1012000E0002030BD00
:100D700010B540F22551094800F051F801280BD177
:100D800040F22551054800F03BF8044800F054F8C3
:100D9000C4B2204600F062F910BD0000001001400E
:100DA00010B540F22551124800F039F801281DD144
:100DB00040F225510E4800F023F80D4800F03CF8B1
:100DC000C1B20C480468601C0A4A10600A48015508
:100DD00010460068401E0849085C0A2803D01046E7
:100DE0000068402802D301200449086010BD0000BB
:100DF0000048004004080020441C0020080800208F
:100E000010B50022002340F66A14A14200D100BFB1
:100E10000A1201249440A3B2DC43048010BD0246B0
:100E20000020B1F5007F00D100BF13880B400BB14B
:100E3000012000E00020704701468888C0F30800C8
:100E40007047C1F308028280704702E008C8121F91
:100E500008C1002AFAD170477047002001E001C1A3
:100E6000121F002AFBD1704700BF0100A0F1010052
:100E7000FBD1704708B5002400F0EAF8FFF7EAFA62
:100E80002024A6E053480823802200210090084631
:100E9000FFF730FD4FF4FA7000F0B6F8FFF774FA80
:100EA0001023002211461046FFF766FC1023012292
:100EB00000211220FFF760FC1023022200212420D1
:100EC000FFF75AFC1023032200213620FFF754FCC1
:100ED0001023042200214820FFF74EFC1023052296
:100EE00000215A20FFF748FC1023062200216C2025
:100EF000FFF742FC102338A219460820FFF72BFD0C
:100F0000102339A220211420FFF725FD102339A238
:100F100030210020FFF71FFD102338A230213F2091
:100F2000FFF719FD1023224630210846FFF7A6FBE4
:100F3000601CC4B27E2C00DD202410200323224636
:100F4000302100906720FFF79BFCFFF71FFB4FF459
:100F5000FA7000F059F8FFF717FA10230022114633
:100F60001046FFF709FC1823002211461020FFF756
:100F700003FC2023002214211820FFF7FDFB40234F
:100F8000002211461846FFF7F7FBFFF7FFFA4FF470
:100F9000FA7000F039F8FFF7F7F90C2319A20021D5
:100FA0000846FFF7D8FC102316A20C210020FFF7FB
:100FB000D2FC182313A21C210020FFF7CCFCFFF762
:100FC000E5FA4FF4FA7000F01FF804210B20FFF748
:100FD00003FB57E7000000205A484F4E474A494E4E
:100FE000475955414E000000323031342F30352FF3
:100FF0003031000041534349493A0000434F4445D2
:101000003A0000004142430040F21E31884200D9BC
:10101000084645F208214143491E4FF0E022516144
:10102000002191611146096941F00101116100BF80
:101030004FF0E021096901F480310029F8D04FF028
:10104000E021096921F001014FF0E02211617047B0
:1010500010B56FF00400FFF7D5FD10BD10B50446C4
:1010600000BF80210448FFF7DAFE0128F9D12146AC
:101070000148FFF7E6FE10BD0048004000000000F8
:101080000000000000000000000000003F400000E1
:101090000000000000003000400030004000000070
:1010A00009000BC03D000BC03D00090018C02440E2
:1010B0007FE0224031800000180024C01B000D801A
:1010C0003240018003801C4027401C8007400040C4
:1010D00010006000000000000000000000000000A0
:1010E00000001F80204040200000402020401F8042
:1010F00000000000090006001F8006000900000033
:10110000040004003F8004000400000000100060A0
:1011100000000000000000000400040004000400BF
:10112000040000000000004000000000000000007B
:10113000002001C006003800400000001F80204051
:10114000204020401F800000000010403FC00040B1
:101150000000000018C02140224024401840000038
:1011600010802040244024401B80000002000D001D
:1011700011003FC0014000003C8024402440244036
:10118000238000001F80244024403440038000005E
:101190003000200027C03800200000001B802440C1
:1011A000244024401B8000001C0022C0224022401A
:1011B0001F80000000000000084000000000000048
:1011C00000000000046000000000000000000400B7
:1011D0000A001100208040400900090009000900B0
:1011E0000900000000004040208011000A000400B7
:1011F0001800200023402400180000001F80204019
:10120000274029401F400000004007C039000F0060
:1012100001C0004020403FC0244024401B8000000B
:101220001F802040204020403080000020403FC0F0
:10123000204020401F80000020403FC024402E401E
:1012400030C0000020403FC024402E00300000008D
:101250000F001080204022403380020020403FC019
:10126000040004003FC02040204020403FC02040F8
:10127000204000000060202020203FC020002000EF
:1012800020403FC024400B0030C0204020403FC0E1
:1012900020400040004000C03FC03C0003C03C0074
:1012A0003FC0000020403FC00C4023003FC0200052
:1012B0001F802040204020401F80000020403FC071
:1012C00024402400180000001F802140214020E01D
:1012D0001FA0000020403FC02440260019C000404D
:1012E00018C02440244022403180000030002040BB
:1012F0003FC020403000000020003F800040004000
:101300003F80200020003E0001C007003800200080
:10131000380007C03C0007C038000000204039C03A
:10132000060039C0204000002000384007C0384087
:1013300020000000304021C02640384020C000007E
:10134000000000007FE0402040200000000070000E
:101350000C000380004000000000402040207FE09F
:1013600000000000000020004000200000000000FD
:10137000001000100010001000100010000000000D
:101380004000000000000000000002800540054011
:1013900003C0004020003FC0044004400380000020
:1013A0000000038004400440064000000000038069
:1013B000044024403FC00040000003800540054039
:1013C00003400000000004401FC0244024402000CF
:1013D000000002E0055005500650042020403FC0A8
:1013E0000440040003C000400000044027C0004047
:1013F0000000000000100010041027E000000000B2
:1014000020403FC00140070004C00440204020406D
:101410003FC000400040000007C0040007C00400B7
:1014200003C00000044007C00440040003C00040A3
:10143000000003800440044003800000041007F013
:101440000450044003800000000003800440045066
:1014500007F00010044007C0024004000400000030
:10146000000006400540054004C0000000000400E4
:101470001F8004400040000004000780004004403A
:1014800007C000400400070004C0018006000400FB
:10149000060001C0070001C006000000044006C0AD
:1014A000010006C0044000000410071004E00180A1
:1014B000060004000000044005C00640044000008F
:1014C0000000000004007BE040200000000000005D
:1014D0000000FFF000000000000040207BE004005E
:1014E000000000004000800040002000200040007C
:1014F00000000000000000000000000000000000EC
:101500000000000000001FCC000C000000000000E4
:10151000000008003000600008003000600000009B
:10152000022003FC1E20022003FC1E2002200000DB
:1015300000000E1811043FFF10840C78000000001A
:101540000F0010840F3800C007781884007800005E
:1015500000780F8410C411240E9800E40084000861
:10156000080068007000000000000000000000009B
:1015700000000000000007E01818200440020000EE
:10158000000040022004181807E0000000000000DE
:101590000240024001800FF0018002400240000042
:1015A0000080008000800FF8008000800080000034
:1015B0000001000D000E000000000000000000000F
:1015C000000000800080008000800080008000809B
:1015D0000000000C000C00000000000000000000F3
:1015E00000000006001800600180060018002000BE
:1015F000000007F0080810041004080807F00000B5
:101600000000080408041FFC00040004000000009F
:1016100000000E0C10141024104411840E0C000055
:1016200000000C1810041104110412880C70000042
:10163000000000E00320042408241FFC0024000014
:1016400000001F981084110411041088107000000D
:10165000000007F0088811041104188800700000C9
:1016600000001C00100010FC13001C001000000003
:1016700000000E3811441084108411440E3800000C
:1016800000000700088C10441044088807F0000090
:10169000000000000000030C030C0000000000002C
:1016A0000000000000010106000000000000000032
:1016B000000000800140022004100808100400000F
:1016C000022002200220022002200220022000002C
:1016D00000001004080804100220014000800000EF
:1016E00000000E001200100C106C10800F000000A3
:1016F00003E00C1813E4142417C4082807D00000D2
:101700000004003C03C41C40074000E4001C00042B
:1017100010041FFC1104110411040E880070000055
:1017200003E00C1810041004100410081C10000032
:1017300010041FFC100410041004080807F0000037
:1017400010041FFC1104110417C410040818000031
:1017500010041FFC1104110017C010000800000045
:1017600003E00C181004100410441C780040000022
:1017700010041FFC10840080008010841FFC1004E3
:101780000000100410041FFC1004100400000000EE
:1017900000030001100110011FFE100010000000E6
:1017A00010041FFC110403801464181C10040000B2
:1017B00010041FFC1004000400040004000C0000CE
:1017C00010041FFC1F0000FC1F001FFC1004000081
:1017D00010041FFC0C04030000E010181FFC100094
:1017E00007F00808100410041004080807F00000AF
:1017F00010041FFC10841080108010800F00000067
:1018000007F0081810241024101C080A07F2000022
:1018100010041FFC1104110011C011300E0C000443
:1018200000000E1C11041084108410441C380000A9
:101830001800100010041FFC100410001800000015
:1018400010001FF810040004000410041FF810001A
:1018500010001E0011E0001C007013801C0010001E
:101860001FC0103C00E01F0000E0103C1FC0000043
:101870001004180C163401C001C01634180C1004E2
:1018800010001C00130400FC13041C0010000000D6
:101890000804101C1064108413041C0410180000A9
:1018A0000000000000007FFE4002400240020000F5
:1018B000000030000C0003800060001C00030000EA
:1018C00000004002400240027FFE000000000000D5
:1018D0000000000020004000400040002000000008
:1018E00000010001000100010001000100010001F0
:1018F0000000400040002000000000000000000048
:1019000000000098012401440144014400FC00044B
:1019100010001FFC00880104010400880070000012
:101920000000007000880104010401040088000028
:101930000000007000880104010411081FFC00046D
:10194000000000F8014401440144014400C80000C3
:101950000000010401040FFC11041104110018001F
:10196000000000D601290129012901C90106000052
:1019700010041FFC008401000100010400FC0004AD
:1019800000000104190419FC000400040000000018
:101990000000000300010101190119FE0000000010
:1019A00010041FFC0024004001B4010C01040000DD
:1019B0000000100410041FFC0004000400000000DC
:1019C000010401FC0104010001FC0104010000FC10
:1019D000010401FC008401000100010400FC00047A
:1019E000000000F8010401040104010400F80000F3
:1019F000010101FF0085010401040088007000005E
:101A000000000070008801040104010501FF0001CD
:101A10000104010401FC00840104010001800000B4
:101A2000000000CC012401240124012401980000BD
:101A300000000100010007F801040104000000009B
:101A4000010001F8000400040004010801FC000486
:101A5000010001800170000C001001600180010094
:101A600001F0010C003001C00030010C01F0010058
:101A700000000104018C00740170018C010400005D
:101A8000010101810171000E001801600180010057
:101A900000000184010C013401440184010C0000A8
:101AA000000000000000000001003EFC4002400277
:101AB0000000000000000000FFFF00000000000028
:101AC0000000400240023EFC010000000000000057
:101AD00000006000800080004000400020002000E6
:101AE00000000000000000000000000000000000F6
:101AF00000000000000000000000000000000000E6
:101B000000000000000000000000000000000000D5
:101B10000000000F80380FFE380F803800000000F2
:101B200000000000000000000000000000000100B4
:101B3000000600000C000038000031000006000024
:101B40000C00003800003000000000000000000021
:101B500061800067F807F9800061800061800061A2
:101B6000800061800067F807F98000618000000054
:101B700000000000000001C0E003E0F006300804AF
:101B800018081FFFFE040E080787F00381E000001D
:101B90000000000001F000060C00040408060C70B0
:101BA00001F9C0000E00003BE000EC180708080433
:101BB0000C180003E00000000001E00007F003F84B
:101BC00018041C0804170807E1D003C0E00023B084
:101BD000003C080020080000100000000000000188
:101BE00000003100003200001C0000000000000076
:101BF00000000000000000000000000000000000E5
:101C000000000000000000000000000000000000D4
:101C10007F0001FFC00780F00C00181000042000B6
:101C2000020000000000002000021000040C001858
:101C30000780F001FFC0007F0000000000000000EE
:101C400000000000000000000000000042000066EC
:101C500000006600003C0000180003FFC0001800F0
:101C6000003C00006600006600004200000000002A
:101C7000080000080000080000080000080001FF3C
:101C8000C00008000008000008000008000008006C
:101C900000000000000100003100003200001C00C4
:101CA0000000000000000000000000000000000034
:101CB000000000000000000008000008000008000C
:101CC00000080000080000080000080000080000EC
:101CD00008000008000000000000000000000000F4
:101CE000380000380000380000000000000000004C
:101CF00000000000000000000000000000000000E4
:101D0000000600001C000070000180000E0000387A
:101D10000000C0000700001C0000300000000000B0
:101D2000000000007F8001FFE003807006001804BF
:101D3000000804000806001803807001FFE0007F1F
:101D40008000000000000000000001000801000801
:101D500001000803FFF807FFF80000080000080072
:101D6000000800000000000000000001C03802C0B0
:101D700058040098040118040218040418061C18DA
:101D800003F81801E0F80000000000000000000166
:101D9000C0E003C0F004000804080804080806189E
:101DA0000803F41801E7F00001E000000000000063
:101DB000000000000300000D0000110000610000A1
:101DC000810803010807FFF80FFFF8000108000170
:101DD000080000000000000000E007FCD006080832
:101DE000061008061008061008061838060FF00638
:101DF00007C0000000000000000000003F8001FF5D
:101E0000E0038430020818041008041008041008C5
:101E1000071810030FF00007C000000000000000CA
:101E2000000003C0000700000600000600F80607D7
:101E3000F806180006E00007000006000000000099
:101E400000000001E1E003F7F00634100418080474
:101E50001808040C08040C0806161803F3F001C156
:101E6000E000000000000000F80003FC300306382A
:101E70000402080402080402080404100308F00124
:101E8000FFC0007F00000000000000000000000014
:101E9000000000000000000070380070380070384A
:101EA0000000000000000000000000000000000032
:101EB000000000000000000000000000301A0030A8
:101EC0001C000000000000000000000000000000F6
:101ED00000000000000000080000140000220000C4
:101EE0004100008080010040020020040010080032
:101EF0000800000000000000210000210000210077
:101F0000002100002100002100002100002100002C
:101F10002100002100000000000000000000080077
:101F200008040010020020010040008080004100F1
:101F30000022000014000008000000000000000360
:101F4000C00004C000040000080038080F3808086A
:101F5000380810000C300007E00003C0000000004B
:101F6000000000003F8000FFE0038070020F1006B9
:101F7000708804C088048308047F8802C09003012D
:101F80002000FE400000080000180001F8003E0894
:101F900001C20007020007E20000FE00001FC800A7
:101FA00001F800003800000804000807FFF807FFE8
:101FB000F8040808040808040808040808061808B3
:101FC00003F41801E7F00001E00000000000000049
:101FD0003F8001FFE0038070020018040008040045
:101FE000080400080400100600200780C00000005C
:101FF00004000807FFF807FFF804000804000804BD
:10200000000804001802001003807001FFE0007F48
:102010008000000004000807FFF807FFF804080824
:10202000040808040808040808043E080400080618
:10203000001801006000000004000807FFF807FF17
:10204000F8040808040800040800040800043E001E
:1020500006000006000001800000000000000000F3
:102060003F8001FFE00380700600180400080402AE
:10207000080402080203F00783F0000200000200D7
:1020800004000807FFF807FFF8040808000800002C
:10209000080000080000080004080807FFF807FF10
:1020A000F804000800000000000004000804000814
:1020B00004000807FFF807FFF804000804000804FC
:1020C0000008000000000000000000000006000002
:1020D0000700000104000104000104000307FFFEE3
:1020E00007FFFC04000004000004000004000807CF
:1020F000FFF807FFF8040C08001800003E0004C7B2
:10210000800503C80600F804003804001800000821
:1021100004000807FFF807FFF804000800000800A3
:102120000008000008000008000008000018000077
:102130006000000004000807FFF807800807FC00A3
:10214000007FC00003F80007C00078000780080780
:10215000FFF807FFF804000804000807FFF807006D
:102160000803C00000E000003800001E0000070067
:102170000001C00400F007FFF804000000000000A8
:102180007F8001FFE003807006001804000804004F
:102190000806001803003001FFE0007F8000000007
:1021A00004000807FFF807FFF8040408040400040B
:1021B0000400040400040400060C0003F80001F00D
:1021C00000000000000000007F8001FFE00380703D
:1021D0000600880400880400C806003C03003E0195
:1021E000FFE6007F8400000004000807FFF807FFF7
:1021F000F8040808040800040C00040F00040BC0D5
:102200000610F003F03801E00800000800000001AB
:10221000E0F803F030063010041808041808040C25
:1022200008040C080206180207F00781E00000000D
:1022300001800006000004000004000004000807FC
:10224000FFF807FFF804000804000004000006007F
:102250000001800004000007FFE007FFF004001801
:102260000000080000080000080000080000080442
:10227000001007FFE004000004000006000007E073
:102280000007FE00041FE00001F80000380001E034
:10229000043E0007C0000600000400000400000720
:1022A000E00007FFC0041FF80007C007F80007FFA1
:1022B00080043FF80007C004F80007000004000095
:1022C00000000004000806001807C07805F1C800E7
:1022D0003E00001F800463E80780F8060018040031
:1022E0000800000004000006000007800007E00866
:1022F000047C08001FF80007F800180804E008072D
:1023000000000600000400000000000100080600B4
:10231000380400F80403E8040F08047C0805F008FA
:1023200007C008070018040060000000000000005B
:1023300000000000000000000000003FFFFE200041
:102340000220000220000220000220000200000003
:1023500000000000000008000007000000C00000AE
:1023600038000006000001C000003000000E000030
:102370000100000000000000000020000220000218
:102380002000022000022000023FFFFE00000000AB
:10239000000000000000000000000000000000003D
:1023A0000008000010000030000020000030000095
:1023B0001000000800000000000000000000010004
:1023C0000001000001000001000001000001000008
:1023D00001000001000001000001000001000001F7
:1023E000000000000000000000200000200000109D
:1023F00000001000000000000000000000000000CD
:10240000000000000000000000F00019F8001B1898
:10241000002208002608002408002410003FF800CD
:102420001FF800000800001800000004000007FF6B
:10243000F80FFFF00018180010080020080020080E
:10244000003018001FF0000FC00000000000000066
:1024500007C0001FF00018300020080020080020EE
:1024600008003C08001C1000006000000000000094
:102470000000000007C0001FF0003818002008000E
:10248000200800200804101007FFF80FFFF00000DC
:10249000100000000000000000000007C0001FF056
:1024A0000012300022180022080022080032080022
:1024B0001E10000E20000000000000002000002080
:1024C0000800200801FFF803FFF806200804200890
:1024D00004200807200003000000000000000000A6
:1024E000000E000E6E001FF30031B10020B100207D
:1024F000B1003191001F13002E1E00200E0030008D
:1025000000000004000807FFF80FFFF800100800A3
:102510002000002000002008003FF8001FF8000005
:102520000800000000000000000000200800200853
:10253000002008063FF8063FF800000800000800E9
:102540000008000000000000000000000000000083
:1025500003000003002001002001002003063FFECD
:10256000063FFC0000000000000000000000000426
:10257000000807FFF80FFFF8000188000300002F94
:10258000C00038F8002038002008000008000000D3
:102590000000000000000400080400080400080710
:1025A000FFF80FFFF8000008000008000008000016
:1025B00000000000002008003FF8003FF80010086D
:1025C000002000003FF8003FF80010080020000045
:1025D0003FF8003FF8000008000000002008003F1E
:1025E000F8003FF80010080010000020000020084C
:1025F000003FF8001FF80000080000000000000085
:1026000007C0000FF000183000300800200800203C
:1026100008003008001830000FF00007C00000006C
:10262000000000002001003FFF003FFF00101100EC
:102630002009002008002008003038001FF0000F9B
:10264000C00000000000000007C0001FF0003818A4
:10265000002008002008002009001011001FFF00C2
:102660003FFF0000010000000020080020080020BB
:1026700008003FF8003FF800080800100800200894
:1026800000200000300000300000000000000000CA
:102690000000000C78001E180033080023080021F9
:1026A000080021880021980030F000386000000008
:1026B00000000000200000200000200000FFF003C8
:1026C000FFF800200800200800200800003000006B
:1026D00000000000000000002000003FF0007FF834
:1026E000000018000008000008002010003FF8005B
:1026F0007FF000001000000000000000200000300B
:1027000000003C00003F800023F0000078000070D3
:10271000002380003C00003000002000002000006A
:102720003C00003FE00023F80000E0002700003EEE
:1027300000003FE00021F80001E0003E0000200022
:10274000000000002008002008003838003E680023
:1027500027800003C8002CF800383800201800201B
:1027600008000000000000002000003003003C01D1
:10277000003F830023EC000070002380003C000039
:1027800020000020000000000000000000000038D1
:10279000080020380020F80023E8002F88003E08B9
:1027A0000038080020180000700000000000000041
:1027B00000000000000000000000000008000014FD
:1027C000001FF7FC3000062000020000000000009F
:1027D00000000000000000000000000000000000F9
:1027E0000000FFFFFF0000000000000000000000EC
:1027F0000000000000000000000020000230000681
:102800001FF7FC001400000800000000000000009A
:102810000000000000000000000000180000600040
:1028200000400000400000200000100000080000F0
:102830000400000400000C00001000005C280008E8
:1028400000000020441C0000E40100082C2C0008BB
:10285000441C0020C40800005A0E000811100A038E
:10286000050911FF118905C312E012F072F8073D46
:102870004428FF11AA44700B830138448292927459
:10288000018328087C44FF017D7D7D044905647D2A
:1028900001FF9A0102818A010B013669419949FAC7
:1028A0000101011D38083F3F0303F31311011E010D
:1028B000F1116181312D816111F1393B4141072CC9
:1028C00001C1211EAB21C114390139360738D33378
:1028D00003033F3F23E0E06A7FA81A7FBF4C06183E
:1028E000060A213640407F40401C1F204001AB209B
:1028F0001F14113A600E6C300C034601361C07079A
:10290000060178090404048444444484071C0484B4
:10291000C405790E09110A791129400341070726D8
:1029200010181412112E0F1010100F0F331F102635
:10293000081012120D22186B0D120A59295907019D
:10294000605A8001013D20087F030C300C037F2575
:1029500038545458257C04047805223C40407C17A8
:10296000FFAAAAAA28080A2CFF681E26494949324C
:10297000101D020408100F100A03050911FF118928
:1029800005C312E012F072F8073D4428FF11AA4473
:10299000700B830138448292927401831E7C44FF41
:1029A000017D01990559BB9A0102818A010B01360B
:1029B00069419949FA010101204BF808011135F8E4
:1029C00018608035806018F82B202006312BE0102D
:1029D0001EAB10E014613937043E8868186A7FA77F
:1029E0001A7FBE4C0618060A114640407F40401C24
:1029F0001F204001AB201F141162603A602F014478
:102A00001E40202020C0ED190729EA2A4005115A4E
:102A1000600E8918792959070149260C0A0A090C00
:102A2000360F0808080F2C080F08151D0809090E95
:102A30000719181C09090918190A592959070160A9
:102A40005A8001013D20087F030C300C037F25389C
:102A5000545458257C04047805223C40407C17FFE0
:102A6000AAAAAA28080A2CFF681E2649494932103A
:102A70001D020408100FD11BF010012AFF0552F0AF
:102A80001B0F04012AFF05320F18094040405F5513
:102A9000555575041A5F0C1911180C200F09498936
:102AA000790909090F200F112FFE02424ACA4A0371
:102AB0002C4202FEA1380C40504C4340404F505035
:102AC0005C40A61BF888012AFF0552F81B1F08016D
:102AD0002A7F10149F80F03B8082016009E2A2925D
:102AE0008A868280807B4080A5172424A4FEA322AE
:102AF0001B22CC5A4115080601FF2A019E1604FF2D
:102B000002020239BC5B9008631208101004448270
:102B10007F01808040432C102846818019281E8424
:102B2000E43C2724011AE40C11140402011AFFBD2D
:102B300019C4496415FE225A862BFE920129BF1141
:102B40001DFF040807C51F20030C142241E1178054
:102B500040201806802D071820409E1201100B20DF
:102B60007028262120202438602301013B10123CCC
:102B70003D9212120240211A3F948B103FC54BC068
:102B800080014BFC84080336C0C03CFF7F40014AF3
:102B9000FF075B40FF600138034A7F700373FCF856
:102BA0006CFFFE02018BFFFF0B0268036C1F1F040A
:102BB000017BFFFF0B02741F038C7F3F07FFF8F8B8
:102BC000F0F0702001E60214801AFF0109122C09AE
:102BD000132D01FF01C0EDFFFFFE06011AFF01F9F1
:102BE00015391603FF070201D10C12FFFFFF14096C
:102BF000101509151601FF01C1EDFFFFFF1801199E
:102C000014091015391601FF01D204120201011A2C
:102C1000FF01011209122A01FF01D71AFF0101FF6A
:0C2C200001FD05FF1F1F0F0F01E0000069
:040000050800018965
:00000001FF
