:020000040800F2
:10000000600400209D010008A5010008A701000868
:10001000A9010008AB010008AD01000800000000C4
:10002000000000000000000000000000AF01000818
:10003000B101000800000000B3010008B50100088C
:10004000B7010008B7010008B7010008B7010008B0
:10005000B7010008B7010008B7010008B7010008A0
:10006000B7010008B7010008B7010008B701000890
:10007000B7010008B7010008B7010008B701000880
:10008000B7010008B7010008B7010008B701000870
:10009000B7010008B7010008B7010008B701000860
:1000A000B7010008FD060008B7010008B701000805
:1000B0003107000849070008B7010008B701000828
:1000C000B7010008B7010008B7010008B701000830
:1000D000B701000891080008B7010008C10800082E
:1000E000B7010008B7010008B7010008B701000810
:1000F0007D070008B7010008B7010008B701000834
:10010000B7010008B7010008B7010008B7010008EF
:10011000B7010008B7010008B7010008B7010008DF
:10012000B7010008B7010008B7010008B7010008CF
:10013000B7010008B7010008B7010008B7010008BF
:10014000B7010008B7010008B7010008B7010008AF
:10015000B7010008B7010008B7010008B70100089F
:10016000B7010008B7010008B7010008B70100088F
:10017000B7010008B7010008B7010008B70100087F
:10018000B7010008B7010008DFF80CD000F052F802
:1001900000480047A9100008600400200648804776
:1001A00006480047FEE7FEE7FEE7FEE7FEE7FEE75C
:1001B000FEE7FEE7FEE7FEE7950600088901000876
:1001C000D2B201E000F8012B491EFBD27047002299
:1001D000F6E710B513460A4604461946FFF7F0FF46
:1001E000204610BD30B505462A460B4612F8010BD5
:1001F00013F8014B08B1A042F8D01CB1002802D07E
:100200006D1CF1E7284630BD30B50B460146002095
:100210002022012409E021FA02F59D4205D303FAC8
:1002200002F5491B04FA02F52844151EA2F1010249
:10023000F1DC30BD064C074D06E0E06840F00103FC
:1002400094E8070098471034AC42F6D3FFF7A0FFBC
:1002500090160008B016000810B50024012000F028
:1002600017FE002017490860142000F053FD0120FC
:100270001549C1F8A4021E2000F082FD002000F004
:1002800007FE03E0641C012000F07AFD0D48803871
:10029000006808B1642CF5D3642C01D3012010BD93
:1002A000002403E0641C012000F06AFD054880384A
:1002B000006808B9642CF5D3642C01D30120EEE763
:1002C0000020ECE7A402434200004342F0B50A4696
:1002D00000210023002400BF3DE0012505FA01F3C1
:1002E000156805EA03049C4234D105684F000326D3
:1002F000BE40B543056015794E00B54006683543EC
:1003000005601579012D02D01579022D16D1856869
:100310004F000326BE40B543856055794E00B54079
:10032000866835438560456801268E40B543456043
:10033000456896798E40B6B235434560C5684F0032
:100340000326BE40B543C560D5794E00B540C668AA
:100350003543C560491C1029BFD3F0BDF0B500235B
:1003600000244D07ED0E02FA05F3CE1000F1200532
:1003700055F826504E07F70E0F26BE40B543CF1056
:1003800000F1200646F82750CE1000F1200555F860
:10039000265045EA0304CE1000F1200545F826401A
:1003A000F0BD4183704701837047000070B50021A4
:1003B00000230F22C4781CB3174C246804F4E064B3
:1003C000C4F5E064C4F30721C1F10404E3B20A41B7
:1003D00044789C40E1B28478144021430C07210EFC
:1003E0000E4C05786155047804F01F050124AC40DB
:1003F00005786D11AD0005F1E025C5F8004109E073
:10040000047804F01F050124AC40054D06787611F0
:1004100045F8264070BD00000CED00E000E400E06F
:1004200080E100E002490143024A11607047000088
:100430000000FA050CED00E029B1064A12680243FB
:10044000044B1A6004E0034A12688243014B1A60AD
:10045000704700003038024029B1064A1268024352
:10046000044B1A6004E0034A12688243014B1A608D
:10047000704700004038024029B1064A1268024322
:10048000044B1A6004E0034A12688243014B1A606D
:100490007047000044380240F0B5002100220024DB
:1004A000022500260223324F3F6807F00C0121B1DC
:1004B000042905D0082937D105E02E4F076036E022
:1004C0002D4F076033E02A4F3F1F3F68C7F3805628
:1004D000274F3F1F3F6807F03F036EB1264FB7FB22
:1004E000F3F7DFF88CC0ACF1040CDCF800C0CCF3FF
:1004F000881C07FB0CF40CE01E4FB7FBF3F7DFF88A
:1005000070C0ACF1040CDCF800C0CCF3881C07FB15
:100510000CF4174F3F1F3F68C7F301477F1C7D0056
:10052000B4FBF5F7076002E0124F076000BF00BFA1
:100530000F4F3F6807F0F0010909104F7A5C076818
:10054000D74047600A4F3F6807F4E051890A0B4FD4
:100550007A5C4768D7408760054F3F6807F4604181
:10056000490B064F7A5C4768D740C760F0BD000072
:10057000083802400024F40000127A000C00002029
:100580000CB50020019000903448006840F48030A1
:100590003249086000BF3148006800F40030009024
:1005A0000198401C0190009818B90198B0F5A04F2F
:1005B000F1D12A48006800F4003010B10120009009
:1005C00001E0002000900098012846D123484030E7
:1005D000006840F0805021494031086020480068A0
:1005E00040F440401E4908601C48083000681B4920
:1005F000083108600846006840F40040086008467A
:10060000006840F4A05008601648091F0860081FE1
:10061000006840F08070091F086000BF0F48006844
:1006200000F000700028F9D040F205700E49086013
:100630000A480830006820F00300084908310860C3
:100640000846006840F00200086000BF0348083018
:10065000006800F00C000828F8D10CBD00380240FA
:100660000070004008544007003C0240042808D1B4
:100670004FF0E021096941F004014FF0E0221161DF
:1006800007E04FF0E021096921F004014FF0E0227A
:100690001161704710B51548006840F470001349A7
:1006A00008601348006840F001001149086000200C
:1006B0000F49083108600E4800680E4908400C498F
:1006C00008600D48091D0860081F006820F480209C
:1006D000091F0860002006490C310860FFF750FF31
:1006E0004FF0006001498039086010BD88ED00E0DE
:1006F00000380240FFFFF6FE1030002410B5012143
:10070000084800F067F801280AD10748006880F01F
:1007100001000649C1F8A4020121024800F048F88E
:1007200010BD000000000140A4824242008042420D
:1007300010B50121880700F04DF8012803D10121EF
:10074000800700F035F810BD10B50121084800F011
:1007500041F801280AD10748006880F001000649E5
:10076000C1F8B4020121024800F022F810BD0000D7
:1007700000040040B40242420000424210B5012190
:10078000084800F027F801280AD10748006880F0DF
:1007900001000649C1F8B8020121024800F008F83A
:1007A00010BD000000040140B80242420000424275
:1007B000CA430282704721B1028842F001020280DE
:1007C00004E002884FF6FE731A400280704701462B
:1007D000486A704730B50246002000230024158A7D
:1007E00005EA0103958905EA010413B10CB1012062
:1007F00000E0002030BD1AB183890B43838102E001
:1008000083898B438381704741627047002202884D
:10081000184B98420ED0184B98420BD0B0F1804F35
:1008200008D0164B984205D0154B984202D0154B74
:10083000984204D14FF68F731A404B881A43124BDB
:10084000984207D0114B984204D04FF6FF431A400C
:100850000B891A4302804B68C3620B880385054BE2
:10086000984202D0044B984201D18B7A038601232F
:1008700083827047000001400004014000040040F2
:1008800000080040000C0040001000400014004030
:1008900010B540F22551094800F05DF801280BD150
:1008A00040F22551054800F03BF8044800F0F0F80C
:1008B000C4B2204600F0D0FE10BD00000010014080
:1008C00010B540F22551124800F045F801281DD11D
:1008D00040F225510E4800F023F80D4800F0D8F8FA
:1008E000C1B20C480468601C0A4A10600A480155ED
:1008F00010460068401E0849085C0A2803D01046CC
:100900000068402802D301200449086010BD00009F
:1009100000480040040000201C00002008000020C7
:1009200010B50022002340F66A14A14200D100BF96
:100930000A1201249440A3B2DC43048010BD21B10B
:10094000828942F40052828104E082894DF6FF736D
:100950001A408281704702460020B1F5007F00D125
:1009600000BF13880B400BB1012000E0002070474E
:10097000F0B50346002400260025002040F66A1743
:10098000B94200D100BF1846C1F3421401F01F065E
:10099000012707FA06F5012C01D10C3004E0022CE6
:1009A00001D1103000E014301AB107682F430760FE
:1009B00002E00768AF430760F0BD00002DE9FF4784
:1009C00005460E460024A14600BFA046B08900B1EE
:1009D00000BF2C8A24F44054F08804432C82AC8954
:1009E00041F20C608443B08831890843718908431F
:1009F0000443AC81AC8A24F44074B0890443AC82D3
:100A00006846FFF749FD2048854202D01F488542CD
:100A100002D1DDF80C9001E0DDF80890A88900F41F
:100A2000004040B109EBC90000EB091031684900F2
:100A3000B0FBF1F707E009EBC90000EB09103168E2
:100A40008900B0FBF1F76420B7FBF0F00401200946
:100A5000642101FB1078A88900F4004040B13220E5
:100A600000EBC800B0FBF1F000F00700044308E021
:100A7000322000EB08106421B0FBF1F000F00F0011
:100A800004432C81BDE8FF870010014000140140A1
:100A900001468888C0F308007047C1F308028280CD
:100AA000704700000FB4054B10B503A9044A029823
:100AB00000F02CF810BC5DF814FB0000C90E000813
:100AC000000000200FB41CB50A46521ECDE90002FA
:100AD00007A9054B6A46069800F018F8009A00210D
:100AE00011701CBC5DF814FBC50C000802E008C8BE
:100AF000121F08C1002AFAD170477047002001E098
:100B000001C1121F002AFBD1704700002DE9FF4FE1
:100B10008BB09A460F460546002606E025280BD0E6
:100B200052460D9990476D1C761C28780028F5D107
:100B30000FB03046BDE8F08F0024A0460122604986
:100B400000E0044315F8013F203B02FA03F008429D
:100B5000F7D128782E2817D115F8010F44F0040496
:100B60002A280ED06FF02F022878A0F13001092931
:100B70000AD808EB880102EB410100EB01086D1C6B
:100B8000F2E757F8048B6D1C287869283ED006DC04
:100B90000028CDD063280BD0642804D136E0732818
:100BA00010D075284BD052460D999047761C85E0A1
:100BB00017F8040B8DF8000000208DF80100E946BD
:100BC000012003E057F8049B4FF0FF3061074FF01E
:100BD000000401D40AE0641C44450DDA8442FADBC7
:100BE00019F804100029F6D106E0641C8442FCDBED
:100BF00019F804100029F8D1264404E019F8010B73
:100C000052460D999047641EF8D257E001CF4FF03D
:100C10000A0B002802DA40422D2102E0210504D50A
:100C20002B218DF82410012103E0E10705D02021BC
:100C3000F7E70DF1200908910CE00021F9E701CF59
:100C40004FF00A0BF9E75946FFF7DEFA01F13002DF
:100C500009F8012D0028F6D1ADEB090000F1200BB9
:100C6000600701D44FF00108D84502DDA8EB0B0066
:100C700000E000208046002406E009A85246005DFE
:100C80000D999047641C761C08988442F5DB04E0BB
:100C9000302052460D999047761CB8F10001A8F11A
:100CA0000108F5DC05E019F8010B52460D99904753
:100CB000761CBBF10001ABF1010BF4DC6D1C34E7D9
:100CC000092801004A68002A06D00A68531C0B60F4
:100CD00010704868401E4860704700001CB5012134
:100CE0002020FFF7A9FB01208DF8040000208DF8DB
:100CF000060002208DF8050000208DF807004FF453
:100D00008070009069460248FFF7E0FA1CBD0000C1
:100D10000014024040F21E31884200D9084645F2D4
:100D200008214143491E4FF0E022516100219161A9
:100D30001146096941F00101116100BF4FF0E02146
:100D4000096901F480310029F8D04FF0E0210969E8
:100D500021F001014FF0E0221161704700B5034618
:100D600003B9012307E04FF4C870FFF7D3FF4FF436
:100D7000C870FFF7CFFF1800A3F10103F3D100BD46
:100D80001149884200D90846C0EBC00101EB41017E
:100D9000491E4FF0E022516100219161114609691D
:100DA00041F00101116100BF4FF0E021096901F438
:100DB00080310029F8D04FF0E021096921F00101CC
:100DC0004FF0E02211617047C3300C0010B50024D1
:100DD00003E0641C0120FFF7D3FF0F48006808B14F
:100DE000642CF6D3642C01D3642010BD002403E0EE
:100DF000641C0120FFF7C4FF0748006808B9642C91
:100E0000F6D3642C01D36420EFE72820FFF7B8FF66
:100E100001480068C0B2E8E72402434270B50025EB
:100E2000002408E0FFF7D2FFC4F1070188402843FF
:100E3000C5B2601CC4B2082CF4DB284670BD7CB57A
:100E400005460E46FFF708FA00BB002405E0FFF751
:100E5000E5FF0DF80400601CC4B2052CF7DB9DF81B
:100E600000009DF8011008449DF8021008449DF808
:100E7000031008449DF80410884207D19DF8020031
:100E800028709DF80000307000207CBD0120FCE738
:100E90001CB5044601214020FFF7CEFA8DF804402E
:100EA00000208DF8060002208DF8050000208DF846
:100EB00007004FF40070009069460248FFF706FAF9
:100EC0001CBD00000018024070B504460D46A1B2DA
:100ED0000548FFF7E2FD00BF80210348FFF73BFD17
:100EE0000128F9D1204670BD0010014070B50024E2
:100EF00000250120244908600F20FFF741FF002052
:100F00002249C1F89C020AE0641C0120FFF738FF67
:100F10004EF66020844202D94FF0FF3070BD1A486F
:100F2000783800680028EFD0002419494806FFF7F8
:100F30006BFC01218807FFF73EFC0FE0641C0120D9
:100F4000FFF71EFF4EF66020844207D900214FF0C4
:100F50008040FFF730FC4FF0FF30DFE70A48783879
:100F600000680028EAD14FF08040FFF730FC0546CA
:100F700000214FF08040FFF71EFC0548401B3A213E
:100F8000B0FBF1F0CAE700009C0241420000414280
:100F9000A08601001CB501212020FFF74DFA012198
:100FA0001020FFF749FA01208DF8040000208DF889
:100FB000060002208DF8050000208DF807004FF490
:100FC000C060009069461348FFF780F901208DF852
:100FD000040000208DF8060002208DF80500002096
:100FE0008DF807004FF4C040009069460A48FFF7AB
:100FF0006DF90021012000F011F80021022000F01D
:101000000DF80021032000F009F80021042000F071
:1010100005F81CBD001402400010024070B50546E2
:101020000C46012D06D0022D11D0032D1CD0042D0D
:1010300034D126E02CB14FF400711948FFF7B1F913
:1010400004E04FF400711648FFF7ADF926E02CB12B
:101050004FF480611248FFF7A4F904E04FF4806177
:101060000F48FFF7A0F919E02CB14FF400510D48DB
:10107000FFF797F904E04FF400510A48FFF793F99E
:101080000CE02CB14FF480410648FFF78AF904E0E8
:101090004FF480410348FFF786F900BF00BF70BDE1
:1010A00000140240001002404FF4A060FFF7BAF9AC
:1010B00000F01EFA00F076FA00F0E4F9FFF70EFEF9
:1010C000FFF768FF00F0E4F900F0ACF90220FFF749
:1010D00045FEFFF7C1F810B904A0FFF7E3FC04E0F8
:1010E00000F00CF86420FFF715FEF9E7646874312E
:1010F0003120776F726B210D0A00000010B59CB093
:101100000024642103A8FFF762F8002002900190F8
:101110007848006800287DD077A17948FFF762F809
:10112000B8B178A17648FFF75DF828B1012076497B
:10113000086076A0FFF7B6FC77A17148FFF752F878
:10114000002805D000207049086074A0FFF7AAFCB1
:10115000C4E075A16A48FFF745F8C0B1FFF7C6FEC5
:101160000446401C30B1234672A2642103A8FFF755
:10117000A9FC04E072A2642103A8FFF7A3FC03A862
:1011800000F07AFA03A973A0FFF78CFCA6E073A124
:101190005B48FFF727F8002877D071A15848FFF780
:1011A00021F8B8B157A15648FFF71CF830B100201C
:1011B0005549091D08606BA0FFF774FC56A1504803
:1011C000FFF710F830B101204F49091D086068A0F1
:1011D000FFF768FC69A14A48FFF704F8B8B149A1D4
:1011E0004748FEF7FFFF30B100204749083108604B
:1011F00063A0FFF757FC48A14148FEF7F3FF30B169
:10120000012041490831086060A0FFF74BFC62A152
:101210003B4800E06CE0FEF7E5FFA8B139A1384893
:10122000FEF7E0FF28B100205C4908605CA0FFF7F2
:1012300039FC39A13248FEF7D5FF28B101205749C2
:1012400008605AA0FFF72EFC5BA12D48FEF7CAFFED
:10125000002843D02BA12A48FEF7C4FF30B100205C
:101260004E49091D086055A0FFF71CFC2AA124481F
:10127000FEF7B8FF002831D001204849091D086059
:1012800051A0FFF70FFC29E0FFE752A11C48FEF731
:10129000A9FFF8B10120FFF761FD01A902A8FFF73E
:1012A000CEFD50B99DF8040000909DF808304CA286
:1012B000642103A8FFF706FC04E04EA2642103A802
:1012C000FFF700FC03A800F0D7F903A921A0FFF75E
:1012D000E9FB03E00A494CA0FFF7E4FB00200549C5
:1012E000086040210648FEF772FF00204C49086064
:1012F0001CB010BD08000020626565700000000091
:101300001C0000206F6E0000A08242424245455002
:10131000204F4E210D0A00006F6666004245455081
:10132000204F4646210D0A00676574646973746135
:101330006E63650064697374616E63653D25640066
:1013400067657464697374616E6365206572726F3A
:101350007200000025730D0A000000006C65640037
:10136000310000004C454431204F4E210D0A000051
:101370004C454431204F4646210D0A003200000002
:101380004C454432204F4E210D0A00004C4544325A
:10139000204F4646210D0A0033000000B4024242AD
:1013A0004C454433204F4E210D0A00004C45443338
:1013B000204F4646210D0A00340000004C454434BD
:1013C000204F4E210D0A00004C454434204F464624
:1013D000210D0A00676574776561746865720000A5
:1013E00074656D703D25642C2068756D693D2564BC
:1013F0000000000072656164576561746865722061
:101400006572726F72000000756E6B6E6F7720638D
:101410006F6D6D616E64203D2025730A0000000031
:10142000040000201CB501210420FFF705F801206D
:101430008DF8040000208DF8060080200090002028
:101440008DF8070002208DF8050069460C48FEF76C
:101450003DFF80210A48FEF7A4FF00208DF804001C
:101460008DF806004FF40070009000208DF8070002
:1014700002208DF8050069460148FEF727FF1CBDD4
:101480000008024010B56FF00400FFF7EFF810BD40
:101490001FB501210846FEF7DFFF5320ADF8040019
:1014A0001020ADF80600114802900020ADF80C00A5
:1014B00001A94FF08040FFF7A9F91C208DF800002A
:1014C00002208DF801008DF8020001208DF8030044
:1014D0006846FEF76BFF012211469007FFF78BF974
:1014E00001218807FFF767F91FBD0000A0860100F2
:1014F00000B587B001210846FEF79EFF01211020AC
:10150000FEF7BAFF02208DF8180000208DF81A00AF
:1015100002208DF8190000208DF81B004FF4C060E8
:10152000059005A91D48FEF7D1FE072209211B4899
:10153000FEF714FF07220A211848FEF70FFF4FF4A9
:10154000165001900020ADF80800ADF80A00ADF883
:101550000C000C20ADF80E000020ADF8100001A921
:101560000F48FFF72BFA25208DF8000002208DF898
:1015700001008DF8020001208DF803006846FEF797
:1015800015FF012240F225510548FFF7F1F901212D
:101590000348FFF7D4F907B000BD00000000024087
:1015A0000010014000B587B001210220FEF744FF82
:1015B00001218804FEF750FF02208DF8180000205A
:1015C0008DF81A0002208DF8190000208DF81B00FC
:1015D0004FF44060059005A91D48FEF777FE0722ED
:1015E0000A211B48FEF7BAFE07220B211848FEF716
:1015F000B5FE4FF4165001900020ADF80800ADF88C
:101600000A00ADF80C000C20ADF80E000020ADF87B
:10161000100001A90F48FFF7D1F927208DF800002D
:1016200002208DF801008DF8020001208DF80300E2
:101630006846FEF7BBFE012240F225510548FFF740
:1016400097F901210348FFF77AF907B000BD0000C0
:10165000000402400048004010B5044600BF80214D
:101660000448FFF778F90128F9D121460148FFF72E
:1016700014FA10BD0048004010B5044603E014F809
:10168000010BFFF7E9FF20780028F8D110BD00001A
:10169000B0160008000000201C000000EC0A000842
:1016A000CC1600081C00002044040000FC0A0008BE
:1016B000000000000000000000000000000000002A
:0C16C000010203040102030406070809EC
:040000050800018965
:00000001FF
