:020000040800F2
:100000007806002031020008390200083B0200088F
:100010003D0200083F020008410200080000000005
:100020000000000000000000000000004302000883
:1000300045020008000000004702000849020008CD
:100040004B0200084B0200084B0200084B0200085C
:100050004B0200084B0200084B0200084B0200084C
:100060004B0200084B0200084B0200084B0200083C
:100070004B0200084B0200084B0200084B0200082C
:100080004B0200084B0200084B0200084B0200081C
:100090004B0200084B0200084B0200084B0200080C
:1000A0004B0200084B0200084B0200084B020008FC
:1000B0004B0200084B0200084B0200084B020008EC
:1000C0004B0200084B0200084B0200084B020008DC
:1000D0004B0200084B0200084B0200084B020008CC
:1000E0004B0200084B0200084B0200084B020008BC
:1000F0004B0200084B0200084B0200084B020008AC
:100100004B0200084B0200084B0200084B0200089B
:100110004B0200084B0200084B0200084B0200088B
:100120004B0200084B0200084B0200084B0200087B
:100130004B0200084B0200084B0200084B0200086B
:100140004B0200084B0200084B0200084B0200085B
:100150004B0200084B0200084B0200084B0200084B
:100160004B0200084B0200084B0200084B0200083B
:100170004B0200084B0200084B0200084B0200082B
:100180004B0200084B02000800F002F800F041F8B2
:100190000AA090E8000C82448344AAF10107DA45E2
:1001A00001D100F036F8AFF2090EBAE80F0013F0F3
:1001B000010F18BFFB1A43F001031847D8090000CC
:1001C000F8090000103A24BF78C878C1FAD852075D
:1001D00024BF30C830C144BF04680C6070470000C1
:1001E0000023002400250026103A28BF78C1FBD840
:1001F000520728BF30C148BF0B607047642900F028
:100200007980002070471FB500F0BEFC1FBD10B5FF
:1002100010BD00F035F91146FFF7F5FF00F0D0FBF7
:1002200000F053F903B4FFF7F2FF03BC00F038FB12
:100230000948804709480047FEE7FEE7FEE7FEE77A
:10024000FEE7FEE7FEE7FEE7FEE7FEE704480549B6
:10025000054A064B704700006D0700088901000839
:100260007800002078060020780200207802002024
:10027000704700000FB4044910B503AA029800F0BB
:10028000D1F810BC5DF814FB000000202DE9F0410E
:100290000E460446002020622046E168884730B3BD
:1002A000252805D0D4E901219047206A401CF2E7B7
:1002B000E168204600278847050018D0A5F14100D5
:1002C000192802D820354FF40067324629462046C7
:1002D0002760FFF793FF40B1012804D0F61D26F0F8
:1002E00007060836D8E7361DD6E72846DAE7206A3B
:1002F000BDE8F0812DE9F04106460024106875291B
:10030000314616A510D0AFF30080002802DA404233
:1003100013A507E031688A0701D512A502E0490755
:1003200004D511A5012401E0AFF3008000210A22C9
:1003300006F1240709E0B0FBF2FCB0FBF2F302FB8C
:100340001C00303078541846491C0028F3D123464D
:100350002A463046BDE8F04100F00BB8000000002E
:100360002D0000002B0000002000000070477047A7
:1003700070472DE9F0470D4699469246044600F134
:1003800024080168880604D5E06921F01001216085
:1003900000E00120A84201DD471B00E00027A16921
:1003A0007A1902EB0900081AA0612078C00602D46D
:1003B0002046AFF30080002608E0D4E901211AF8B6
:1003C00006009047206A401C761C20624E45F4DBF4
:1003D0002078C0060AD52046AFF3008006E0D4E9B5
:1003E000012130209047206A401C2062381EA7F16E
:1003F0000107F4DC07E0D4E9012118F80500904773
:10040000206A401C2062281EA5F10105F3DC20466D
:10041000AFF300802078000602D50220BDE8F08707
:100420000120FBE7074B70B50D467B4400F011F847
:100430000446284600F020F810B14FF0FF3070BDA0
:10044000204670BDAF04000001694A1C02610878B3
:10045000704700B58FB0CDE9013100210591054904
:100460007944CDE9031011466846FFF70FFF0FB03E
:1004700000BD0000E5FFFFFF007B00F0800070473B
:10048000754600F029F8AE4605006946534620F04F
:100490000700854618B020B5FFF7D8FEBDE820401C
:1004A0004FF000064FF000074FF000084FF0000B30
:1004B00021F00701AC46ACE8C009ACE8C009ACE8E3
:1004C000C009ACE8C0098D4670470446AFF3008010
:1004D0002046FFF7A7FE00000048704714000020E8
:1004E000F0B5002201274FF0030C0B6807FA02F564
:1004F0002B40AB422CD1066853000CFA03F4A64300
:1005000006600E79D0F800E09E4046EA0E060660CE
:100510000E79012E01D0022E12D18668A643866084
:100520004E79D0F808E09E4046EA0E06866046689E
:10053000AE43466045688E799640B6B23543456015
:10054000C568A543C560CC799C40C3681C43C460A2
:10055000521C102AC9D3F0BD4B07DB0E9A40C908C4
:1005600010B500EB8100016A0F249C40A143016299
:10057000016A1143016210BD4183704701837047D6
:1005800030B50F23C27801780125FAB1144A1268F8
:1005900001F1E02102F4E062C2F5E062C2F3072259
:1005A000C2F10404D3404278A24084781C40144332
:1005B000220181F80024007800F01F018D404009DD
:1005C000800000F1E020C0F8005130BD01F01F00B4
:1005D00085404809800000F1E020C0F8805130BD1E
:1005E0000CED00E002490843024908607047000032
:1005F0000000FA050CED00E0044A0029116801D062
:10060000014300E081431160704700003038024030
:10061000044A0029116801D0014300E081431160C0
:10062000704700004438024070B5204B1968204CD8
:1006300011F00C0104D06610042903D0082903D05E
:1006400004601BE0066019E0184A121F1168C1F32C
:100650008055116801F03F0115B1B6FBF1F101E0E1
:10066000B4FBF1F114681268C4F388146143C2F357
:100670000142521C5200B1FBF2F1016019680F22D5
:1006800002EA11110B4A545C0168E14041601C68A8
:10069000072505EA9424145D21FA04F484601B689C
:1006A00005EA5333D25CD140C16070BD08380240C6
:1006B0000024F400040000200CB500222749009219
:1006C0000192086840F4803008604FF4A043086845
:1006D00000F4003001900098401C0090019810B97F
:1006E00000989842F3D10868800334D50120019026
:1006F0001A484030026842F080520260184802688E
:1007000042F4404202601548083002680260026804
:1007100042F400420260026842F4A0520260031FE9
:10072000104A1A600A6842F080720A600A689201F0
:10073000FCD50D4940F205720A60016821F0030101
:100740000160016841F0020101600168C1F38101AB
:100750000229FAD10CBD01920CBD00000038024004
:100760000070004008544007003C0240124810B599
:10077000016841F4700101601048016841F0010115
:1007800001600E4A00210832116002680C4B1A40C9
:100790000260031D0B4A1A60026822F48022026084
:1007A00006480C300160FFF787FF03494FF00060F7
:1007B0008039086010BD000088ED00E0003802407C
:1007C000FFFFF6FE103000240029818902D041F499
:1007D000005101E021F40051818170470246002060
:1007E00012880A4200D00120704700007FB50446FD
:1007F000008A0D46C98820F4405001432182A08917
:1008000041F20C618843A9882A8911436A8902430D
:100810001143A181A08A20F44071A8890843A082D5
:100820006846FFF701FF1A48844202D01948844203
:1008300001D1039800E00298A189090400EBC001EE
:1008400001EB0010296801D5490000E08900B0FBE8
:10085000F1F06422B0FBF2F109010B096FF0180509
:100860006B4300EB8300A3891D044FF0320306D5D0
:1008700003EBC000B0FBF2F000F0070005E003EB73
:100880000010B0FBF2F000F00F00084320817FBDA4
:100890000010014000140140C1F30801818070473D
:1008A000FEE74FF0E0210A6922F001020A61C0EB85
:1008B000C00000EB4000401E486100238B610869C6
:1008C00040F0010008610869C20303D4C007FAD1EF
:1008D000401E70470B6100207047000070B5074D47
:1008E000044681B22846FFF7D7FF80212846FFF74C
:1008F00075FF0028F9D0204670BD000000100140AF
:1009000030B5002301241549154A05281BD2DFE81C
:1009100000F003060D121B00C1F8A44201E0C1F86B
:10092000A432C1F8A842C2F8B4420AE0C1F8A43225
:10093000C1F8A832F7E7C1F8A432C1F8A832C2F86A
:10094000B432C2F8B84230BDC1F8A432C1F8A832FE
:10095000C2F8B432C2F8B83230BD00000080424262
:10096000000042422DE9FC4101213020FFF744FE06
:1009700001208DF8040000208DF8060002218DF87A
:1009800005100D4E4FF4C0658DF8070000956946BF
:100990003046FFF7A5FD094F2C0169463846009403
:1009A000FFF79EFD29463046FFF7E8FD2146384611
:1009B000FFF7E4FDBDE8FC81001402400010024096
:1009C0004FF4A060FFF70EFEFFF7CCFF4FF4E130CD
:1009D00000F08AF800F060F840F68C7500F03CF802
:1009E00004461438A8421FD8214611A0FFF742FC44
:1009F000C82C01D3002004E0A4F19600322803D2D1
:100A00000120FFF77DFFE9E7A4F16400322801D25D
:100A10000220F6E7A4F13200322801D20320F0E7E9
:100A2000322CDBD20420ECE706A0FFF723FCD5E74D
:100A300064697374616E63653A202564206D6D0D81
:100A40000A00000064697374616E636520657272E8
:100A50006F720D0A0000000070B50E4D00240120D9
:100A6000C5F89C020A20FFF71CFF0020C5F89C0275
:100A7000D5F824020028FBD003E00920FFF711FF7E
:100A8000641CD5F824020028F7D1600800EB400070
:100A900070BD0000000041427CB501210420FFF739
:100AA000ABFD8020009001208DF8040000248DF81B
:100AB000064002208DF805000A4D8DF80740694672
:100AC0002846FFF70DFD681500908DF804408DF85D
:100AD000074069462846FFF703FD80212846FFF7B7
:100AE0004BFD7CBD0008024070B50546012188B071
:100AF0000846FFF781FD01211020FFF789FD022143
:100B00008DF8141000248DF816404FF4C0608DF855
:100B100015101B4E04908DF8174004A93046FFF7BE
:100B2000DFFC072209213046FFF716FD07220A21C4
:100B30003046FFF711FD0095ADF808400C20114D2F
:100B4000ADF80440ADF80A00ADF80640ADF80C4031
:100B500069462846FFF74AFE25208DF818008DF8D3
:100B6000194001218DF81A108DF81B1006A8FFF707
:100B700007FD01212846FFF727FE08B070BD0000E1
:100B800000000240001001404FF04070E1EE100AFA
:100B900070470000B40B00080000002014000000A3
:100BA000C4010008C80B00081400002064060000FF
:100BB000E001000800000000000000000102030442
:080BC000010203040607080905
:040000050800018965
:00000001FF
