:020000040800F2
:10000000600600200D020008150200081702000813
:10001000190200081B0200081D0200080000000071
:100020000000000000000000000000001F020008A7
:100030002102000800000000230200082502000839
:1000400027020008270200082702000827020008EC
:1000500027020008270200082702000827020008DC
:1000600027020008270200082702000827020008CC
:1000700027020008270200082702000827020008BC
:1000800027020008270200082702000827020008AC
:10009000270200082702000827020008270200089C
:1000A000270200082702000827020008270200088C
:1000B000270200082702000827020008270200087C
:1000C000270200082702000827020008270200086C
:1000D000270200082702000827020008270200085C
:1000E000270200082702000827020008270200084C
:1000F000270200082702000827020008270200083C
:10010000270200082702000827020008270200082B
:10011000270200082702000827020008270200081B
:10012000270200082702000827020008270200080B
:1001300027020008270200082702000827020008FB
:1001400027020008270200082702000827020008EB
:1001500027020008270200082702000827020008DB
:1001600027020008270200082702000827020008CB
:1001700027020008270200082702000827020008BB
:10018000270200082702000800F002F800F02EF80D
:100190000AA090E8000C82448344AAF10107DA45E2
:1001A00001D100F023F8AFF2090EBAE80F0013F006
:1001B000010F18BFFB1A43F0010318479C0500000C
:1001C000AC0500000023002400250026103A28BFBB
:1001D00078C1FBD8520728BF30C148BF0B607047B9
:1001E0001FB500F083FA1FBD10B510BD00F064F814
:1001F0001146FFF7F5FF00F02FFA00F082F803B484
:10020000FFF7F2FF03BC00F005FA00000948804741
:1002100009480047FEE7FEE7FEE7FEE7FEE7FEE7E8
:10022000FEE7FEE7FEE7FEE704480549054A064B00
:1002300070470000A9040008890100086000002040
:10024000600600206002002060020020704710B5A8
:10025000203AC0F00B80B1E81850203AA0E81850BE
:10026000B1E81850A0E81850BFF4F5AF5FEA027C7F
:1002700024BFB1E81850A0E8185044BF18C918C0EE
:10028000BDE810405FEA827C24BF51F8043B40F88F
:10029000043B08BF7047D20728BF31F8023B48BF74
:1002A00011F8012B28BF20F8023B48BF00F8012BB2
:1002B0007047704770477047754600F029F8AE46A2
:1002C00005006946534620F00700854618B020B562
:1002D000FFF7AAFFBDE820404FF000064FF00007EF
:1002E0004FF000084FF0000B21F00701AC46ACE8DE
:1002F000C009ACE8C009ACE8C009ACE8C0098D464B
:1003000070470446AFF300802046FFF778FF0000F7
:100310000048704700000020F0B5002201274FF090
:10032000030C0B6807FA02F52B40AB422CD1066890
:1003300053000CFA03F4A64306600E79D0F800E0EF
:100340009E4046EA0E0606600E79012E01D0022E6E
:1003500012D18668A64386604E79D0F808E09E40A8
:1003600046EA0E0686604668AE43466045688E796A
:100370009640B6B235434560C568A543C560CC79A3
:100380009C40C3681C43C460521C102AC9D3F0BDF2
:100390004B07DB0E9A40C90810B500EB8100016ADB
:1003A0000F249C40A1430162016A1143016210BD08
:1003B0000249084302490860704700000000FA053E
:1003C0000CED00E0044A0029116801D0014300E06F
:1003D000814311607047000030380240044A002910
:1003E000116801D0014300E08143116070470000B3
:1003F000403802400CB5002227490092019208685B
:1004000040F4803008604FF4A043086800F40030E6
:1004100001900098401C0090019810B900989842F3
:10042000F3D10868800334D5012001901A48403088
:10043000026842F0805202601848026842F440426A
:1004400002601548083002680260026842F4004207
:100450000260026842F4A0520260031F104A1A6050
:100460000A6842F080720A600A689201FCD50D4960
:1004700040F205720A60016821F003010160016821
:1004800041F0020101600168C1F381010229FAD142
:100490000CBD01920CBD000000380240007000400D
:1004A00008544007003C0240124810B5016841F46E
:1004B000700101601048016841F0010101600E4ABD
:1004C00000210832116002680C4B1A400260031DC3
:1004D0000B4A1A60026822F48022026006480C303F
:1004E0000160FFF787FF03494FF000608039086023
:1004F00010BD000088ED00E000380240FFFFF6FE6E
:10050000103000240029018802D041F0800101E070
:1005100021F08001018070470029018802D041F05C
:10052000010101E021F001010180704730B5028C2A
:1005300022F001020284028C8388048B22F00202E2
:1005400024F073050C882C438D8915434A882A436F
:100550000C4DA84202D00C4DA8420DD122F0080546
:10056000CA8923F440732A4322F004058A882A4367
:100570000D8A1D434B8A2B43838004838968416322
:10058000028430BD0000014000040140028B22F0D3
:1005900008020A430283704730B50288164C174D93
:1005A000A0420DD0A8420BD0B0F1804F08D0144B20
:1005B000984205D0134B984202D0134B984203D176
:1005C00022F070034A881A43104B984206D0104B11
:1005D000984203D022F440730A891A4302804A6881
:1005E000C2620A880285A04201D0A84201D1897A5C
:1005F00001860121818230BD0000014000040140DC
:100600000004004000080040000C004000100040C2
:1006100000140040FEE700001CB501212020FFF778
:10062000D1FE4FF48070022100908DF8041000205C
:100630008DF806008DF80510064C8DF80700694608
:100640002046FFF769FE092208212046FFF7A0FE99
:100650001CBD00000014024098B0602208496846A2
:10066000FFF7F5FD4FF4A060FFF7A2FEFFF7D4FF00
:1006700000F008F80020401C1828FCDBFAE7000016
:10068000F806000830B589B001218020FFF7A6FEEA
:100690005320ADF8140040F2E7300024124D0690CC
:1006A000ADF81C40ADF8164005A92846FFF774FFC9
:1006B0006020ADF800000120ADF802000294ADF812
:1006C0000C4069462846FFF731FF08212846FFF70E
:1006D0005DFF01212846FFF715FF01212846FFF79E
:1006E0001BFF09B030BD0000001C00404FF04070FF
:1006F000E1EE100A70470000100300001003000034
:1007000070030000100300004B020000DC03000037
:10071000100300001003000070030000100300002D
:10072000930200004B0200001003000010030000C1
:10073000E40200004B020000DC0300007003000034
:100740001003000010030000E40200004B02000050
:10075000930200004B020000680700080000002020
:0807600060060000C40100085E
:040000050800018965
:00000001FF
