:020000040800F2
:10000000600600200D020008150200081702000813
:10001000190200081B0200081D0200080000000071
:100020000000000000000000000000001F020008A7
:100030002102000800000000230200082502000839
:1000400027020008270200082702000827020008EC
:1000500027020008270200082702000827020008DC
:1000600027020008270200082702000827020008CC
:1000700027020008270200082702000827020008BC
:1000800027020008270200082702000827020008AC
:10009000270200082702000827020008270200089C
:1000A0002702000899050008270200082702000817
:1000B000CD050008FD0500082702000827020008FA
:1000C000270200082702000827020008270200086C
:1000D000270200082702000827020008270200085C
:1000E000270200082702000827020008270200084C
:1000F000310600082702000827020008270200082E
:10010000270200082702000827020008270200082B
:10011000270200082702000827020008270200081B
:10012000270200082702000827020008270200080B
:1001300027020008270200082702000827020008FB
:1001400027020008270200082702000827020008EB
:1001500027020008270200082702000827020008DB
:1001600027020008270200082702000827020008CB
:1001700027020008270200082702000827020008BB
:10018000270200082702000800F002F800F02EF80D
:100190000AA090E8000C82448344AAF10107DA45E2
:1001A00001D100F023F8AFF2090EBAE80F0013F006
:1001B000010F18BFFB1A43F0010318474008000065
:1001C000500800000023002400250026103A28BF14
:1001D00078C1FBD8520728BF30C148BF0B607047B9
:1001E0001FB500F005FC1FBD10B510BD00F031F8C3
:1001F0001146FFF7F5FF00F02BFB00F04FF803B4BA
:10020000FFF7F2FF03BC00F053F8000009488047F5
:1002100009480047FEE7FEE7FEE7FEE7FEE7FEE7E8
:10022000FEE7FEE7FEE7FEE704480549054A064B00
:1002300070470000310500088901000860000020B7
:1002400060060020600200206002002070477047B6
:100250007047754600F028F8AE46050069465346DB
:1002600020F00700854618B020B5FFF7DDFFBDE898
:1002700020404FF000064FF000074FF000084FF00D
:10028000000B21F00701AC46ACE8C009ACE8C0099E
:10029000ACE8C009ACE8C0098D4670470446AFF32E
:1002A00000802046FFF7ABFF0048704700000020A9
:1002B00001491820ABBEFEE7260002007047F0B5EA
:1002C0000A4600210023002400BF3DE0012505FA75
:1002D00001F3156805EA03049C4234D105684F0018
:1002E0000326BE40B543056015794E00B54006684B
:1002F000354305601579012D02D01579022D16D1EF
:1003000085684F000326BE40B543856055794E0091
:10031000B540866835438560456801268E40B54303
:100320004560456896798E40B6B235434560C568EC
:100330004F000326BE40B543C560D5794E00B54099
:10034000C6683543C560491C1029BFD3F0BD418341
:10035000704701837047000070B5002100230F2211
:10036000C4781CB3174C246804F4E064C4F5E0645A
:10037000C4F30721C1F10404E3B20A4144789C406C
:10038000E1B28478144021430C07210E0E4C05780D
:100390006155047804F01F050124AC4005786D1107
:1003A000AD0005F1E025C5F8004109E0047804F04E
:1003B0001F050124AC40054D0678761145F826400E
:1003C00070BD00000CED00E000E400E080E100E022
:1003D00002490143024A1160704700000000FA051B
:1003E0000CED00E029B1064A12680243044B1A6082
:1003F00004E0034A12688243014B1A607047000010
:100400003038024029B1064A12680243044B1A6090
:1004100004E0034A12688243014B1A6070470000EF
:100420004038024029B1064A12680243044B1A6060
:1004300004E0034A12688243014B1A6070470000CF
:10044000443802400CB50020019000903448006808
:1004500040F480303249086000BF3148006800F441
:10046000003000900198401C0190009818B9019844
:10047000B0F5A04FF1D12A48006800F4003010B167
:100480000120009001E0002000900098012846D152
:1004900023484030006840F08050214940310860D6
:1004A0002048006840F440401E4908601C4808305D
:1004B00000681B49083108600846006840F40040A5
:1004C00008600846006840F4A05008601648091FFC
:1004D0000860081F006840F08070091F086000BFB6
:1004E0000F48006800F000700028F9D040F2057055
:1004F0000E4908600A480830006820F003000849E7
:10050000083108600846006840F00200086000BF3B
:1005100003480830006800F00C000828F8D10CBD32
:10052000003802400070004008544007003C024080
:1005300010B51548006840F470001349086013486E
:10054000006840F001001149086000200F4908319F
:1005500008600E4800680E4908400C4908600D48C4
:10056000091D0860081F006820F48020091F08602A
:10057000002006490C310860FFF764FF4FF000606F
:1005800001498039086010BD88ED00E00038024064
:10059000FFFFF6FE1030002410B50121084800F0DE
:1005A00070F801280AD10748006880F00100064968
:1005B000C1F8A4020121024800F054F810BD000067
:1005C00000000140A48242420080424210B5012155
:1005D000880700F056F801280AD10648006880F024
:1005E00001000549C1F8A8020121880700F03AF886
:1005F00010BD0000A88242420080424210B5012195
:10060000084800F03EF801280AD10748006880F049
:1006100001000649C1F8B4020121024800F022F8A5
:1006200010BD000000040040B402424200004242FB
:1006300010B50121084800F024F801280AD1074824
:10064000006880F001000649C1F8B80201210248A3
:1006500000F008F810BD000000040140B80242425A
:1006600000004242CA430282704721B1028842F030
:100670000102028004E002884FF6FE731A400280F5
:10068000704730B50246002000230024158A05EA91
:100690000103958905EA010413B10CB1012000E0C2
:1006A000002030BD1AB183890B43838102E0838926
:1006B0008B4383817047000000220288184B9842C8
:1006C0000ED0184B98420BD0B0F1804F08D0164B8B
:1006D000984205D0154B984202D0154B984204D150
:1006E0004FF68F731A404B881A43124B984207D02B
:1006F000114B984204D04FF6FF431A400B891A431E
:1007000002804B68C3620B880385054B984202D078
:10071000044B984201D18B7A038601238382704770
:1007200000000140000401400004004000080040B7
:10073000000C004000100040001400401CB50121D6
:100740002020FFF74FFE01211020FFF74BFE012074
:100750008DF8040000208DF8060002208DF80500B9
:1007600000208DF807004FF4C060009069461348E0
:10077000FFF7A5FD01208DF8040000208DF806008C
:1007800002208DF8050000208DF807004FF4C040CE
:10079000009069460A48FFF792FD0021012000F011
:1007A00011F80021022000F00DF80021032000F0D4
:1007B00009F80021042000F005F81CBD00140240D7
:1007C0000010024070B505460C46012D06D0022DE2
:1007D00011D0032D1CD0042D34D126E02CB14FF4C0
:1007E00000711948FFF7B3FD04E04FF4007116489B
:1007F000FFF7AFFD26E02CB14FF480611248FFF700
:10080000A6FD04E04FF480610F48FFF7A2FD19E058
:100810002CB14FF400510D48FFF799FD04E04FF45F
:1008200000510A48FFF795FD0CE02CB14FF48041D0
:100830000648FFF78CFD04E04FF480410348FFF7C2
:1008400088FD00BF00BF70BD0014024000100240D0
:100850004FF4A060FFF7BCFDFFF770FF00F008F851
:1008600000F036F800F094F800F062F800BFFEE700
:100870001FB501210846FFF7D5FD44F29F10ADF8E2
:1008800004001020ADF806004FF47A7002900020AA
:10089000ADF80C0001A90D48FFF70EFF19208DF8E7
:1008A000000002208DF801008DF8020001208DF873
:1008B00003006846FFF750FD012211460348FFF789
:1008C000F1FE01210148FFF7D0FE1FBD00000140ED
:1008D0001FB501210846FFF795FD42F2CF00ADF8A4
:1008E00004001020ADF806004FF4FA6002900020DA
:1008F000ADF80C0001A94FF08040FFF7DDFE1C2091
:100900008DF8000002208DF801008DF80200012012
:100910008DF803006846FFF71FFD0122114690077E
:10092000FFF7C0FE01218807FFF79FFE1FBD0000F3
:100930001FB501210220FFF765FD42F2CF00ADF89F
:1009400004001020ADF8060041F28830029000202B
:10095000ADF80C0001A90D48FFF7AEFE1D208DF883
:10096000000002208DF801008DF8020001208DF8B2
:1009700003006846FFF7F0FC012211460348FFF729
:1009800091FE01210148FFF770FE1FBD00040040E9
:100990001FB501210220FFF745FD44F29F10ADF87D
:1009A00004001020ADF8060044F6206002900020FC
:1009B000ADF80C0001A90D48FFF77EFE2C208DF844
:1009C000000002208DF801008DF8020001208DF852
:1009D00003006846FFF7C0FC012211460348FFF7F9
:1009E00061FE01210148FFF740FE1FBD00040140E8
:1009F0004FF04070E1EE100A704700000C0A00084A
:0C0A00000000002060060000C401000897
:040000050800018965
:00000001FF
