:020000040800F2
:10000000100400209D010008A5010008A7010008B8
:10001000A9010008AB010008AD01000800000000C4
:10002000000000000000000000000000AF01000818
:10003000B101000800000000B3010008B50100088C
:10004000B7010008B7010008B7010008B7010008B0
:10005000B7010008B7010008B7010008B7010008A0
:10006000B7010008B7010008B7010008B701000890
:10007000B7010008B7010008B7010008B701000880
:10008000B7010008B7010008B7010008B701000870
:10009000B7010008B7010008B7010008B701000860
:1000A000B7010008D9050008B7010008B70100082A
:1000B0000D0600083D060008B7010008B70100085A
:1000C000B7010008B7010008B7010008B701000830
:1000D000B7010008CD060008B7010008B701000805
:1000E000B7010008B7010008B7010008B701000810
:1000F00071060008B7010008B7010008B701000841
:10010000B7010008B7010008B7010008B7010008EF
:10011000B7010008B7010008B7010008B7010008DF
:10012000B7010008B7010008B7010008B7010008CF
:10013000B7010008B7010008B7010008B7010008BF
:10014000B7010008B7010008B7010008B7010008AF
:10015000B7010008B7010008B7010008B70100089F
:10016000B7010008B7010008B7010008B70100088F
:10017000B7010008B7010008B7010008B70100087F
:10018000B7010008B7010008DFF80CD000F018F83C
:10019000004800470909000810040020064880476D
:1001A00006480047FEE7FEE7FEE7FEE7FEE7FEE75C
:1001B000FEE7FEE7FEE7FEE771050008890100089B
:1001C000064C074D06E0E06840F0010394E80700A4
:1001D00098471034AC42F6D3FFF7DAFFFC09000869
:1001E0001C0A0008F0B50A4600210023002400BFC5
:1001F0003DE0012505FA01F3156805EA03049C4278
:1002000034D105684F000326BE40B543056015791B
:100210004E00B5400668354305601579012D02D0C2
:100220001579022D16D185684F000326BE40B543CF
:10023000856055794E00B5408668354385604568D0
:1002400001268E40B5434560456896798E40B6B22A
:1002500035434560C5684F000326BE40B543C560C1
:10026000D5794E00B540C6683543C560491C102994
:10027000BFD3F0BDF0B5002300244D07ED0E02FA08
:1002800005F3CE1000F1200555F826504E07F70E65
:100290000F26BE40B543CF1000F1200646F8275088
:1002A000CE1000F1200555F8265045EA0304CE1083
:1002B00000F1200545F82640F0BD000070B5002192
:1002C00000230F22C4781CB3174C246804F4E064A4
:1002D000C4F5E064C4F30721C1F10404E3B20A41A8
:1002E00044789C40E1B28478144021430C07210EED
:1002F0000E4C05786155047804F01F050124AC40CC
:1003000005786D11AD0005F1E025C5F8004109E063
:10031000047804F01F050124AC40054D06787611E1
:1003200045F8264070BD00000CED00E000E400E060
:1003300080E100E029B1064A12680243044B1A60CA
:1003400004E0034A12688243014B1A6070470000C0
:100350003038024029B1064A12680243044B1A6041
:1003600004E0034A12688243014B1A6070470000A0
:1003700044380240F0B50021002200240225002666
:100380000223324F3F6807F00C0121B1042905D048
:10039000082937D105E02E4F076036E02D4F076062
:1003A00033E02A4F3F1F3F68C7F38056274F3F1F58
:1003B0003F6807F03F036EB1264FB7FBF3F7DFF856
:1003C0008CC0ACF1040CDCF800C0CCF3881C07FB3B
:1003D0000CF40CE01E4FB7FBF3F7DFF870C0ACF184
:1003E000040CDCF800C0CCF3881C07FB0CF4174F9E
:1003F0003F1F3F68C7F301477F1C7D00B4FBF5F743
:10040000076002E0124F076000BF00BF0F4F3F6858
:1004100007F0F0010909104F7A5C0768D740476080
:100420000A4F3F6807F4E051890A0B4F7A5C47682E
:10043000D7408760054F3F6807F46041490B064F7E
:100440007A5C4768D740C760F0BD000008380240BA
:100450000024F40000127A00000000200CB50020F7
:10046000019000903448006840F4803032490860C0
:1004700000BF3148006800F4003000900198401C33
:100480000190009818B90198B0F5A04FF1D12A4811
:10049000006800F4003010B10120009001E000205D
:1004A00000900098012846D123484030006840F071
:1004B00080502149403108602048006840F44040A5
:1004C0001E4908601C48083000681B490831086054
:1004D0000846006840F4004008600846006840F4A0
:1004E000A05008601648091F0860081F006840F007
:1004F0008070091F086000BF0F48006800F000709E
:100500000028F9D040F205700E4908600A4808300A
:10051000006820F0030008490831086008460068B8
:1005200040F00200086000BF03480830006800F097
:100530000C000828F8D10CBD0038024000700040C3
:1005400008544007003C0240042808D14FF0E02145
:10055000096941F004014FF0E022116107E04FF01A
:10056000E021096921F004014FF0E0221161704798
:1005700010B51548006840F470001349086013482E
:10058000006840F001001149086000200F4908315F
:1005900008600E4800680E4908400C4908600D4884
:1005A000091D0860081F006820F48020091F0860EA
:1005B000002006490C310860FFF750FF4FF0006043
:1005C00001498039086010BD88ED00E00038024024
:1005D000FFFFF6FE1030002410B50121084800F09E
:1005E00064F801280AD10748006880F00100064934
:1005F000C1F8A4020121024800F054F810BD000027
:1006000000000140A48242420080424210B5012114
:10061000880700F04AF801280AD10648006880F0EF
:1006200001000549C1F8A8020121880700F03AF845
:1006300010BD0000A88242420080424210B5012154
:10064000084800F032F801280AD10748006880F015
:1006500001000649C1F8B4020121024800F022F865
:1006600010BD000000040040B402424200004242BB
:1006700010B50121084800F018F801280AD10748F0
:10068000006880F001000649C1F8B8020121024863
:1006900000F008F810BD000000040140B80242421A
:1006A00000004242CA430282704730B50246002031
:1006B00000230024158A05EA0103958905EA01044F
:1006C00013B10CB1012000E0002030BD10B540F2A4
:1006D0002551094800F02DF801280BD140F2255191
:1006E000054800F00BF8044800F0C0F8C4B22046FA
:1006F00000F01AF910BD00000010014010B50022F2
:10070000002340F66A14A14200D100BF0A1201245E
:100710009440A3B2DC43048010BD21B1828942F42D
:100720000052828104E082894DF6FF731A40828173
:10073000704702460020B1F5007F00D100BF13884A
:100740000B400BB1012000E000207047F0B50346DC
:10075000002400260025002040F66A17B94200D187
:1007600000BF1846C1F3421401F01F06012707FA23
:1007700006F5012C01D10C3004E0022C01D110301F
:1007800000E014301AB107682F43076002E00768E1
:10079000AF430760F0BD00002DE9FF4705460E4658
:1007A0000024A14600BFA046B08900B100BF2C8A3A
:1007B00024F44054F08804432C82AC8941F20C604C
:1007C0008443B08831890843718908430443AC816C
:1007D000AC8A24F44074B0890443AC826846FFF7C5
:1007E000C9FD2048854202D01F48854202D1DDF86C
:1007F0000C9001E0DDF80890A88900F4004040B1B9
:1008000009EBC90000EB091031684900B0FBF1F7B2
:1008100007E009EBC90000EB091031688900B0FB63
:10082000F1F76420B7FBF0F004012009642101FB1B
:100830001078A88900F4004040B1322000EBC800D5
:10084000B0FBF1F000F00700044308E0322000EBB9
:1008500008106421B0FBF1F000F00F0004432C817C
:10086000BDE8FF8700100140001401400146888860
:10087000C0F308007047C1F308028280704702E0AD
:1008800008C8121F08C1002AFAD17047704700201B
:1008900001E001C1121F002AFBD1704740F21E3156
:1008A000884200D9084645F208214143491E4FF0CD
:1008B000E0225161002191611146096941F0010175
:1008C000116100BF4FF0E021096901F48031002976
:1008D000F8D04FF0E021096921F001014FF0E0224A
:1008E0001161704700B5034603B9012307E04FF4D7
:1008F000C870FFF7D3FF4FF4C870FFF7CFFF1800A1
:10090000A3F10103F3D100BD00F007F800F01CF8DB
:1009100002E00120FFF7E6FFFBE710B56FF00400EF
:10092000FFF712FE10BD000010B5044600BF802185
:100930000448FFF7FEFE0128F9D121460148FFF7E0
:100940009AFF10BD0010014000B587B00121084694
:10095000FFF7F0FC01211020FFF7FCFC02208DF8CE
:10096000180000208DF81A0002208DF819000020D0
:100970008DF81B004FF4C060059005A91D48FFF7D6
:1009800031FC072209211B48FFF774FC07220A21CA
:100990001848FFF76FFC4FF4E13001900020ADF8EC
:1009A0000800ADF80A00ADF80C000C20ADF80E0000
:1009B0000020ADF8100001A90F48FFF7EDFE25203B
:1009C0008DF8000002208DF801008DF80200012052
:1009D0008DF803006846FFF771FC012240F22551B3
:1009E0000548FFF7B3FE01210348FFF796FE07B065
:1009F00000BD000000000240001001401C0A000879
:100A000000000020100000007E0800082C0A0008EA
:100A100010000020000400008E0800080000000004
:0C0A200001020304010203040607080998
:040000050800018965
:00000001FF
