:020000040800F2
:10000000600600200D020008150200081702000813
:10001000190200081B0200081D0200080000000071
:100020000000000000000000000000001F020008A7
:100030002102000800000000230200082502000839
:1000400027020008270200082702000827020008EC
:1000500027020008270200082702000827020008DC
:1000600027020008270200082702000827020008CC
:1000700027020008270200082702000827020008BC
:1000800027020008270200082702000827020008AC
:10009000270200082702000827020008270200089C
:1000A000270200082702000827020008270200088C
:1000B000270200082702000827020008270200087C
:1000C000270200082702000827020008270200086C
:1000D000270200082702000827020008270200085C
:1000E000270200082702000827020008270200084C
:1000F000270200082702000827020008270200083C
:10010000270200082702000827020008270200082B
:10011000270200082702000827020008270200081B
:10012000270200082702000827020008270200080B
:1001300027020008270200082702000827020008FB
:1001400027020008270200082702000827020008EB
:1001500027020008270200082702000827020008DB
:1001600027020008270200082702000827020008CB
:1001700027020008270200082702000827020008BB
:10018000270200082702000800F002F800F02EF80D
:100190000AA090E8000C82448344AAF10107DA45E2
:1001A00001D100F023F8AFF2090EBAE80F0013F006
:1001B000010F18BFFB1A43F0010318473804000071
:1001C000480400000023002400250026103A28BF20
:1001D00078C1FBD8520728BF30C148BF0B607047B9
:1001E0001FB500F001FA1FBD10B510BD00F031F8C9
:1001F0001146FFF7F5FF00F0DBF900F04FF803B40C
:10020000FFF7F2FF03BC00F053F8000009488047F5
:1002100009480047FEE7FEE7FEE7FEE7FEE7FEE7E8
:10022000FEE7FEE7FEE7FEE704480549054A064B00
:100230007047000065040008890100086000002084
:1002400060060020600200206002002070477047B6
:100250007047754600F028F8AE46050069465346DB
:1002600020F00700854618B020B5FFF7DDFFBDE898
:1002700020404FF000064FF000074FF000084FF00D
:10028000000B21F00701AC46ACE8C009ACE8C0099E
:10029000ACE8C009ACE8C0098D4670470446AFF32E
:1002A00000802046FFF7ABFF0048704700000020A9
:1002B00001491820ABBEFEE7260002007047F0B5EA
:1002C0000A4600210023002400BF3DE0012505FA75
:1002D00001F3156805EA03049C4234D105684F0018
:1002E0000326BE40B543056015794E00B54006684B
:1002F000354305601579012D02D01579022D16D1EF
:1003000085684F000326BE40B543856055794E0091
:10031000B540866835438560456801268E40B54303
:100320004560456896798E40B6B235434560C568EC
:100330004F000326BE40B543C560D5794E00B54099
:10034000C6683543C560491C1029BFD3F0BD418341
:10035000704701837047000029B1064A12680243C2
:10036000044B1A6004E0034A12688243014B1A608E
:1003700070470000303802400CB50020019000901A
:100380003448006840F480303249086000BF31488A
:10039000006800F4003000900198401C0190009823
:1003A00018B90198B0F5A04FF1D12A48006800F4BF
:1003B000003010B10120009001E000200090009872
:1003C000012846D123484030006840F08050214940
:1003D000403108602048006840F440401E490860F1
:1003E0001C48083000681B4908310860084600684E
:1003F00040F4004008600846006840F4A0500860DF
:100400001648091F0860081F006840F08070091F27
:10041000086000BF0F48006800F000700028F9D0A5
:1004200040F205700E4908600A480830006820F064
:1004300003000849083108600846006840F00200DF
:10044000086000BF03480830006800F00C0008286E
:10045000F8D10CBD0038024000700040195440072C
:10046000003C024010B51548006840F47000134984
:1004700008601348006840F001001149086000203E
:100480000F49083108600E4800680E4908400C49C1
:1004900008600D48091D0860081F006820F48020CE
:1004A000091F0860002006490C310860FFF764FF4F
:1004B0004FF0006001498039086010BD88ED00E010
:1004C00000380240FFFFF6FE10300024002107E054
:1004D000002200E0521C41F288339A42FADB491CA8
:1004E0008142F5D3704700001CB501210846FFF793
:1004F00033FF00208DF804008DF8070001200090E4
:1005000069460248FFF7DBFE1CBD00000000024008
:100510001CB501212020FFF71FFF01208DF80400EA
:1005200000208DF8060002208DF8050000208DF8CF
:1005300007004FF4C060009069460648FFF7BFFE11
:100540000021012000F008F80021022000F004F84A
:100550001CBD00000014024070B505460C46012D7C
:1005600006D0022D11D0032D1CD0042D1CD11AE071
:100570002CB14FF400710D48FFF7E9FE04E04FF491
:1005800000710A48FFF7E5FE0EE02CB14FF48061E0
:100590000648FFF7DCFE04E04FF480610348FFF7F4
:1005A000D8FE01E000E000BF00BF70BD00140240B3
:1005B0000024FFF799FFFFF7ABFF12E0094800683E
:1005C00060B92CB901210846FFF7C6FF012408E0F5
:1005D00000210120FFF7C0FF002402E03220FFF7D6
:1005E00075FFEBE7000240424FF04070E1EE100A69
:1005F00070470000040600080000002060060000AC
:04060000C401000829
:040000050800018965
:00000001FF
