:020000040800F2
:10000000600600200D020008150200081702000813
:10001000190200081B0200081D0200080000000071
:100020000000000000000000000000001F020008A7
:100030002102000800000000230200082502000839
:1000400027020008270200082702000827020008EC
:1000500027020008270200082702000827020008DC
:1000600027020008270200082702000827020008CC
:1000700027020008270200082702000827020008BC
:1000800027020008270200082702000827020008AC
:10009000270200082702000827020008270200089C
:1000A000270200082702000827020008270200088C
:1000B000270200082702000827020008270200087C
:1000C000270200082702000827020008270200086C
:1000D000270200082702000827020008270200085C
:1000E000270200082702000827020008270200084C
:1000F000270200082702000827020008270200083C
:10010000270200082702000827020008270200082B
:10011000270200082702000827020008270200081B
:10012000270200082702000827020008270200080B
:1001300027020008270200082702000827020008FB
:1001400027020008270200082702000827020008EB
:1001500027020008270200082702000827020008DB
:1001600027020008270200082702000827020008CB
:1001700027020008270200082702000827020008BB
:10018000270200082702000800F002F800F02EF80D
:100190000AA090E8000C82448344AAF10107DA45E2
:1001A00001D100F023F8AFF2090EBAE80F0013F006
:1001B000010F18BFFB1A43F001031847B0040000F9
:1001C000C00400000023002400250026103A28BFA8
:1001D00078C1FBD8520728BF30C148BF0B607047B9
:1001E0001FB500F03DFA1FBD10B510BD00F031F88D
:1001F0001146FFF7F5FF00F0DBF900F04FF803B40C
:10020000FFF7F2FF03BC00F053F8000009488047F5
:1002100009480047FEE7FEE7FEE7FEE7FEE7FEE7E8
:10022000FEE7FEE7FEE7FEE704480549054A064B00
:1002300070470000190400088901000860000020D0
:1002400060060020600200206002002070477047B6
:100250007047754600F028F8AE46050069465346DB
:1002600020F00700854618B020B5FFF7DDFFBDE898
:1002700020404FF000064FF000074FF000084FF00D
:10028000000B21F00701AC46ACE8C009ACE8C0099E
:10029000ACE8C009ACE8C0098D4670470446AFF32E
:1002A00000802046FFF7ABFF0048704700000020A9
:1002B00001491820ABBEFEE7260002007047F0B5EA
:1002C000002201274FF0030C0B6807FA02F52B40C0
:1002D000AB422CD1066853000CFA03F4A643066027
:1002E0000E79D0F800E09E4046EA0E0606600E79D0
:1002F000012E01D0022E12D18668A64386604E7967
:10030000D0F808E09E4046EA0E0686604668AE4396
:10031000466045688E799640B6B235434560C568FB
:10032000A543C560CC799C40C3681C43C460521C83
:10033000102AC9D3F0BD0246002012690A4200D03B
:10034000012070474183704701837047044A0029A8
:10035000116801D0014300E0814311607047000043
:10036000303802400CB500222749009201920868FB
:1003700040F4803008604FF4A043086800F4003077
:1003800001900098401C0090019810B90098984284
:10039000F3D10868800334D5012001901A48403019
:1003A000026842F0805202601848026842F44042FB
:1003B00002601548083002680260026842F4004298
:1003C0000260026842F4A0520260031F104A1A60E1
:1003D0000A6842F080720A600A689201FCD50D49F1
:1003E00040F205720A60016821F0030101600168B2
:1003F00041F0020101600168C1F381010229FAD1D3
:100400000CBD01920CBD000000380240007000409D
:1004100019544007003C0240124810B5016841F4ED
:10042000700101601048016841F0010101600E4A4D
:1004300000210832116002680C4B1A400260031D53
:100440000B4A1A60026822F48022026006480C30CF
:100450000160FFF787FF03494FF0006080390860B3
:1004600010BD000088ED00E000380240FFFFF6FEFE
:10047000103000241CB501212020FFF767FF4FF446
:100480008070009001208DF8040000208DF8060097
:1004900002218DF805108DF8070069460148FFF725
:1004A0000EFF1CBD00140240044A00284FF4807166
:1004B000104601D0FFF748BFFFF744BF00140240C9
:1004C0007CB501211120FFF741FF00248DF8044085
:1004D00001208DF80640022500908DF805508DF81A
:1004E000074069460848FFF7EAFE8DF804401C20E3
:1004F0008DF8064000908DF805508DF8074069464C
:100500000248FFF7DCFE7CBD000002400010024004
:100510000E4A012808D0022809D00D4A03280ED01F
:10052000042811D1000304E04FF4007001E04FF4FF
:10053000806000290146104604D0FFF703BF4FF446
:100540000050F6E7FFF700BF7047000000140240BC
:10055000001002402DE9FC4101213020FFF7F6FE9A
:1005600001208DF8040000208DF8060002218DF88E
:1005700005100D4E4FF4C0658DF8070000956946D3
:100580003046FFF79CFE094F2C016946384600941F
:10059000FFF795FE29463046FFF7D6FE214638463E
:1005A000FFF7D2FEBDE8FC810014024000100240BB
:1005B000FFF7D0FFFFF75EFFFFF782FF264D274CC6
:1005C00001212846FFF7B7FE70B30020FFF76CFF4C
:1005D00004212046FFF7AFFE40B300210120FFF7C2
:1005E00097FF08212046FFF7A6FE08B3002101204F
:1005F000FFF78EFF00210220FFF78AFF102120461F
:10060000FFF799FED0B100210120FFF781FF002103
:100610000220FFF77DFF00210320FFF779FF002173
:100620000420FFF775FFCBE70120CFE70121D5E7D5
:1006300001210846FFF76CFF0121DCE70121084694
:10064000FFF766FF01210220FFF762FF012103206F
:10065000FFF75EFF0121E3E70000024000100240C7
:100660004FF04070E1EE100A704700007C06000871
:0C0670000000002060060000C40100082B
:040000050800018965
:00000001FF
