:020000040800F2
:10000000600600200D020008150200081702000813
:10001000190200081B0200081D0200080000000071
:100020000000000000000000000000001F020008A7
:100030002102000800000000230200082502000839
:1000400027020008270200082702000827020008EC
:1000500027020008270200082702000827020008DC
:1000600027020008270200082702000827020008CC
:1000700027020008270200082702000827020008BC
:1000800027020008270200082702000827020008AC
:10009000270200082702000827020008270200089C
:1000A000270200082702000827020008270200088C
:1000B000270200082702000827020008270200087C
:1000C000270200082702000827020008270200086C
:1000D000270200082702000827020008270200085C
:1000E000270200082702000827020008270200084C
:1000F000270200082702000827020008270200083C
:10010000270200082702000827020008270200082B
:10011000270200082702000827020008270200081B
:10012000270200082702000827020008270200080B
:1001300027020008270200082702000827020008FB
:1001400027020008270200082702000827020008EB
:1001500027020008270200082702000827020008DB
:1001600027020008270200082702000827020008CB
:1001700027020008270200082702000827020008BB
:10018000270200082702000800F002F800F02EF80D
:100190000AA090E8000C82448344AAF10107DA45E2
:1001A00001D100F023F8AFF2090EBAE80F0013F006
:1001B000010F18BFFB1A43F001031847E8030000C2
:1001C000F80300000023002400250026103A28BF71
:1001D00078C1FBD8520728BF30C148BF0B607047B9
:1001E0001FB500F0D9F91FBD10B510BD00F031F8F2
:1001F0001146FFF7F5FF00F09DF900F04FF803B44A
:10020000FFF7F2FF03BC00F053F8000009488047F5
:1002100009480047FEE7FEE7FEE7FEE7FEE7FEE7E8
:10022000FEE7FEE7FEE7FEE704480549054A064B00
:1002300070470000AD03000889010008600000203D
:1002400060060020600200206002002070477047B6
:100250007047754600F028F8AE46050069465346DB
:1002600020F00700854618B020B5FFF7DDFFBDE898
:1002700020404FF000064FF000074FF000084FF00D
:10028000000B21F00701AC46ACE8C009ACE8C0099E
:10029000ACE8C009ACE8C0098D4670470446AFF32E
:1002A00000802046FFF7ABFF0048704700000020A9
:1002B00001491820ABBEFEE726000200704700008F
:1002C0000CB50020019000903448006840F4803064
:1002D0003249086000BF3148006800F400300090E7
:1002E0000198401C0190009818B90198B0F5A04FF2
:1002F000F1D12A48006800F4003010B101200090CC
:1003000001E0002000900098012846D123484030A9
:10031000006840F080502149403108602048006862
:1003200040F440401E4908601C48083000681B49E2
:10033000083108600846006840F40040086008463C
:10034000006840F4A05008601648091F0860081FA4
:10035000006840F08070091F086000BF0F48006807
:1003600000F000700028F9D040F205700E490860D6
:100370000A480830006820F0030008490831086086
:100380000846006840F00200086000BF03480830DB
:10039000006800F00C000828F8D10CBD00380240BD
:1003A0000070004019544007003C024010B5154849
:1003B000006840F47000134908601348006840F07A
:1003C00001001149086000200F49083108600E48FB
:1003D00000680E4908400C4908600D48091D086076
:1003E000081F006820F48020091F086000200649CB
:1003F0000C310860FFF764FF4FF00060014980395D
:10040000086010BD88ED00E000380240FFFFF6FEF6
:10041000103000241148006820F440200F49086083
:100420000846006840F480200860081D006820F439
:100430000070091D0860081D006820F44020091D97
:1004400008600846006840F400200860081D006845
:1004500020F44020091D086070470000001402408D
:100460001148006820F440100F49086008460068F1
:1004700040F480100860081D006820F48060091DA9
:100480000860081D006820F44010091D0860084637
:10049000006840F400100860081D006820F4401057
:1004A000091D086070470000001402400F480068F2
:1004B00020F040600D4908600846006840F0806008
:1004C00008600846406820F400504860084680688C
:1004D00020F0406088600846806840F000608860D6
:1004E0000846C06820F04060C860704700100240B5
:1004F0000F48006820F040500D4908600846006829
:1005000040F0805008600846406820F48040486011
:100510000846806820F0405088600846806840F0B7
:10052000005088600846C06820F04050C86070479E
:100530000010024000B51548006840F02000134943
:1005400008600846006840F010000860FFF762FF8E
:10055000FFF786FFFFF7AAFFFFF7CAFF0C480088E6
:1005600040F400700A4908800846008840F4806022
:1005700008800848008B40F400500649088308466C
:10058000008B40F480400883002000BD30380240DA
:1005900018140240001002404FF04070E1EE100AC3
:1005A00070470000B405000800000020600600004D
:0405B000C40100087A
:040000050800018965
:00000001FF
