:020000040800F2
:10000000600600200D020008150200081702000813
:10001000190200081B0200081D0200080000000071
:100020000000000000000000000000001F020008A7
:100030002102000800000000230200082502000839
:1000400027020008270200082702000827020008EC
:1000500027020008270200082702000827020008DC
:1000600027020008270200082702000827020008CC
:1000700027020008270200082702000827020008BC
:1000800027020008270200082702000827020008AC
:10009000270200082702000827020008270200089C
:1000A000270200085105000827020008270200085F
:1000B00085050008B505000827020008270200088A
:1000C000270200082702000827020008270200086C
:1000D000270200082702000827020008270200085C
:1000E000270200082702000827020008270200084C
:1000F000E905000827020008270200082702000877
:10010000270200082702000827020008270200082B
:10011000270200082702000827020008270200081B
:10012000270200082702000827020008270200080B
:1001300027020008270200082702000827020008FB
:1001400027020008270200082702000827020008EB
:1001500027020008270200082702000827020008DB
:1001600027020008270200082702000827020008CB
:1001700027020008270200082702000827020008BB
:10018000270200082702000800F002F800F02EF80D
:100190000AA090E8000C82448344AAF10107DA45E2
:1001A00001D100F023F8AFF2090EBAE80F0013F006
:1001B000010F18BFFB1A43F0010318474C0700005A
:1001C0005C0700000023002400250026103A28BF09
:1001D00078C1FBD8520728BF30C148BF0B607047B9
:1001E0001FB500F08BFB1FBD10B510BD00F031F83E
:1001F0001146FFF7F5FF00F0FFFA00F04FF803B4E7
:10020000FFF7F2FF03BC00F053F8000009488047F5
:1002100009480047FEE7FEE7FEE7FEE7FEE7FEE7E8
:10022000FEE7FEE7FEE7FEE704480549054A064B00
:1002300070470000E9040008890100086000002000
:1002400060060020600200206002002070477047B6
:100250007047754600F028F8AE46050069465346DB
:1002600020F00700854618B020B5FFF7DDFFBDE898
:1002700020404FF000064FF000074FF000084FF00D
:10028000000B21F00701AC46ACE8C009ACE8C0099E
:10029000ACE8C009ACE8C0098D4670470446AFF32E
:1002A00000802046FFF7ABFF0048704700000020A9
:1002B00001491820ABBEFEE7260002007047F0B5EA
:1002C0000A4600210023002400BF3DE0012505FA75
:1002D00001F3156805EA03049C4234D105684F0018
:1002E0000326BE40B543056015794E00B54006684B
:1002F000354305601579012D02D01579022D16D1EF
:1003000085684F000326BE40B543856055794E0091
:10031000B540866835438560456801268E40B54303
:100320004560456896798E40B6B235434560C568EC
:100330004F000326BE40B543C560D5794E00B54099
:10034000C6683543C560491C1029BFD3F0BDF0B560
:10035000002300244D07ED0E02FA05F3CE1000F144
:10036000200555F826504E07F70E0F26BE40B54320
:10037000CF1000F1200646F82750CE1000F12005DE
:1003800055F8265045EA0304CE1000F1200545F843
:100390002640F0BD29B1064A12680243044B1A6098
:1003A00004E0034A12688243014B1A607047000060
:1003B0003038024029B1064A12680243044B1A60E1
:1003C00004E0034A12688243014B1A607047000040
:1003D000443802400CB50020019000903448006879
:1003E00040F480303249086000BF3148006800F4B2
:1003F000003000900198401C0190009818B90198B5
:10040000B0F5A04FF1D12A48006800F4003010B1D7
:100410000120009001E0002000900098012846D1C2
:1004200023484030006840F0805021494031086046
:100430002048006840F440401E4908601C480830CD
:1004400000681B49083108600846006840F4004015
:1004500008600846006840F4A05008601648091F6C
:100460000860081F006840F08070091F086000BF26
:100470000F48006800F000700028F9D040F20570C5
:100480000E4908600A480830006820F00300084957
:10049000083108600846006840F00200086000BFAC
:1004A00003480830006800F00C000828F8D10CBDA3
:1004B000003802400070004008544007003C0240F1
:1004C000042808D14FF0E021096941F004014FF000
:1004D000E022116107E04FF0E021096921F00401F9
:1004E0004FF0E0221161704710B51548006840F4E4
:1004F0007000134908601348006840F0010011497A
:10050000086000200F49083108600E4800680E4955
:1005100008400C4908600D48091D0860081F006864
:1005200020F48020091F0860002006490C31086073
:10053000FFF750FF4FF0006001498039086010BD9F
:1005400088ED00E000380240FFFFF6FE1030002486
:1005500010B50121084800F08BF801280AD107489E
:10056000006880F001000649C1F8A4020121024898
:1005700000F060F810BD000000000140A48242427B
:100580000080424210B50121880700F071F801286F
:100590000AD10648006880F001000549C1F8A802A8
:1005A0000121880700F046F810BD0000A8824242F1
:1005B0000080424210B50121084800F059F8012896
:1005C0000AD10748006880F001000649C1F8B4026A
:1005D0000121024800F02EF810BD00000004004088
:1005E000B40242420000424210B50121084800F026
:1005F0003FF801280AD10748006880F00100064949
:10060000C1F8B8020121024800F014F810BD000042
:1006100000040140B80242420000424221B1028877
:1006200042F08002028004E002884FF67F731A4095
:1006300002807047CA430282704721B1028842F0AB
:100640000102028004E002884FF6FE731A40028025
:10065000704731B1B0F8442042F40042A0F8442081
:1006600005E0B0F84420C2F30E02A0F84420704721
:1006700030B50246002000230024158A05EA010354
:10068000958905EA010413B10CB1012000E00020B6
:1006900030BD000070B5002200230024058C4EF60A
:1006A000FF7635400584038C8488828B48F6FF757D
:1006B0002A404FF6FF452A400D884FF6FF7606EA9E
:1006C00005252A434DF6FF752B408D8906EA053531
:1006D0002B434D8806EA05352B430A4DA84202D02C
:1006E000094DA84208D14BF6FF752C400D8A4FF6F4
:1006F000FF7606EA85152C43848082838D68056425
:10070000038470BD00000140000401400A4600213E
:10071000818B4FF2FF7319404FF6FF7303EA0223F8
:1007200019438183704701647047000000220288EA
:10073000184B98420ED0184B98420BD0B0F1804F16
:1007400008D0164B984205D0154B984202D0154B55
:10075000984204D14FF68F731A404B881A43124BBC
:10076000984207D0114B984204D04FF6FF431A40ED
:100770000B891A4302804B68C3620B880385054BC3
:10078000984202D0044B984201D18B7A0386012310
:1007900083827047000001400004014000040040D3
:1007A00000080040000C0040001000400014004011
:1007B00040F21E31884200D9084645F208214143E3
:1007C000491E4FF0E02251610021916111460969F3
:1007D00041F00101116100BF4FF0E021096901F40E
:1007E00080310029F8D04FF0E021096921F00101A2
:1007F0004FF0E02211617047002400F021F800F072
:1008000077F819E007E02146641C0C48FFF78BFFDE
:100810000220FFF7CDFFB4F57A7FF4D307E021463D
:10082000641E0648FFF77FFF0220FFF7C1FF002C80
:10083000F5D1C820FFF7BCFFE4E70000000001404D
:1008400000B58BB001211020FFF7A4FD012108465F
:10085000FFF7B0FD02208DF8280000208DF82A0057
:1008600002208DF8290000208DF82B004FF48040E5
:10087000099009A91C48FFF722FD01220E211A4800
:10088000FFF765FDA720ADF818001020ADF81A009D
:100890004FF47A7007900020ADF8200006A91348A5
:1008A000FFF744FF6020ADF80400322003900220DF
:1008B000ADF810000120ADF8060001A90B48FFF7C4
:1008C000E9FE08210948FFF721FF01210748FFF74A
:1008D000A5FE01210548FFF7B0FE01210348FFF7FF
:1008E000B8FE0BB000BD0000001002400000014047
:1008F00010B56FF00400FFF7E3FD10BD4FF040703E
:10090000E1EE100A704700001809000800000020FE
:0809100060060000C4010008AC
:040000050800018965
:00000001FF
