:020000040800F2
:10000000600600200D020008150200081702000813
:10001000190200081B0200081D0200080000000071
:100020000000000000000000000000001F020008A7
:100030002102000800000000230200082502000839
:1000400027020008270200082702000827020008EC
:1000500027020008270200082702000827020008DC
:1000600027020008270200082702000827020008CC
:1000700027020008270200082702000827020008BC
:1000800027020008270200082702000827020008AC
:10009000270200082702000827020008270200089C
:1000A000270200082702000827020008270200088C
:1000B000270200082702000827020008270200087C
:1000C000270200082702000827020008270200086C
:1000D000270200082702000827020008270200085C
:1000E000270200082702000827020008270200084C
:1000F000270200082702000827020008270200083C
:10010000270200082702000827020008270200082B
:10011000270200082702000827020008270200081B
:10012000270200082702000827020008270200080B
:1001300027020008270200082702000827020008FB
:1001400027020008270200082702000827020008EB
:1001500027020008270200082702000827020008DB
:1001600027020008270200082702000827020008CB
:1001700027020008270200082702000827020008BB
:10018000270200082702000800F002F800F02EF80D
:100190000AA090E8000C82448344AAF10107DA45E2
:1001A00001D100F023F8AFF2090EBAE80F0013F006
:1001B000010F18BFFB1A43F001031847E8030000C2
:1001C000F80300000023002400250026103A28BF71
:1001D00078C1FBD8520728BF30C148BF0B607047B9
:1001E0001FB500F0DAF91FBD10B510BD00F031F8F1
:1001F0001146FFF7F5FF00F09FF900F04FF803B448
:10020000FFF7F2FF03BC00F053F8000009488047F5
:1002100009480047FEE7FEE7FEE7FEE7FEE7FEE7E8
:10022000FEE7FEE7FEE7FEE704480549054A064B00
:10023000704700000D0400088901000860000020DC
:1002400060060020600200206002002070477047B6
:100250007047754600F028F8AE46050069465346DB
:1002600020F00700854618B020B5FFF7DDFFBDE898
:1002700020404FF000064FF000074FF000084FF00D
:10028000000B21F00701AC46ACE8C009ACE8C0099E
:10029000ACE8C009ACE8C0098D4670470446AFF32E
:1002A00000802046FFF7ABFF0048704700000020A9
:1002B00001491820ABBEFEE7260002007047F0B5EA
:1002C000002201274FF0030C0B6807FA02F52B40C0
:1002D000AB422CD1066853000CFA03F4A643066027
:1002E0000E79D0F800E09E4046EA0E0606600E79D0
:1002F000012E01D0022E12D18668A64386604E7967
:10030000D0F808E09E4046EA0E0686604668AE4396
:10031000466045688E799640B6B235434560C568FB
:10032000A543C560CC799C40C3681C43C460521C83
:10033000102AC9D3F0BD4183704701837047000084
:10034000044A0029116801D0014300E08143116093
:1003500070470000303802400CB500222749009257
:100360000192086840F4803008604FF4A0430868A8
:1003700000F4003001900098401C0090019810B9E2
:1003800000989842F3D10868800334D50120019089
:100390001A484030026842F08052026018480268F1
:1003A00042F4404202601548083002680260026868
:1003B00042F400420260026842F4A0520260031F4D
:1003C000104A1A600A6842F080720A600A68920154
:1003D000FCD50D4940F205720A60016821F0030165
:1003E0000160016841F0020101600168C1F381010F
:1003F0000229FAD10CBD01920CBD00000038024068
:100400000070004019544007003C0240124810B5EB
:10041000016841F4700101601048016841F0010178
:1004200001600E4A00210832116002680C4B1A402C
:100430000260031D0B4A1A60026822F480220260E7
:1004400006480C300160FFF787FF03494FF000605A
:100450008039086010BD000088ED00E000380240DF
:10046000FFFFF6FE10300024002241F2883304E042
:100470000021491C9942FCD3521C8242F8D3704798
:100480000E4A012808D0022809D00D4A03280ED0B0
:10049000042811D1000304E04FF4007001E04FF490
:1004A000806000290146104604D0FFF744BF4FF496
:1004B0000050F6E7FFF741BF70470000001402400C
:1004C000001002402DE9FC4701213020FFF738FFE2
:1004D00001268DF8046000248DF806400227DFF81D
:1004E00050904FF4C0658DF8057000958DF8074069
:1004F00069464846FFF7E3FE8DF804608DF8064034
:100500008DF805708DF807400A4C4FF4C048CDF8BF
:10051000008069462046FFF7D2FE29464846FFF78D
:100520000CFF41462046FFF708FFBDE8FC870000AE
:100530000014024000100240FFF7C4FF4FF4FA74A9
:1005400001210846FFF79CFF2046FFF78DFF0021A1
:100550000120FFF795FF01210220FFF791FF2046C0
:10056000FFF782FF00210220FFF78AFF012103200D
:10057000FFF786FF2046FFF777FF00210320FFF7F4
:100580007FFF01210420FFF77BFF2046FFF76CFF70
:1005900000210420FFF774FFD2E74FF04070E1EE36
:1005A000100A7047B4050008000000206006000033
:0405B000C40100087A
:040000050800018965
:00000001FF
