:020000040800F2
:10000000600600200D020008150200081702000813
:10001000190200081B0200081D0200080000000071
:100020000000000000000000000000001F020008A7
:100030002102000800000000230200082502000839
:1000400027020008270200082702000827020008EC
:1000500027020008270200082702000827020008DC
:1000600027020008270200082702000827020008CC
:1000700027020008270200082702000827020008BC
:1000800027020008270200082702000827020008AC
:10009000270200082702000827020008270200089C
:1000A0002702000829050008270200082702000887
:1000B000270200082702000827020008270200087C
:1000C000270200082702000827020008270200086C
:1000D000270200082702000827020008270200085C
:1000E000270200082702000827020008270200084C
:1000F000270200082702000827020008270200083C
:10010000270200082702000827020008270200082B
:10011000270200082702000827020008270200081B
:10012000270200082702000827020008270200080B
:1001300027020008270200082702000827020008FB
:1001400027020008270200082702000827020008EB
:1001500027020008270200082702000827020008DB
:1001600027020008270200082702000827020008CB
:1001700027020008270200082702000827020008BB
:10018000270200082702000800F002F800F02EF80D
:100190000AA090E8000C82448344AAF10107DA45E2
:1001A00001D100F023F8AFF2090EBAE80F0013F006
:1001B000010F18BFFB1A43F0010318475006000057
:1001C000600600000023002400250026103A28BF06
:1001D00078C1FBD8520728BF30C148BF0B607047B9
:1001E0001FB500F00DFB1FBD10B510BD00F031F8BC
:1001F0001146FFF7F5FF00F08DFA00F04FF803B459
:10020000FFF7F2FF03BC00F053F8000009488047F5
:1002100009480047FEE7FEE7FEE7FEE7FEE7FEE7E8
:10022000FEE7FEE7FEE7FEE704480549054A064B00
:1002300070470000C1040008890100086000002028
:1002400060060020600200206002002070477047B6
:100250007047754600F028F8AE46050069465346DB
:1002600020F00700854618B020B5FFF7DDFFBDE898
:1002700020404FF000064FF000074FF000084FF00D
:10028000000B21F00701AC46ACE8C009ACE8C0099E
:10029000ACE8C009ACE8C0098D4670470446AFF32E
:1002A00000802046FFF7ABFF0048704700000020A9
:1002B00001491820ABBEFEE7260002007047F0B5EA
:1002C0000A4600210023002400BF3DE0012505FA75
:1002D00001F3156805EA03049C4234D105684F0018
:1002E0000326BE40B543056015794E00B54006684B
:1002F000354305601579012D02D01579022D16D1EF
:1003000085684F000326BE40B543856055794E0091
:10031000B540866835438560456801268E40B54303
:100320004560456896798E40B6B235434560C568EC
:100330004F000326BE40B543C560D5794E00B54099
:10034000C6683543C560491C1029BFD3F0BDF0B560
:10035000002300244D07ED0E02FA05F3CE1000F144
:10036000200555F826504E07F70E0F26BE40B54320
:10037000CF1000F1200646F82750CE1000F12005DE
:1003800055F8265045EA0304CE1000F1200545F843
:100390002640F0BD29B1064A12680243044B1A6098
:1003A00004E0034A12688243014B1A607047000060
:1003B0003038024029B1064A12680243044B1A60E1
:1003C00004E0034A12688243014B1A607047000040
:1003D000403802400CB5002001900090344800687D
:1003E00040F480303249086000BF3148006800F4B2
:1003F000003000900198401C0190009818B90198B5
:10040000B0F5A04FF1D12A48006800F4003010B1D7
:100410000120009001E0002000900098012846D1C2
:1004200023484030006840F0805021494031086046
:100430002048006840F440401E4908601C480830CD
:1004400000681B49083108600846006840F4004015
:1004500008600846006840F4A05008601648091F6C
:100460000860081F006840F08070091F086000BF26
:100470000F48006800F000700028F9D040F20570C5
:100480000E4908600A480830006820F00300084957
:10049000083108600846006840F00200086000BFAC
:1004A00003480830006800F00C000828F8D10CBDA3
:1004B000003802400070004008544007003C0240F1
:1004C00010B51548006840F47000134908601348DF
:1004D000006840F001001149086000200F49083110
:1004E00008600E4800680E4908400C4908600D4835
:1004F000091D0860081F006820F48020091F08609B
:10050000002006490C310860FFF764FF4FF00060DF
:1005100001498039086010BD88ED00E000380240D4
:10052000FFFFF6FE1030002410B50121084800F04E
:1005300030F801280AD10748006880F00100064918
:10054000C1F8B8020121024800F014F810BD000003
:1005500000440140B88242420080424221B10288F8
:1005600042F08002028004E002884FF67F731A4056
:1005700002807047CA430282704721B1028842F06C
:100580000102028004E002884FF6FE731A400280E6
:10059000704730B50246002000230024158A05EA82
:1005A0000103958905EA010413B10CB1012000E0B3
:1005B000002030BD70B5002400220023058C4FF6CA
:1005C000FE7635400584028C8388048B4FF68F7548
:1005D0002C40B51E2C400D882C43751E2A408D8959
:1005E0002A434D882A43104DA84202D00F4DA842FD
:1005F00013D14FF6F7752A40CD892A434FF6FB7584
:100600002A408D882A434FF6FF652B404FF6FF5551
:100610002B400D8A2B434D8A2B43838004838D68A6
:100620004563028470BD00000000014000040140E9
:100630000A460021018B4FF6F773194011430183DD
:10064000704741637047000000220288184B9842AF
:100650000ED0184B98420BD0B0F1804F08D0164BFB
:10066000984205D0154B984202D0154B984204D1C0
:100670004FF68F731A404B881A43124B984207D09B
:10068000114B984204D04FF6FF431A400B891A438E
:1006900002804B68C3620B880385054B984202D0E9
:1006A000044B984201D18B7A0386012383827047E1
:1006B0000000014000040140000400400008004028
:1006C000000C0040001000400014004040F21E31B9
:1006D000884200D9084645F208214143491E4FF09F
:1006E000E0225161002191611146096941F0010147
:1006F000116100BF4FF0E021096901F48031002948
:10070000F8D04FF0E021096921F001014FF0E0221B
:1007100011617047002400F01FF819E007E021463E
:10072000641C0C48FFF78DFF0220FFF7CFFFB4F5E4
:100730007A7FF4D307E02146641E0648FFF781FF65
:100740000220FFF7C3FF002CF5D1C820FFF7BEFF42
:10075000E4E700000020004000B58BB0012120201C
:10076000FFF718FE01210802FFF724FE02208DF892
:10077000280000208DF82A0002208DF82900002092
:100780008DF82B004FF40070099009A91A48FFF763
:1007900096FD092211461848FFF7D9FD5320ADF800
:1007A00018001020ADF81A004FF47A70079000205E
:1007B000ADF8200006A91148FFF746FF6020ADF80C
:1007C0000400322003900220ADF810000120ADF8A3
:1007D000060001A90948FFF7EDFE08210748FFF7C9
:1007E00027FF01210548FFF7B9FE01210348FFF764
:1007F000C4FE0BB000BD0000001402400020004009
:100800004FF04070E1EE100A704700001C0800082D
:0C0810000000002060060000C401000889
:040000050800018965
:00000001FF
